S0110000536D617274486F6D652E7372656383
S11300000C942A000C9447000C9447000C9447006D
S11300100C9447000C9447000C9447000C94470040
S11300200C9447000C9447000C9447000C94470030
S11300300C9447000C9447000C9447000C94470020
S11300400C9447000C9447000C9447000C94470010
S11300500C94470011241FBECFE5D8E0DEBFCDBF0E
S113006010E0A0E6B0E0E0E0FCE002C005900D92F4
S1130070A036B107D9F720E0A0E6B0E001C01D9298
S1130080A036B207E1F70E9472000C94FE050C94AE
S1130090000081111EC00E94BF028B3178F080E203
S11300A00E94B40281E20E94B80280E00E94B30080
S11300B084E60E94BC000E94BF000895853188F444
S11300C081E20E94B40280E20E94B8020E94C2004F
S11300D008950E94C20081E20E94B80280E20E9458
S11300E0B80208950E9496010E94E3000E94C50090
S11300F00E94A8000E94BC0280E20E94B00281E239
S11301000E94B00264E680E00E94C80080E00E9481
S113011049002FEF87EA91E6215080409040E1F7B3
S113012000C000002FEF81EE94E021508040904009
S1130130E1F700C000000E94AC020E94BF02BC01B3
S113014080E090E00E94CE0181E00E944900EACF65
S113015061E08EE20E94070361E08CE20E940703E3
S11301600E943C05089561E08CE20E94900360E0E7
S11301708EE20E94900308950E944D0508950E9406
S11301806D0508950E94740508950E94A2040895BF
S1130190CF93DF93C82FD62F0E94B104C0658C2F54
S11301A00E94C5048D2F0E94EE040E940D058C2F21
S11301B00E94D8040E940605C82F0E941B058C2F9C
S11301C0DF91CF91089561E084E10E94070361E02B
S11301D085E10E94070361E086E10E94070361E074
S11301E087E10E94070361E084E10E94900361E0DB
S11301F085E10E94900361E086E10E94900361E042
S113020087E10E94900360E088E10E94070360E0B8
S113021089E10E94070360E08AE10E94070360E02D
S11302208BE10E94070360E088E10E94190460E00A
S113023089E10E94190460E08AE10E94190460E0E7
S11302408BE10E9419040895CF93C82F61E08BE0DD
S11302500E9490038BB38F709C2F907F892B8BBB54
S113026061E08DE00E9490038FE99FE00197F1F730
S113027000C0000060E08DE00E9490032BB330E1E9
S1130280C39FC0011124922F9F70892B8BBB61E007
S11302908DE00E9490038FE99FE00197F1F700C081
S11302A0000060E08DE00E949003CF910895CF9309
S11302B0C82F60E08BE00E9490038BB38F709C2F5B
S11302C0907F892B8BBB61E08DE00E9490038FE9C6
S11302D09FE00197F1F700C0000060E08DE00E940C
S11302E090038FE19EE40197F1F700C000002BB367
S11302F030E1C39FC0011124922F9F70892B8BBBC7
S113030061E08DE00E9490038FE99FE00197F1F78F
S113031000C0000060E08DE00E9490038FE19EE445
S11303200197F1F700C00000CF91089561E08EE0DD
S11303300E94070361E08FE00E94070361E080E10F
S11303400E94070361E081E10E94070361E08BE002
S11303500E94070361E08CE00E94070361E08DE0E6
S11303600E9407032FEF83ED90E3215080409040DB
S1130370E1F700C0000083E30E94570182E30E947A
S1130380570188E20E9457018CE00E94570181E0E6
S11303900E94570182E00E94570108953F924F92B4
S11303A05F926F927F928F929F92AF92BF92CF9201
S11303B0DF92EF92FF920F931F93CF93DF9300D0BE
S11303C000D0CDB7DEB74B015C012DB73EB73A8301
S11303D02983672B682B692B19F480E30E9424017D
S11303E0A8EEB3E0A50194010E94DF0528EE33E0F6
S11303F040E050E00E94B105672B682B692B09F09F
S11304008EC0BB205CF48DE20E942401B094A094C1
S113041090948094811C911CA11CB11C1814190483
S11304201A041B040CF07BC0A5019401312C0EC0EE
S1130430211531054105510549F0CA01B9012AE0E8
S113044030E040E050E00E948F05339421153105DF
S11304504105510569F78DB79EB79C838B83832D26
S113046090E0880F991F880F991F2DB73EB7281B5E
S1130470390B0FB6F8943EBF0FBE2DBF0DB71EB794
S11304800F5F1F4F412C512C320120C03FEF431A04
S1130490530A630A730AC418D508E608F708C501A5
S11304A0B4012AE030E040E050E00E94B105CC0CF9
S11304B0DD1CCC0CDD1CF801EC0DFD1D608371838B
S11304C082839383822E932EA42EB52EC32CD12CFB
S11304D0E12CF12C4C145D046E047F04B8F2812CE1
S11304E0912C540110C0F401EE0FFF1FEE0FFF1FFB
S11304F0E00FF11F8081805D0E9424018FEF881A34
S1130500980AA80AB80A8C149D04AE04BF0458F3D0
S11305102B813C810FB6F8943EBF0FBE2DBF89815D
S11305209A810FB6F8949EBF0FBE8DBF0F900F90A7
S11305300F900F90DF91CF911F910F91FF90EF904B
S1130540DF90CF90BF90AF909F908F907F906F90EF
S11305505F904F903F90089581E00E945701089565
S113056061E00E940703089561E00E9490030895EA
S113057060E00E94900308950E94CE0208950E94B4
S1130580FA029C01A4EFB1E00E94D0052FEF33E002
S113059040E050E00E948F05C901089560E08BE0BF
S11305A00E94070387B1806487B987B18F7787B9C1
S11305B087B18F7D87B987B18F7E87B987B1877FF0
S11305C087B987B18B7F87B987B18D7F87B987B1A9
S11305D08E7F87B986B1846086B986B1826086B918
S11305E086B1816086B986B1806886B986B1806239
S11305F086B9089586B1806486B9349BFECF24B150
S113060085B190E0982F8827820F911D08959DEC65
S1130610899F912D1124292F269526952695220F01
S1130620322F330F330F230F821B282F9695969565
S11306309695662319F06130E1F108959230A9F09E
S113064018F4913031F008959330D9F0943029F1B1
S113065008953AB381E090E002C0880F991F2A956B
S1130660E2F7809583238ABB089537B381E090E055
S113067002C0880F991F2A95E2F78095832387BBD0
S1130680089534B381E090E002C0880F991F2A9541
S1130690E2F78095832384BB089531B381E090E031
S11306A002C0880F991F2A95E2F78095832381BBA6
S11306B008959230A1F018F4913031F008959330F8
S11306C0C9F0943011F108953AB381E090E002C08A
S11306D0880F991F2A95E2F7832B8ABB089537B3B5
S11306E081E090E002C0880F991F2A95E2F7832BDE
S11306F087BB089534B381E090E002C0880F991F4E
S11307002A95E2F7832B84BB089531B381E090E00E
S113071002C0880F991F2A95E2F7832B81BB0895A5
S11307209DEC899F912D1124292F26952695269598
S1130730220F322F330F330F230F821B282F96954E
S113074096959695662319F06130E1F108959230FB
S1130750A9F018F4913031F008959330D9F0943021
S113076029F108953BB381E090E002C0880F991FFE
S11307702A95E2F7809583238BBB089538B381E0F3
S113078090E002C0880F991F2A95E2F78095832391
S113079088BB089535B381E090E002C0880F991FAB
S11307A02A95E2F78095832385BB089532B381E0CF
S11307B090E002C0880F991F2A95E2F78095832361
S11307C082BB08959230A1F018F4913031F008956D
S11307D09330C9F0943011F108953BB381E090E077
S11307E002C0880F991F2A95E2F7832B8BBB0895CB
S11307F038B381E090E002C0880F991F2A95E2F790
S1130800832B88BB089535B381E090E002C0880F44
S1130810991F2A95E2F7832B85BB089532B381E0B3
S113082090E002C0880F991F2A95E2F7832B82BBC0
S113083008959DEC899F912D1124292F26952695A5
S11308402695220F322F330F330F230F821B282FAD
S11308509695969596956623F1F1613009F071C0ED
S11308609230A9F018F4913031F008959330D9F012
S1130870943029F108953BB381E090E002C0880FE1
S1130880991F2A95E2F7809583238BBB089538B38B
S113089081E090E002C0880F991F2A95E2F78095C5
S11308A0832388BB089535B381E090E002C0880FAC
S11308B0991F2A95E2F78095832385BB089532B367
S11308C081E090E002C0880F991F2A95E2F7809595
S11308D0832382BB08959230A1F018F4913031F053
S11308E008959330C9F0943011F108953BB381E039
S11308F090E002C0880F991F2A95E2F7832B8BBBE7
S1130900089538B381E090E002C0880F991F2A95BA
S1130910E2F7832B88BB089535B381E090E002C0F1
S1130920880F991F2A95E2F7832B85BB089532B36C
S113093081E090E002C0880F991F2A95E2F7832B8B
S113094082BB089586B78B7F86BF8CE080B986B75B
S1130950846086BF8FE39CE90197F1F700C0000033
S1130960089586B7806286BF86B7806886BF06B65C
S113097007FEFDCF81B1887F8830E1F78FE39CE9E2
S11309800197F1F700C000000895880F83B986B776
S1130990806886BF06B607FEFDCF81B1887F8831A7
S11309A0E1F78FE39CE90197F1F700C00000089597
S11309B090E0880F991F816083B986B7806886BFED
S11309C006B607FEFDCF81B1887F8034E1F78FE35F
S11309D09CE90197F1F700C00000089583B986B738
S11309E08F7D86BF86B7806886BF06B607FEFDCFBB
S11309F081B1887F8832E1F72FEF81EE94E02150B6
S1130A0080409040E1F700C00000089584E886BF6C
S1130A1006B607FEFDCF83B1089586B7806286BF10
S1130A2086B7806886BF06B607FEFDCF81B1887F92
S1130A308031E1F7089586B7806186BF86B7806804
S1130A4086BF8FE99FE00197F1F700C00000089589
S1130A5085B5846085BD85B5826085BD85B58160B9
S1130A6085BD089585B58B7F85BD85B58D7F85BD95
S1130A7085B58E7F85BD089561E08FE20E940703EE
S1130A8085B5886085BD85B5806485BD85B5806282
S1130A9085BD85B58F7E85BD089581110FC095B53F
S1130AA0906295BD95B5906195BD982F80E064E600
S1130AB070E00E947B05609563BD089595B59062D2
S1130AC095BD95B59F7E95BD982F80E064E670E056
S1130AD00E947B05615063BD08950E94280561E072
S1130AE08FE20E94070308950E94320560E08FE2BE
S1130AF00E940703089597FB072E16F4009407D06D
S1130B0077FD09D00E94EA0507FC05D03EF49095D4
S1130B1081959F4F0895709561957F4F0895A1E247
S1130B201A2EAA1BBB1BFD010DC0AA1FBB1FEE1F63
S1130B30FF1FA217B307E407F50720F0A21BB30BAE
S1130B40E40BF50B661F771F881F991F1A9469F72A
S1130B5060957095809590959B01AC01BD01CF0186
S1130B600895052E97FB1EF400940E94C80557FDB6
S1130B7007D00E948F0507FC03D04EF40C94C805DF
S1130B8050954095309521953F4F4F4F5F4F0895B5
S1130B9090958095709561957F4F8F4F9F4F0895E5
S1130BA0A29FB001B39FC001A39F700D811D1124AA
S1130BB0911DB29F700D811D1124911D08950E94F5
S1130BC0D005A59F900DB49F900DA49F800D911DFD
S1130BD011240895AA1BBB1B51E107C0AA1FBB1F08
S1130BE0A617B70710F0A61BB70B881F991F5A95B5
S1130BF0A9F780959095BC01CD010895F894FFCF95
S9030000FC
