:100000000C942A000C9447000C9447000C94470071
:100010000C9447000C9447000C9447000C94470044
:100020000C9447000C9447000C9447000C94470034
:100030000C9447000C9447000C9447000C94470024
:100040000C9447000C9447000C9447000C94470014
:100050000C94470011241FBECFE5D8E0DEBFCDBF12
:1000600011E0A0E6B0E0E0E4F9E002C005900D92F6
:10007000A634B107D9F721E0A6E4B1E001C01D9292
:10008000A634B207E1F70E9463000C949E040C941E
:1000900000000E94900187E291E00E94AC0160E0C4
:1000A00081E00E94940188E391E00E94AC012FEF6F
:1000B00087EA91E6215080409040E1F700C00000BF
:1000C0000E94900108950E9458010E94A5000E947C
:1000D00087000E947C000E94C9010E94CC0180E23E
:1000E0000E94C50181E20E94C50164E680E00E9491
:1000F0008A000E944900FFCF61E08EE20E94030265
:1001000061E08CE20E9403020E944C0408950E9468
:100110009E030895CF93DF93C82FD62F0E94AD037F
:10012000C0658C2F0E94C1038D2F0E94EA030E949C
:1001300006048C2F0E94D4030E94FF03C82F0E9444
:1001400014048C2FDF91CF91089561E082E20E9428
:10015000030261E083E20E94030261E084E20E9404
:10016000030261E085E20E94030261E082E20E94F4
:100170008C0261E083E20E948C0261E084E20E94D2
:100180008C0261E085E20E948C0260E08AE20E94BB
:10019000030260E08BE20E94030260E081E10E94C2
:1001A000030260E087E10E94030260E08AE20E94AD
:1001B000150360E08BE20E94150360E081E10E947C
:1001C000150360E087E10E9415030895CF93C82FBF
:1001D00061E084E10E948C0288B38F709C2F907F35
:1001E000892B88BB61E086E10E948C028FE99FE049
:1001F0000197F1F700C0000060E086E10E948C02E8
:1002000028B330E1C39FC0011124922F9F70892B26
:1002100088BB61E086E10E948C028FE99FE0019734
:10022000F1F700C0000060E086E10E948C02CF91EF
:100230000895CF93C82F60E084E10E948C0288B3B8
:100240008F709C2F907F892B88BB61E086E10E9494
:100250008C028FE99FE00197F1F700C0000060E099
:1002600086E10E948C028FE19EE40197F1F700C0C5
:10027000000028B330E1C39FC0011124922F9F706A
:10028000892B88BB61E086E10E948C028FE99FE0A8
:100290000197F1F700C0000060E086E10E948C0247
:1002A0008FE19EE40197F1F700C00000CF9108951F
:1002B00061E088E10E94030261E089E10E9403029B
:1002C00061E08AE10E94030261E08BE10E94030287
:1002D00061E084E10E94030261E085E10E94030283
:1002E00061E086E10E9403022FEF83ED90E321504D
:1002F00080409040E1F700C0000083E30E941901B4
:1003000082E30E94190188E20E9419018CE00E9498
:10031000190181E00E94190182E00E9419010895EB
:1003200081E00E9419010895CF93DF9300D0CDB7EB
:10033000DEB790E8998390EC9A83E1E0F0E0EC0F6F
:10034000FD1FE80FF11D8081860F0E9419010F909B
:100350000F90DF91CF9108950F931F93CF938C014E
:10036000C0E009C00E94E600CF5FC03121F460E028
:1003700081E00E949401F801EC0FF11D8081811150
:10038000F1CFCF911F910F91089561E00E94030278
:1003900008950E94D701089561E08DE20E94030252
:1003A0000E94210482E390E00E943704089560E0F7
:1003B0008BE00E94030287B1806487B987B18F7791
:1003C00087B987B18F7D87B987B18F7E87B987B1AC
:1003D000877F87B987B18B7F87B987B18D7F87B9D1
:1003E00087B18E7F87B986B1846086B986B1826015
:1003F00086B986B1816086B986B1806886B986B1D2
:10040000806286B908959DEC899F912D1124292F32
:10041000269526952695220F322F330F330F230F63
:10042000821B282F969596959695662319F0613034
:10043000E1F108959230A9F018F4913031F0089567
:100440009330D9F0943029F108953AB381E090E0E7
:1004500002C0880F991F2A95E2F7809583238ABBF3
:10046000089537B381E090E002C0880F991F2A9564
:10047000E2F78095832387BB089534B381E090E051
:1004800002C0880F991F2A95E2F78095832384BBC9
:10049000089531B381E090E002C0880F991F2A953A
:1004A000E2F78095832381BB08959230A1F018F480
:1004B000913031F008959330C9F0943011F10895DE
:1004C0003AB381E090E002C0880F991F2A95E2F7C5
:1004D000832B8ABB089537B381E090E002C0880F78
:1004E000991F2A95E2F7832B87BB089534B381E0E7
:1004F00090E002C0880F991F2A95E2F7832B84BBF6
:10050000089531B381E090E002C0880F991F2A95C9
:10051000E2F7832B81BB08959DEC899F912D1124D7
:10052000292F269526952695220F322F330F330F2C
:10053000230F821B282F969596959695662319F082
:100540006130E1F108959230A9F018F4913031F062
:1005500008959330D9F0943029F108953BB381E0A8
:1005600090E002C0880F991F2A95E2F780958323B7
:100570008BBB089538B381E090E002C0880F991FCB
:100580002A95E2F78095832388BB089535B381E0EF
:1005900090E002C0880F991F2A95E2F78095832387
:1005A00085BB089532B381E090E002C0880F991FA7
:1005B0002A95E2F78095832382BB08959230A1F0BB
:1005C00018F4913031F008959330C9F0943011F15E
:1005D00008953BB381E090E002C0880F991F2A95EF
:1005E000E2F7832B8BBB089538B381E090E002C023
:1005F000880F991F2A95E2F7832B88BB089535B39E
:1006000081E090E002C0880F991F2A95E2F7832BC2
:1006100085BB089532B381E090E002C0880F991F36
:100620002A95E2F7832B82BB08959DEC899F912D3B
:100630001124292F269526952695220F322F330F28
:10064000330F230F821B282F969596959695662338
:10065000F1F1613009F071C09230A9F018F49130D5
:1006600031F008959330D9F0943029F108953BB3D7
:1006700081E090E002C0880F991F2A95E2F78095EB
:1006800083238BBB089538B381E090E002C0880FCC
:10069000991F2A95E2F78095832388BB089535B387
:1006A00081E090E002C0880F991F2A95E2F78095BB
:1006B000832385BB089532B381E090E002C0880FA8
:1006C000991F2A95E2F78095832382BB0895923083
:1006D000A1F018F4913031F008959330C9F09430BE
:1006E00011F108953BB381E090E002C0880F991F9B
:1006F0002A95E2F7832B8BBB089538B381E090E015
:1007000002C0880F991F2A95E2F7832B88BB0895B2
:1007100035B381E090E002C0880F991F2A95E2F777
:10072000832B85BB089532B381E090E002C0880F2F
:10073000991F2A95E2F7832B82BB089586B78B7F9A
:1007400086BF8CE080B986B7846086BF8FE39CE962
:100750000197F1F700C00000089586B7806286BF58
:1007600086B7806886BF06B607FEFDCF81B1887F59
:100770008830E1F78FE39CE90197F1F700C00000B2
:100780000895880F83B986B7806886BF06B607FECE
:10079000FDCF81B1887F8831E1F78FE39CE9019734
:1007A000F1F700C00000089590E0880F991F816064
:1007B00083B986B7806886BF06B607FEFDCF81B1D4
:1007C000887F8034E1F78FE39CE90197F1F700C05F
:1007D0000000089583B986B78F7D86BF86B780688D
:1007E00086BF06B607FEFDCF81B1887F8832E1F76C
:1007F0008FE39CE90197F1F700C00000089584E8B9
:1008000086BF06B607FEFDCF83B1089586B7806226
:1008100086BF86B7806886BF06B607FEFDCF81B16A
:10082000887F8031E1F7089586B7806186BF86B7FB
:10083000806886BF8FE99FE00197F1F700C0000054
:10084000089581B3806281BB8FB580688FBD8FB5FD
:100850008F7B8FBD8EB580618EBD8EB588608EBD5D
:100860008FB582608FBD8FB58E7F8FBD08950024B8
:10087000969587950794969587950794982F802D40
:100880009C0140E050E060E074E284EF90E00E9460
:100890007F0437BD26BD089561E08FE20E94030208
:1008A00085B5886085BD85B5806485BD85B5806268
:1008B00085BD85B58F7E85BD0895A1E21A2EAA1B40
:1008C000BB1BFD010DC0AA1FBB1FEE1FFF1FA21700
:1008D000B307E407F50720F0A21BB30BE40BF50BFD
:1008E000661F771F881F991F1A9469F76095709586
:1008F000809590959B01AC01BD01CF010895052E17
:1009000097FB1EF400940E94960457FD07D00E94A6
:100910005D0407FC03D04EF40C949604509540956A
:10092000309521953F4F4F4F5F4F0895909580959B
:10093000709561957F4F8F4F9F4F0895F894FFCF2B
:10094000496E76616C696420557365726E616D6580
:100950000056616C696420456E7472790055736548
:1009600072204164646564004E6F206F6620557389
:100970006572730052656163686564206D6178001B
:100980004E756D626572204F6620557365727300F7
:1009900056616C696420557365726E616D65004CBB
:1009A0006F67696E205375636365737366756C005A
:1009B000496E76616C69642050617373776F7264FD
:1009C000004F722050617373776F726400546865D2
:1009D0007265206973206E6F207573657273006194
:1009E000646465642079657400446F6F7220497394
:1009F000204F70656E656400446F6F7220497320EC
:100A0000436C6F7365640057656C636F6D6520742C
:100A10006F20536D61727400486F6D652050726F66
:060A20006A65637400002A
:00000001FF
