:100000000C942A000C9447000C9447000C94470071
:100010000C9447000C9447000C9447000C94470044
:100020000C9447000C9447000C9447000C94470034
:100030000C9447000C9447000C9447000C94470024
:100040000C9447000C9447000C9447000C94470014
:100050000C94470011241FBECFE5D8E0DEBFCDBF12
:1000600011E0A0E6B0E0EAECFDE002C005900D92E0
:10007000A232B107D9F721E0A2E2B1E001C01D929E
:10008000A232B207E1F70E940F010C94E3060C9430
:100090000000AF92BF92CF92DF92EF92FF920F9348
:1000A0001F93CF93DF937C018B0164E680E00E9475
:1000B0004B01B82E811133C051C0DD2DDD0FDD0F96
:1000C000DD0FDD19C0E0C12C0DC06C2F6D0F80E07D
:1000D0000E944B01F701EC0FF11D9081891301C0C3
:1000E000C394CF5FC33088F3C0E0A12C0EC06C2F47
:1000F0006D0F6D5F80E00E944B01F801EC0FF11D68
:100100009081891301C0A394CF5FC43080F383E052
:10011000C81203C084E0A81639F0D39401C0D12CD2
:10012000DB1458F2A12CC12C83E0C81209C084E072
:10013000A81206C08FEB90E00E94650480E01BC00F
:1001400080E690E00E94650460E081E00E944D043A
:1001500081EE90E00E94650481E00DC08DEE90E09C
:100160000E94650460E081E00E944D048FEF90E002
:100170000E94650480E0DF91CF911F910F91FF9065
:10018000EF90DF90CF90BF90AF9008950F931F93A3
:10019000CF938C0160E081E00E944D04C0E00BC071
:1001A0000E94A701882339F0F801EC0FF11D80832C
:1001B0000E949F03CF5FC33098F32FEF85EA9EE044
:1001C000215080409040E1F700C00000CF911F9186
:1001D0000F9108950F931F93CF938C0160E081E0FE
:1001E0000E944D04C0E00CC00E94A701882341F08A
:1001F000F801EC0FF11D80838AE20E949F03CF5F1C
:10020000C43090F32FEF85EA9EE02150804090406B
:10021000E1F700C00000CF911F910F910895CF9397
:10022000DF93CDB7DEB727970FB6F894DEBF0FBECA
:10023000CDBF0E9411040E9466010E94480164E63D
:1002400080E00E944B0119821A821B821C821D824F
:100250001E821F820E94490489E091E00E94650489
:10026000CE0101960E94C6000E94490482E191E0FD
:100270000E946504CE0104960E94EA000E9449048F
:10028000BE016C5F7F4FCE0101960E944900FFCFF7
:100290000E945D060895CF93DF93C82FD62F0E944A
:1002A0006C06C0658C2F0E9480068D2F0E94A906C7
:1002B0000E94C8068C2F0E9493060E94C106C82F78
:1002C0000E94D6068C2FDF91CF91089561E088E2DD
:1002D0000E947E0461E089E20E947E0461E08AE27D
:1002E0000E947E0461E08BE20E947E0461E088E26D
:1002F0000E94070561E089E20E94070561E08AE249
:100300000E94070561E08BE20E94070560E08CE235
:100310000E947E0460E08DE20E947E0460E08EE236
:100320000E947E0460E08FE20E947E0460E08CE226
:100330000E94D40560E08DE20E94D40560E08EE268
:100340000E94D40560E08FE20E94D4050895CF9307
:1003500060E088E20E9407058CE20E94900581110E
:1003600019C02FEF86E791E0215080409040E1F7DF
:1003700000C000008CE20E94900581110DC08CE24B
:100380000E9490058823D9F361E088E20E94070566
:10039000C7E303C0C0E001C0C0E08DE20E94900549
:1003A000811118C02FEF86E791E0215080409040E6
:1003B000E1F700C000008DE20E94900581110AC0A3
:1003C0008DE20E9490058823D9F361E088E20E94C3
:1003D0000705C8E38EE20E949005811118C02FEF37
:1003E00086E791E0215080409040E1F700C0000096
:1003F0008EE20E94900581110AC08EE20E94900553
:100400008823D9F361E088E20E940705C9E38FE2FF
:100410000E949005811118C02FEF86E791E02150CE
:1004200080409040E1F700C000008FE20E949005FC
:1004300081110AC08FE20E9490058823D9F361E000
:1004400088E20E940705CFE261E088E20E9407058A
:1004500060E089E20E9407058CE20E94900581110C
:1004600018C02FEF86E791E0215080409040E1F7DF
:1004700000C000008CE20E94900581110AC08CE24D
:100480000E9490058823D9F361E089E20E94070564
:10049000C4E38DE20E949005811118C02FEF86E71A
:1004A00091E0215080409040E1F700C000008DE2D3
:1004B0000E94900581110AC08DE20E949005882358
:1004C000D9F361E089E20E940705C5E38EE20E944C
:1004D0009005811118C02FEF86E791E021508040F0
:1004E0009040E1F700C000008EE20E94900581116B
:1004F0000AC08EE20E9490058823D9F361E089E268
:100500000E940705C6E38FE20E949005811118C082
:100510002FEF86E791E0215080409040E1F700C046
:1005200000008FE20E94900581110AC08FE20E94B4
:1005300090058823D9F361E089E20E940705CAE2A9
:1005400061E089E20E94070560E08AE20E940705F7
:100550008CE20E949005811118C02FEF86E791E090
:10056000215080409040E1F700C000008CE20E94E2
:10057000900581110AC08CE20E9490058823D9F36E
:1005800061E08AE20E940705C1E38DE20E949005C6
:10059000811118C02FEF86E791E0215080409040F4
:1005A000E1F700C000008DE20E94900581110AC0B1
:1005B0008DE20E9490058823D9F361E08AE20E94CF
:1005C0000705C2E38EE20E949005811118C02FEF4B
:1005D00086E791E0215080409040E1F700C00000A4
:1005E0008EE20E94900581110AC08EE20E94900561
:1005F0008823D9F361E08AE20E940705C3E38FE212
:100600000E949005811118C02FEF86E791E02150DC
:1006100080409040E1F700C000008FE20E9490050A
:1006200081110AC08FE20E9490058823D9F361E00E
:100630008AE20E940705CDE261E08AE20E94070596
:1006400060E08BE20E9407058CE20E949005811118
:1006500018C02FEF86E791E0215080409040E1F7ED
:1006600000C000008CE20E94900581110AC08CE25B
:100670000E9490058823D9F361E08BE20E94070570
:10068000C3E48DE20E949005811118C02FEF86E728
:1006900091E0215080409040E1F700C000008DE2E1
:1006A0000E94900581110AC08DE20E949005882366
:1006B000D9F361E08BE20E940705C0E38EE20E945D
:1006C0009005811118C02FEF86E791E021508040FE
:1006D0009040E1F700C000008EE20E949005811179
:1006E0000AC08EE20E9490058823D9F361E08BE274
:1006F0000E940705CDE38FE20E949005811118C08A
:100700002FEF86E791E0215080409040E1F700C054
:1007100000008FE20E94900581110AC08FE20E94C2
:1007200090058823D9F361E08BE20E940705CBE2B4
:1007300061E08BE20E9407058C2FCF910895CF9343
:10074000C82F61E085E10E9407058BB38F709C2F55
:10075000907F892B8BBB61E087E10E9407058FE9C1
:100760009FE00197F1F700C0000060E087E10E9480
:1007700007052BB330E1C39FC0011124922F9F7056
:10078000892B8BBB61E087E10E9407058FE99FE021
:100790000197F1F700C0000060E087E10E940705C3
:1007A000CF910895CF93C82F60E085E10E9407059F
:1007B0008BB38F709C2F907F892B8BBB61E087E17F
:1007C0000E9407058FE99FE00197F1F700C0000044
:1007D00060E087E10E9407058FE19EE40197F1F751
:1007E00000C000002BB330E1C39FC0011124922F41
:1007F0009F70892B8BBB61E087E10E9407058FE921
:100800009FE00197F1F700C0000060E087E10E94DF
:1008100007058FE19EE40197F1F700C00000CF913A
:10082000089561E08EE00E947E0461E08FE00E9406
:100830007E0461E080E10E947E0461E081E10E942B
:100840007E0461E085E10E947E0461E086E10E9411
:100850007E0461E087E10E947E042FEF83ED90E348
:10086000215080409040E1F700C0000083E30E94E7
:10087000D20382E30E94D20388E20E94D2038CE07A
:100880000E94D20381E00E94D20382E00E94D20340
:10089000089581E00E94D2030895CF93DF9300D0A2
:1008A000CDB7DEB790E8998390EC9A83E1E0F0E071
:1008B000EC0FFD1FE80FF11D8081860F0E94D2030F
:1008C0000F900F90DF91CF9108950F931F93CF93C7
:1008D0008C01C0E009C00E949F03CF5FC03121F4AA
:1008E00060E081E00E944D04F801EC0FF11D808171
:1008F0008111F1CFCF911F910F9108959DEC899FA8
:10090000912D1124292F269526952695220F322FD9
:10091000330F330F230F821B282F969596959695AC
:10092000662319F06130E1F108959230A9F018F4CE
:10093000913031F008959330D9F0943029F1089531
:100940003AB381E090E002C0880F991F2A95E2F740
:10095000809583238ABB089537B381E090E002C07D
:10096000880F991F2A95E2F78095832387BB089506
:1009700034B381E090E002C0880F991F2A95E2F716
:100980008095832384BB089531B381E090E002C059
:10099000880F991F2A95E2F78095832381BB0895DC
:1009A0009230A1F018F4913031F008959330C9F0ED
:1009B000943011F108953AB381E090E002C0880FBD
:1009C000991F2A95E2F7832B8ABB089537B381E0FC
:1009D00090E002C0880F991F2A95E2F7832B87BB0E
:1009E000089534B381E090E002C0880F991F2A95E2
:1009F000E2F7832B84BB089531B381E090E002C01D
:100A0000880F991F2A95E2F7832B81BB08959DECEF
:100A1000899F912D1124292F269526952695220F01
:100A2000322F330F330F230F821B282F9695969565
:100A30009695662319F06130E1F108959230A9F09E
:100A400018F4913031F008959330D9F0943029F1B1
:100A500008953BB381E090E002C0880F991F2A956A
:100A6000E2F7809583238BBB089538B381E090E053
:100A700002C0880F991F2A95E2F78095832388BBCF
:100A8000089535B381E090E002C0880F991F2A9540
:100A9000E2F78095832385BB089532B381E090E02F
:100AA00002C0880F991F2A95E2F78095832382BBA5
:100AB00008959230A1F018F4913031F008959330F8
:100AC000C9F0943011F108953BB381E090E002C089
:100AD000880F991F2A95E2F7832B8BBB089538B3B3
:100AE00081E090E002C0880F991F2A95E2F7832BDE
:100AF00088BB089535B381E090E002C0880F991F4C
:100B00002A95E2F7832B85BB089532B381E090E00C
:100B100002C0880F991F2A95E2F7832B82BB0895A4
:100B20009DEC899F912D1124292F26952695269598
:100B3000220F322F330F330F230F821B282F892FC1
:100B4000869586958695823091F018F4813031F043
:100B500029C08330A9F08430E1F024C089B390E04B
:100B600002C0959587952A95E2F78170089586B31E
:100B700090E002C0959587952A95E2F781700895D7
:100B800083B390E002C0959587952A95E2F781702E
:100B9000089580B390E002C0959587952A95E2F775
:100BA0008170089580E008959DEC899F912D112416
:100BB000292F269526952695220F322F330F330F96
:100BC000230F821B282F9695969596956623F1F113
:100BD000613009F071C09230A9F018F4913031F011
:100BE00008959330D9F0943029F108953BB381E012
:100BF00090E002C0880F991F2A95E2F78095832321
:100C00008BBB089538B381E090E002C0880F991F34
:100C10002A95E2F78095832388BB089535B381E058
:100C200090E002C0880F991F2A95E2F780958323F0
:100C300085BB089532B381E090E002C0880F991F10
:100C40002A95E2F78095832382BB08959230A1F024
:100C500018F4913031F008959330C9F0943011F1C7
:100C600008953BB381E090E002C0880F991F2A9558
:100C7000E2F7832B8BBB089538B381E090E002C08C
:100C8000880F991F2A95E2F7832B88BB089535B307
:100C900081E090E002C0880F991F2A95E2F7832B2C
:100CA00085BB089532B381E090E002C0880F991FA0
:100CB0002A95E2F7832B82BB089586B78B7F86BF88
:100CC0008CE080B986B7846086BF8FE39CE901978A
:100CD000F1F700C00000089586B7806286BF86B72E
:100CE000806886BF06B607FEFDCF81B1887F883059
:100CF000E1F78FE39CE90197F1F700C00000089548
:100D0000880F83B986B7806886BF06B607FEFDCF19
:100D100081B1887F8831E1F78FE39CE90197F1F792
:100D200000C00000089590E0880F991F816083B98A
:100D300086B7806886BF06B607FEFDCF81B1887F83
:100D40008034E1F78FE39CE90197F1F700C00000E0
:100D5000089583B986B78F7D86BF86B7806886BFC2
:100D600006B607FEFDCF81B1887F8832E1F72FEF0D
:100D700081EE94E0215080409040E1F700C00000F7
:100D8000089584E886BF06B607FEFDCF83B10895B7
:100D900086B7806286BF86B7806886BF06B607FEC4
:100DA000FDCF81B1887F8031E1F7089586B78061FA
:100DB00086BF86B7806886BF8FE99FE00197F1F70D
:0A0DC00000C000000895F894FFCF72
:100DCA00496E76616C696420557365726E616D65F2
:100DDA000056616C696420456E74727900557365BA
:100DEA0072204164646564004E6F206F66205573FB
:100DFA006572730052656163686564206D6178008D
:100E0A004E756D626572204F662055736572730068
:100E1A0056616C696420557365726E616D65004C2C
:100E2A006F67696E205375636365737366756C00CB
:100E3A00496E76616C69642050617373776F72646E
:100E4A00004F722050617373776F72640054686543
:100E5A007265206973206E6F207573657273006105
:100E6A00646465642079657400456E74657220490E
:100E7A004400456E7465722050617373776F7264B3
:020E8A00000066
:00000001FF
