:100000000C942A000C943C000C943C000C943C0092
:100010000C943C000C943C000C943C000C943C0070
:100020000C943C000C943C000C943C000C943C0060
:100030000C943C000C943C000C943C000C943C0050
:100040000C943C000C943C000C943C000C943C0040
:100050000C943C0011241FBECFE5D8E0DEBFCDBF1D
:1000600020E0A0E6B0E001C01D92A036B207E1F7A3
:100070000E943E000C940B050C9400000E94490065
:100080000E94F4020E948A008823E1F30E94820207
:10009000F9CF61E08EE10E942C0361E08FE10E94C4
:1000A0002C0361E080E20E942C0361E081E20E9467
:1000B0002C0361E08EE10E94B50361E08FE10E94B4
:1000C000B50361E080E20E94B50361E081E20E9435
:1000D000B50360E082E20E942C0360E083E20E94AC
:1000E0002C0360E084E20E942C0360E085E20E9421
:1000F0002C0360E082E20E94820460E083E20E94BE
:10010000820460E084E20E94820460E085E20E9452
:1001100082040895CF9360E08EE10E94B50382E2ED
:100120000E943E04811119C02FEF86E791E0215013
:1001300080409040E1F700C0000082E20E943E044F
:1001400081110DC082E20E943E048823D9F361E050
:100150008EE10E94B503C7E303C0C0E001C0C0E068
:1001600083E20E943E04811118C02FEF86E791E0E0
:10017000215080409040E1F700C0000083E20E94DF
:100180003E0481110AC083E20E943E048823D9F311
:1001900061E08EE10E94B503C8E384E20E943E0460
:1001A000811118C02FEF86E791E0215080409040E8
:1001B000E1F700C0000084E20E943E0481110AC001
:1001C00084E20E943E048823D9F361E08EE10E941C
:1001D000B503C9E385E20E943E04811118C02FEFE8
:1001E00086E791E0215080409040E1F700C0000098
:1001F00085E20E943E0481110AC085E20E943E040D
:100200008823D9F361E08EE10E94B503CFE261E07B
:100210008EE10E94B50360E08FE10E94B50382E2A7
:100220000E943E04811118C02FEF86E791E0215013
:1002300080409040E1F700C0000082E20E943E044E
:1002400081110AC082E20E943E048823D9F361E052
:100250008FE10E94B503C4E383E20E943E04811152
:1002600018C02FEF86E791E0215080409040E1F7E1
:1002700000C0000083E20E943E0481110AC083E2B4
:100280000E943E048823D9F361E08FE10E94B50308
:10029000C5E384E20E943E04811118C02FEF86E777
:1002A00091E0215080409040E1F700C0000084E2DE
:1002B0000E943E0481110AC084E20E943E04882309
:1002C000D9F361E08FE10E94B503C6E385E20E94A5
:1002D0003E04811118C02FEF86E791E02150804045
:1002E0009040E1F700C0000085E20E943E048111C9
:1002F0000AC085E20E943E048823D9F361E08FE1C1
:100300000E94B503CAE261E08FE10E94B50360E09C
:1003100080E20E94B50382E20E943E04811118C06F
:100320002FEF86E791E0215080409040E1F700C038
:10033000000082E20E943E0481110AC082E20E9413
:100340003E048823D9F361E080E20E94B503C1E353
:1003500083E20E943E04811118C02FEF86E791E0EE
:10036000215080409040E1F700C0000083E20E94ED
:100370003E0481110AC083E20E943E048823D9F31F
:1003800061E080E20E94B503C2E384E20E943E0481
:10039000811118C02FEF86E791E0215080409040F6
:1003A000E1F700C0000084E20E943E0481110AC00F
:1003B00084E20E943E048823D9F361E080E20E9437
:1003C000B503C3E385E20E943E04811118C02FEFFC
:1003D00086E791E0215080409040E1F700C00000A6
:1003E00085E20E943E0481110AC085E20E943E041B
:1003F0008823D9F361E080E20E94B503CDE261E099
:1004000080E20E94B50360E081E20E94B50382E2CF
:100410000E943E04811118C02FEF86E791E0215021
:1004200080409040E1F700C0000082E20E943E045C
:1004300081110AC082E20E943E048823D9F361E060
:1004400081E20E94B503C3E483E20E943E0481116D
:1004500018C02FEF86E791E0215080409040E1F7EF
:1004600000C0000083E20E943E0481110AC083E2C2
:100470000E943E048823D9F361E081E20E94B50323
:10048000C0E384E20E943E04811118C02FEF86E78A
:1004900091E0215080409040E1F700C0000084E2EC
:1004A0000E943E0481110AC084E20E943E04882317
:1004B000D9F361E081E20E94B503CDE385E20E94B9
:1004C0003E04811118C02FEF86E791E02150804053
:1004D0009040E1F700C0000085E20E943E048111D7
:1004E0000AC085E20E943E048823D9F361E081E2DC
:1004F0000E94B503CBE261E081E20E94B5038C2F3C
:10050000CF910895CF93C82F61E08BE00E94B5038F
:100510008BB38F709C2F907F892B8BBB61E08DE01C
:100520000E94B5038FE99FE00197F1F700C000003A
:1005300060E08DE00E94B5032BB330E1C39FC001A2
:100540001124922F9F70892B8BBB61E08DE00E945C
:10055000B5038FE99FE00197F1F700C0000060E06C
:100560008DE00E94B503CF910895CF93C82F60E02E
:100570008BE00E94B5038BB38F709C2F907F892BEB
:100580008BBB61E08DE00E94B5038FE99FE001978E
:10059000F1F700C0000060E08DE00E94B5038FE13C
:1005A0009EE40197F1F700C000002BB330E1C39F38
:1005B000C0011124922F9F70892B8BBB61E08DE0CD
:1005C0000E94B5038FE99FE00197F1F700C000009A
:1005D00060E08DE00E94B5038FE19EE40197F1F7A2
:1005E00000C00000CF91089561E08EE00E942C03CE
:1005F00061E08FE00E942C0361E080E10E942C0307
:1006000061E081E10E942C0361E08BE00E942C03F9
:1006100061E08CE00E942C0361E08DE00E942C03DD
:100620002FEF83ED90E3215080409040E1F700C030
:10063000000083E30E94B50282E30E94B50288E2D3
:100640000E94B5028CE00E94B50281E00E94B502D2
:1006500082E00E94B50208959DEC899F912D11249E
:10066000292F269526952695220F322F330F330FEB
:10067000230F821B282F969596959695662319F041
:100680006130E1F108959230A9F018F4913031F021
:1006900008959330D9F0943029F108953AB381E068
:1006A00090E002C0880F991F2A95E2F78095832376
:1006B0008ABB089537B381E090E002C0880F991F8C
:1006C0002A95E2F78095832387BB089534B381E0B0
:1006D00090E002C0880F991F2A95E2F78095832346
:1006E00084BB089531B381E090E002C0880F991F68
:1006F0002A95E2F78095832381BB08959230A1F07B
:1007000018F4913031F008959330C9F0943011F11C
:1007100008953AB381E090E002C0880F991F2A95AE
:10072000E2F7832B8ABB089537B381E090E002C0E3
:10073000880F991F2A95E2F7832B87BB089534B35E
:1007400081E090E002C0880F991F2A95E2F7832B81
:1007500084BB089531B381E090E002C0880F991FF7
:100760002A95E2F7832B81BB08959DEC899F912DFB
:100770001124292F269526952695220F322F330FE7
:10078000330F230F821B282F9695969596956623F7
:1007900019F06130E1F108959230A9F018F4913028
:1007A00031F008959330D9F0943029F108953BB396
:1007B00081E090E002C0880F991F2A95E2F78095AA
:1007C00083238BBB089538B381E090E002C0880F8B
:1007D000991F2A95E2F78095832388BB089535B346
:1007E00081E090E002C0880F991F2A95E2F780957A
:1007F000832385BB089532B381E090E002C0880F67
:10080000991F2A95E2F78095832382BB0895923041
:10081000A1F018F4913031F008959330C9F094307C
:1008200011F108953BB381E090E002C0880F991F59
:100830002A95E2F7832B8BBB089538B381E090E0D3
:1008400002C0880F991F2A95E2F7832B88BB089571
:1008500035B381E090E002C0880F991F2A95E2F736
:10086000832B85BB089532B381E090E002C0880FEE
:10087000991F2A95E2F7832B82BB08959DEC899FEF
:10088000912D1124292F269526952695220F322F5A
:10089000330F330F230F821B282F892F86958695C0
:1008A0008695823091F018F4813031F029C0833080
:1008B000A9F08430E1F024C089B390E002C095959E
:1008C00087952A95E2F78170089586B390E002C07B
:1008D000959587952A95E2F78170089583B390E006
:1008E00002C0959587952A95E2F78170089580B3A7
:1008F00090E002C0959587952A95E2F7817008955A
:1009000080E008959DEC899F912D1124292F269533
:1009100026952695220F322F330F330F230F821B7C
:10092000282F9695969596956623F1F1613009F0FA
:1009300071C09230A9F018F4913031F008959330DD
:10094000D9F0943029F108953BB381E090E002C0E2
:10095000880F991F2A95E2F7809583238BBB089512
:1009600038B381E090E002C0880F991F2A95E2F722
:100970008095832388BB089535B381E090E002C061
:10098000880F991F2A95E2F78095832385BB0895E8
:1009900032B381E090E002C0880F991F2A95E2F7F8
:1009A0008095832382BB08959230A1F018F4913092
:1009B00031F008959330C9F0943011F108953BB3AC
:1009C00081E090E002C0880F991F2A95E2F7832BFF
:1009D0008BBB089538B381E090E002C0880F991F67
:1009E0002A95E2F7832B88BB089535B381E090E028
:1009F00002C0880F991F2A95E2F7832B85BB0895C3
:100A000032B381E090E002C0880F991F2A95E2F787
:0A0A1000832B82BB0895F894FFCFFA
:00000001FF
