:100000000C942A000C9447000C9447000C94470071
:100010000C9447000C9447000C9447000C94470044
:100020000C9447000C9447000C9447000C94470034
:100030000C9447000C9447000C9447000C94470024
:100040000C9447000C9447000C9447000C94470014
:100050000C94470011241FBECFE5D8E0DEBFCDBF12
:1000600010E0A0E6B0E0ECE1F8E002C005900D92EF
:10007000A036B107D9F720E0A0E6B0E001C01D929C
:10008000A036B207E1F70E9449000C940C040C94CE
:1000900000000E9438010E94B8000E949A0064E6A5
:1000A00080E00E949D000E947D0080E00E94880008
:1000B00084E60E9491002FEF83EC99E0215080406C
:1000C0009040E1F700C000000E9494002FEF83EC05
:1000D00099E0215080409040E1F700C000000E946C
:1000E00097002FEF83ED90E3215080409040E1F79F
:1000F00000C000000E949400FFCF61E08EE20E94E9
:10010000700161E08CE20E9470010E94A5030895D5
:1001100061E08CE20E94F90160E08EE20E94F90148
:1001200008950E94B60308950E94D60308950E9480
:10013000DD0308950E940B030895CF93DF93C82F2A
:10014000D62F0E941A03C0658C2F0E942E038D2F7C
:100150000E9457030E9476038C2F0E9441030E9445
:100160006F03C82F0E9484038C2FDF91CF910895D5
:1001700061E088E20E94700161E089E20E94700102
:1001800061E08AE20E94700161E08BE20E947001EE
:1001900061E088E20E94F90161E089E20E94F901D0
:1001A00061E08AE20E94F90161E08BE20E94F901BC
:1001B00060E08CE20E94700160E08DE20E947001BC
:1001C00060E08EE20E94700160E08FE20E947001A8
:1001D00060E08CE20E94820260E08DE20E94820276
:1001E00060E08EE20E94820260E08FE20E94820262
:1001F0000895CF93C82F60E085E10E94F9018BB389
:100200008F709C2F907F892B8BBB61E087E10E94D0
:10021000F9018FE99FE00197F1F700C0000060E06D
:1002200087E10E94F9018FE19EE40197F1F700C098
:1002300000002BB330E1C39FC0011124922F9F70A7
:10024000892B8BBB61E087E10E94F9018FE99FE078
:100250000197F1F700C0000060E087E10E94F9011A
:100260008FE19EE40197F1F700C00000CF9108955F
:1002700061E08EE00E94700161E08FE00E947001F9
:1002800061E080E10E94700161E081E10E94700103
:1002900061E085E10E94700161E086E10E947001E9
:1002A00061E087E10E9470012FEF83ED90E3215020
:1002B00080409040E1F700C0000083E30E94F90015
:1002C00082E30E94F90088E20E94F9008CE00E941B
:1002D000F90081E00E94F90082E00E94F90008958F
:1002E0009DEC899F912D1124292F269526952695E1
:1002F000220F322F330F330F230F821B282F969597
:1003000096959695662319F06130E1F10895923043
:10031000A9F018F4913031F008959330D9F0943069
:1003200029F108953AB381E090E002C0880F991F47
:100330002A95E2F7809583238ABB089537B381E03D
:1003400090E002C0880F991F2A95E2F780958323D9
:1003500087BB089534B381E090E002C0880F991FF5
:100360002A95E2F78095832384BB089531B381E019
:1003700090E002C0880F991F2A95E2F780958323A9
:1003800081BB08959230A1F018F4913031F00895B6
:100390009330C9F0943011F108953AB381E090E0C0
:1003A00002C0880F991F2A95E2F7832B8ABB089514
:1003B00037B381E090E002C0880F991F2A95E2F7D9
:1003C000832B87BB089534B381E090E002C0880F8F
:1003D000991F2A95E2F7832B84BB089531B381E0FE
:1003E00090E002C0880F991F2A95E2F7832B81BB0A
:1003F00008959DEC899F912D1124292F26952695EE
:100400002695220F322F330F330F230F821B282FF5
:10041000969596959695662319F06130E1F10895C9
:100420009230A9F018F4913031F008959330D9F05A
:10043000943029F108953BB381E090E002C0880F29
:10044000991F2A95E2F7809583238BBB089538B3D3
:1004500081E090E002C0880F991F2A95E2F780950D
:10046000832388BB089535B381E090E002C0880FF4
:10047000991F2A95E2F78095832385BB089532B3AF
:1004800081E090E002C0880F991F2A95E2F78095DD
:10049000832382BB08959230A1F018F4913031F09B
:1004A00008959330C9F0943011F108953BB381E081
:1004B00090E002C0880F991F2A95E2F7832B8BBB2F
:1004C000089538B381E090E002C0880F991F2A9503
:1004D000E2F7832B88BB089535B381E090E002C03A
:1004E000880F991F2A95E2F7832B85BB089532B3B5
:1004F00081E090E002C0880F991F2A95E2F7832BD4
:1005000082BB08959DEC899F912D1124292F26955A
:1005100026952695220F322F330F330F230F821B80
:10052000282F9695969596956623F1F1613009F0FE
:1005300071C09230A9F018F4913031F008959330E1
:10054000D9F0943029F108953BB381E090E002C0E6
:10055000880F991F2A95E2F7809583238BBB089516
:1005600038B381E090E002C0880F991F2A95E2F726
:100570008095832388BB089535B381E090E002C065
:10058000880F991F2A95E2F78095832385BB0895EC
:1005900032B381E090E002C0880F991F2A95E2F7FC
:1005A0008095832382BB08959230A1F018F4913096
:1005B00031F008959330C9F0943011F108953BB3B0
:1005C00081E090E002C0880F991F2A95E2F7832B03
:1005D0008BBB089538B381E090E002C0880F991F6B
:1005E0002A95E2F7832B88BB089535B381E090E02C
:1005F00002C0880F991F2A95E2F7832B85BB0895C7
:1006000032B381E090E002C0880F991F2A95E2F78B
:10061000832B82BB089586B78B7F86BF8CE080B921
:1006200086B7846086BF8FE39CE90197F1F700C02D
:100630000000089586B7806286BF86B7806886BF4F
:1006400006B607FEFDCF81B1887F8830E1F78FE3E2
:100650009CE90197F1F700C000000895880F83B965
:1006600086B7806886BF06B607FEFDCF81B1887F5A
:100670008831E1F78FE39CE90197F1F700C00000B2
:10068000089590E0880F991F816083B986B78068CC
:1006900086BF06B607FEFDCF81B1887F8034E1F7C3
:1006A0008FE39CE90197F1F700C00000089583B93A
:1006B00086B78F7D86BF86B7806886BF06B607FE81
:1006C000FDCF81B1887F8832E1F72FEF81EE94E092
:1006D000215080409040E1F700C00000089584E878
:1006E00086BF06B607FEFDCF83B1089586B7806248
:1006F00086BF86B7806886BF06B607FEFDCF81B18C
:10070000887F8031E1F7089586B7806186BF86B71C
:10071000806886BF8FE99FE00197F1F700C0000075
:10072000089585B5846085BD85B5826085BD85B534
:10073000816085BD089585B58B7F85BD85B58D7F2D
:1007400085BD85B58E7F85BD089561E08FE20E94ED
:10075000700185B5886085BD85B5806485BD85B52A
:10076000806285BD85B58F7E85BD089581110FC0DE
:1007700095B5906295BD95B5906195BD982F80E037
:1007800064E670E00E94E403609563BD089595B54A
:10079000906295BD95B59F7E95BD982F80E064E6EB
:1007A00070E00E94E403615063BD08950E949103CC
:1007B00061E08FE20E94700108950E949B0360E057
:1007C0008FE20E947001089597FB072E16F40094A3
:1007D00007D077FD09D00E94F80307FC05D03EF44E
:1007E000909581959F4F0895709561957F4F0895DD
:1007F000AA1BBB1B51E107C0AA1FBB1FA617B70747
:1008000010F0A61BB70B881F991F5A95A9F7809562
:0C0810009095BC01CD010895F894FFCF35
:00000001FF
