:100000000C942A000C943B0B0C9447000C94470072
:100010000C9447000C9447000C9447000C94470044
:100020000C9447000C9447000C9447000C94470034
:100030000C9447000C9447000C9447000C94470024
:100040000C9447000C9447000C9447000C94470014
:100050000C94470011241FBECFE5D8E0DEBFCDBF12
:1000600011E0A0E6B0E0E6E6FEE102C005900D92E8
:10007000A436B107D9F721E0A4E6B1E001C01D9292
:10008000A736B207E1F70E9478040C94310F0C9464
:1000900000000E9494040E949904FFCF80916401A3
:1000A000811123C00E94A9040E94F208BC0180E0D3
:1000B00090E00E94B30D20E030E04AEF53E40E944C
:1000C000120D20E030E048EC52E40E94410E0E9404
:1000D000840D862F0E94B2040E94B5040E94BA08C3
:1000E00082E690E00E94D608DFCF813041F40E9482
:1000F000B8040E94BA0889E690E00E94D6080895E4
:1001000080916100813071F41092610060E070E0D4
:10011000CB010E940C090E94BA0881E790E00E947E
:10012000D608089581110FC081E08093610060E0DE
:1001300070E080EF92E40E940C090E94BA088DE7FB
:1001400090E00E94D60808950E943A058823E1F3C2
:100150008A32D1F70E944E00F7CFAF92BF92CF9272
:10016000DF92EF92FF920F931F93CF93DF938C0157
:100170007B0164E680E00E94D804B82E29E02817AD
:1001800008F4B0C0811124C05FC0DD2DDD0FDD0F8C
:10019000DD0FDD190F2EF3E0CF2EF02DC0E00DC0E6
:1001A0006C2F6D0F80E00E94D804F801EC0FF11D58
:1001B0009081891301C0CA94CF5FC33088F3C11006
:1001C00005C0A39489E890E00E94D608D39402C0A9
:1001D000A12CD12CDB14C8F2A11092C08AE990E0C6
:1001E0000E94D6088FEF91EE24E08150904020408D
:1001F000E1F700C00000DB2DDD0FDD0FDD0FDB19A7
:10020000C0E00AC04C2F4D0FF801EC0FF11D60E06B
:1002100080810E94BE04CF5FC330A0F3C0E00BC05A
:100220004C2F4D0F4D5FF701EC0FF11D60E0808109
:100230000E94BE04CF5FC43098F344E660E081E0E2
:100240008B0D0E94BE045CC08FEF91EE24E08150C4
:1002500090402040E1F700C000000E94BA088AE9FF
:1002600090E00E94D608DB2DDD0FDD0FDD0FDB19DE
:10027000C0E00AC04C2F4D0FF801EC0FF11D60E0FB
:1002800080810E94BE04CF5FC330A0F3C0E00BC0EA
:100290004C2F4D0F4D5FF701EC0FF11D60E0808199
:1002A0000E94BE04CF5FC43098F344E660E081E072
:1002B0008B0D0E94BE0486EA90E00E94D60860E0A2
:1002C00081E00E94BE0881EB90E00E94D60864E6BF
:1002D00080E00E94D804682F70E080E090E00E94E7
:1002E000DC070EC00E94BA088DEB90E00E94D60891
:1002F00060E081E00E94BE0889EC90E00E94D60890
:10030000DF91CF911F910F91FF90EF90DF90CF90F1
:10031000BF90AF900895CF92DF92EF92FF920F932C
:100320001F93CF93DF93811153C062C0DF2DDD0F88
:10033000DD0FDD0FDF19E12CC0E00DC06C2F6D0F5C
:1003400080E00E94D804F801EC0FF11D9081891320
:1003500001C0E394CF5FC33088F323E0E2120EC004
:1003600089ED90E00E94D6088FEF93EC29E0815050
:1003700090402040E1F700C00000C39481E0C81223
:1003800025C00DC0EC2EED0E67E06E0D80E00E94E2
:10039000D8044E2D60E00E94BE04CF5F01C0C0E0D3
:1003A000C33080F3C0E010C06C2F6D0F0F2EF3E050
:1003B000EF2EF02DE60E665F80E00E94D8044E2DF1
:1003C00060E00E94BE04CF5FC43070F3F39404C0B9
:1003D0008B01D82EC12CF12CFD1408F4A7CF91E08D
:1003E000C91206C044E660E08FEF8D0D0E94BE0486
:1003F000DF91CF911F910F91FF90EF90DF90CF9001
:100400000895AF92BF92CF92DF92EF92FF920F9337
:100410001F93CF93DF937C018B0164E680E00E9401
:10042000D804B82E811133C051C0DD2DDD0FDD0F92
:10043000DD0FDD19C0E0C12C0DC06C2F6D0F80E009
:100440000E94D804F701EC0FF11D9081891301C0BF
:10045000C394CF5FC33088F3C0E0A12C0EC06C2FD3
:100460006D0F6D5F80E00E94D804F801EC0FF11D64
:100470009081891301C0A394CF5FC43080F383E0DF
:10048000C81203C084E0A81639F0D39401C0D12C5F
:10049000DB1458F2A12CC12C83E0C81209C084E0FF
:1004A000A81206C088EE90E00E94D60880E01BC02B
:1004B00089E890E00E94D60860E081E00E94BE08D2
:1004C00089EF90E00E94D60881E00DC085E091E0C0
:1004D0000E94D60860E081E00E94BE0887E191E0BA
:1004E0000E94D60880E0DF91CF911F910F91FF907D
:1004F000EF90DF90CF90BF90AF900895EF92FF9272
:100500000F931F93CF938C010E94BA0881E291E070
:100510000E94D608C0E013C00E943A05882379F0F3
:100520007801EC0EF11CF701808369E06C0F80E02C
:100530000E94BE08F70180810E943207CF5FC3305E
:1005400058F3FFEF25EA8EE0F15020408040E1F7BC
:1005500000C00000CF911F910F91FF90EF90089580
:100560000F931F93CF938C0160E081E00E94BE083F
:100570008AE291E00E94D60869E081E00E94BE080C
:10058000C0E00CC00E943A05882341F0F801EC0F4E
:10059000F11D80838AE20E943207CF5FC43090F35E
:1005A0002FEF85EA9EE0215080409040E1F700C0A7
:1005B0000000CF911F910F910895CF93DF93CDB796
:1005C000DEB727970FB6F894DEBF0FBECDBF1982F6
:1005D0001A821B821C821D821E821F82CE010196FE
:1005E0000E947E02CE0104960E94B002BE016C5FA2
:1005F0007F4FCE0101960E94AD0027960FB6F8946A
:10060000DEBF0FBECDBFDF91CF910895CF93DF93B3
:10061000CDB7DEB727970FB6F894DEBF0FBECDBFBC
:1006200019821A821B821C821D821E821F82CE01A9
:1006300001960E947E02CE0104960E94B00280E0E4
:1006400010E016C01F5F143060F00E94BA0862E02C
:1006500080E00E94BE0884E391E00E94D6080E94D8
:100660004900BE016C5F7F4FCE0101960E940102DE
:10067000813041F70E94A400CF93DF93CDB7DEB75E
:1006800027970FB6F894DEBF0FBECDBF1D821E8226
:100690001F8219821A821B821C820E94F6048434F3
:1006A00071F128F4813441F0823449F0EFCF85357F
:1006B00049F18336A1F0EACF0E944E00E7CFCE0188
:1006C00005960E947E02CE0101960E94B002BE01F4
:1006D0006F5F7F4FCE0105960E94AD00D7CF64E6D5
:1006E00080E00E94D804182FCE0105960E947E0259
:1006F000BE016B5F7F4F812F0E948B01C7CF0E948D
:100700008000C4CF0E940603CF92DF92EF92FF9247
:100710000F931F93CF93DF93CDB7DEB727970FB615
:10072000F894DEBF0FBECDBF6C017B010E94BA08FA
:1007300081E291E00E94D60819821A821B821C82F3
:100740001D821E821F82CE0101960E947E0260E001
:1007500081E00E94BE088AE291E00E94D608CE01A4
:1007600004960E94B00210E000E00DC065E6610F43
:1007700080E00E94D804F601E10FF11D90818913F9
:1007800001C00F5F1F5F133088F310E0D12C0DC044
:1007900068E6610F80E00E94D804F701E10FF11DC7
:1007A0009081891301C0D3941F5F143088F3033004
:1007B00049F484E0D81206C088EE90E00E94D60882
:1007C00081E02CC084E0D81208C0033031F089E801
:1007D00090E00E94D60880E021C0033049F484E014
:1007E000D81631F08FE391E00E94D60880E016C061
:1007F000033089F084E0D81681F089E890E00E9407
:10080000D60860E081E00E94BE088FE391E00E947C
:10081000D60880E003C080E001C080E027960FB6D4
:10082000F894DEBF0FBECDBFDF91CF911F910F9126
:10083000FF90EF90DF90CF9008951F93CF93DF93B9
:10084000CDB7DEB727970FB6F894DEBF0FBECDBF8A
:100850002FEF89E698E1215080409040E1F700C0F9
:1008600000000E94BA0864E080E00E94BE0880E5B3
:1008700091E00E94D60863E081E00E94BE0888E50E
:1008800091E00E94D6082FEF8BE792E9215080403B
:100890009040E1F700C0000019821A821B821C827E
:1008A0001D821E821F8280E010E016C01F5F143080
:1008B00060F00E94BA0862E080E00E94BE0884E313
:1008C00091E00E94D6080E944900BE016C5F7F4FF4
:1008D000CE0101960E948403813041F727960FB61E
:1008E000F894DEBF0FBECDBFDF91CF911F91089569
:1008F0000E94A4070E94F9040E94BB040E94F30412
:100900000E94EF080E949E040E9401090E9480003C
:1009100080916000813021F40E94DD02109260001D
:100920000E941D040E943C0361E08AE20E945C096F
:10093000089561E08AE20E94E509089561E085E199
:100940000E945C0961E084E10E945C090E94FC0B4A
:10095000089561E084E10E94E50960E085E10E947C
:10096000E50908950E940D0C08950E942D0C08952C
:100970000E94300C08950E94620B08951F93CF933C
:10098000DF93683088F4142FC62FD82F0E94710B84
:100990008C2F80650E94850B812F0E94AE0B8D2FBE
:1009A0000E94AE0B0E94DB0BDF91CF911F91089547
:1009B000CF93DF93C82FD62F0E94710BC0658C2F69
:1009C0000E94850B8D2F0E94AE0B0E94CD0B8C2FA9
:1009D0000E94980B0E94C60BC82F0E94DB0B8C2F25
:1009E000DF91CF9108950E948D0C08950E94A10C73
:1009F000089561E088E20E945C0961E089E20E945A
:100A00005C0961E08AE20E945C0961E08BE20E947D
:100A10005C0961E088E20E94E50961E089E20E94E8
:100A2000E50961E08AE20E94E50961E08BE20E944B
:100A3000E50960E08CE20E945C0960E08DE20E94C2
:100A40005C0960E08EE20E945C0960E08FE20E9437
:100A50005C0960E08CE20E94B20A60E08DE20E94D4
:100A6000B20A60E08EE20E94B20A60E08FE20E9469
:100A7000B20A0895CF9360E088E20E94E5098CE213
:100A80000E946E0A811119C02FEF86E791E0215074
:100A900080409040E1F700C000008CE20E946E0AA6
:100AA00081110DC08CE20E946E0A8823D9F361E0A7
:100AB00088E20E94E509C7E303C0C0E001C0C0E0CE
:100AC0008DE20E946E0A811118C02FEF86E791E037
:100AD000215080409040E1F700C000008DE20E946C
:100AE0006E0A81110AC08DE20E946E0A8823D9F332
:100AF00061E088E20E94E509C8E38EE20E946E0A86
:100B0000811118C02FEF86E791E02150804090407E
:100B1000E1F700C000008EE20E946E0A81110AC057
:100B20008EE20E946E0A8823D9F361E088E20E9477
:100B3000E509C9E38FE20E946E0A811118C02FEF08
:100B400086E791E0215080409040E1F700C000002E
:100B50008FE20E946E0A81110AC08FE20E946E0A23
:100B60008823D9F361E088E20E94E509CFE261E0E1
:100B700088E20E94E50960E089E20E94E5098CE2D2
:100B80000E946E0A811118C02FEF86E791E0215074
:100B900080409040E1F700C000008CE20E946E0AA5
:100BA00081110AC08CE20E946E0A8823D9F361E0A9
:100BB00089E20E94E509C4E38DE20E946E0A811178
:100BC00018C02FEF86E791E0215080409040E1F778
:100BD00000C000008DE20E946E0A81110AC08DE201
:100BE0000E946E0A8823D9F361E089E20E94E50938
:100BF000C5E38EE20E946E0A811118C02FEF86E7CE
:100C000091E0215080409040E1F700C000008EE26A
:100C10000E946E0A81110AC08EE20E946E0A882329
:100C2000D9F361E089E20E94E509C6E38FE20E9400
:100C30006E0A811118C02FEF86E791E021508040A5
:100C40009040E1F700C000008FE20E946E0A81111F
:100C50000AC08FE20E946E0A8823D9F361E089E21C
:100C60000E94E509CAE261E089E20E94E50960E0CC
:100C70008AE20E94E5098CE20E946E0A811118C086
:100C80002FEF86E791E0215080409040E1F700C0CF
:100C900000008CE20E946E0A81110AC08CE20E9460
:100CA0006E0A8823D9F361E08AE20E94E509C1E374
:100CB0008DE20E946E0A811118C02FEF86E791E045
:100CC000215080409040E1F700C000008DE20E947A
:100CD0006E0A81110AC08DE20E946E0A8823D9F340
:100CE00061E08AE20E94E509C2E38EE20E946E0A98
:100CF000811118C02FEF86E791E02150804090408D
:100D0000E1F700C000008EE20E946E0A81110AC065
:100D10008EE20E946E0A8823D9F361E08AE20E9483
:100D2000E509C3E38FE20E946E0A811118C02FEF1C
:100D300086E791E0215080409040E1F700C000003C
:100D40008FE20E946E0A81110AC08FE20E946E0A31
:100D50008823D9F361E08AE20E94E509CDE261E0EF
:100D60008AE20E94E50960E08BE20E94E5098CE2DC
:100D70000E946E0A811118C02FEF86E791E0215082
:100D800080409040E1F700C000008CE20E946E0AB3
:100D900081110AC08CE20E946E0A8823D9F361E0B7
:100DA0008BE20E94E509C3E48DE20E946E0A811184
:100DB00018C02FEF86E791E0215080409040E1F786
:100DC00000C000008DE20E946E0A81110AC08DE20F
:100DD0000E946E0A8823D9F361E08BE20E94E50944
:100DE000C0E38EE20E946E0A811118C02FEF86E7E1
:100DF00091E0215080409040E1F700C000008EE279
:100E00000E946E0A81110AC08EE20E946E0A882337
:100E1000D9F361E08BE20E94E509CDE38FE20E9405
:100E20006E0A811118C02FEF86E791E021508040B3
:100E30009040E1F700C000008FE20E946E0A81112D
:100E40000AC08FE20E946E0A8823D9F361E08BE228
:100E50000E94E509CBE261E08BE20E94E5098C2F5C
:100E6000CF910895CF93C82F61E085E10E94E509F5
:100E70008BB38F709C2F907F892B8BBB61E087E1B8
:100E80000E94E5098FE99FE00197F1F700C000009B
:100E900060E087E10E94E5092BB330E1C39FC00108
:100EA0001124922F9F70892B8BBB61E087E10E94F8
:100EB000E5098FE99FE00197F1F700C0000060E0CD
:100EC00087E10E94E509CF910895CF93C82F60E094
:100ED00085E10E94E5098BB38F709C2F907F892B51
:100EE0008BBB61E087E10E94E5098FE99FE00197F4
:100EF000F1F700C0000060E087E10E94E5098FE1A2
:100F00009EE40197F1F700C000002BB330E1C39FCE
:100F1000C0011124922F9F70892B8BBB61E087E168
:100F20000E94E5098FE99FE00197F1F700C00000FA
:100F300060E087E10E94E5098FE19EE40197F1F707
:100F400000C00000CF91089561E08EE00E945C092E
:100F500061E08FE00E945C0961E080E10E945C0931
:100F600061E081E10E945C0961E085E10E945C0929
:100F700061E086E10E945C0961E087E10E945C0912
:100F80002FEF83ED90E3215080409040E1F700C0C7
:100F9000000083E30E94650782E30E94650788E200
:100FA0000E9465078CE00E94650781E00E9465074A
:100FB00082E00E94650708953F924F925F926F9280
:100FC0007F928F929F92AF92BF92CF92DF92EF92D9
:100FD000FF920F931F93CF93DF9300D000D0CDB734
:100FE000DEB74B015C012DB73EB73A832983672BEF
:100FF000682B692B19F480E30E943207A8EEB3E056
:10100000A50194010E94120F28EE33E040E050E069
:101010000E94E40E672B682B692B09F08EC0BB2061
:101020005CF48DE20E943207B094A0949094809476
:10103000811C911CA11CB11C181419041A041B0456
:101040000CF07BC0A5019401312C0EC02115310597
:101050004105510549F0CA01B9012AE030E040E0FC
:1010600050E00E94C20E339421153105410551050F
:1010700069F78DB79EB79C838B83832D90E0880F93
:10108000991F880F991F2DB73EB7281B390B0FB634
:10109000F8943EBF0FBE2DBF0DB71EB70F5F1F4F99
:1010A000412C512C320120C03FEF431A530A630AEE
:1010B000730AC418D508E608F708C501B4012AE088
:1010C00030E040E050E00E94E40ECC0CDD1CCC0C83
:1010D000DD1CF801EC0DFD1D608371838283938319
:1010E000822E932EA42EB52EC32CD12CE12CF12CC4
:1010F0004C145D046E047F04B8F2812C912C5401D1
:1011000010C0F401EE0FFF1FEE0FFF1FE00FF11FE5
:101110008081805D0E9432078FEF881A980AA80AA2
:10112000B80A8C149D04AE04BF0458F32B813C8193
:101130000FB6F8943EBF0FBE2DBF89819A810FB6BE
:10114000F8949EBF0FBE8DBF0F900F900F900F9021
:10115000DF91CF911F910F91FF90EF90DF90CF9093
:10116000BF90AF909F908F907F906F905F904F90C7
:101170003F90089581E00E9465070895CF93DF9323
:1011800000D0CDB7DEB790E8998390EC9A83E1E088
:10119000F0E0EC0FFD1FE80FF11D8081860F0E942B
:1011A00065070F900F90DF91CF9108950F931F93D4
:1011B000CF938C01C0E009C00E943207CF5FC031DD
:1011C00021F460E081E00E94BE08F801EC0FF11DFF
:1011D00080818111F1CFCF911F910F9108950E94CD
:1011E000230908950E944F099C01A4EFB1E00E94D9
:1011F000030F2FEF33E040E050E00E94C20EC90120
:10120000089561E08DE20E945C090E94330C82E344
:1012100090E00E946E0C089520E030E040EA50E437
:101220000E94410E20E030E044E353E40E94120D9E
:1012300020E030E040EA50E40E94A60C0E94490CF5
:101240000E94830C089560E08BE00E945C0987B1E6
:10125000806487B987B18F7787B987B18F7D87B968
:1012600087B18F7E87B987B1877F87B987B18B7F39
:1012700087B987B18D7F87B987B1816087B986B11A
:10128000846086B986B1826086B986B1816086B98C
:1012900086B1806886B986B1806286B9089586B1C4
:1012A000806486B9349BFECF24B185B190E0982F3D
:1012B0008827820F911D08959DEC899F912D1124FF
:1012C000292F269526952695220F322F330F330F7F
:1012D000230F821B282F969596959695662319F0D5
:1012E0006130E1F108959230A9F018F4913031F0B5
:1012F00008959330D9F0943029F108953AB381E0FC
:1013000090E002C0880F991F2A95E2F78095832309
:101310008ABB089537B381E090E002C0880F991F1F
:101320002A95E2F78095832387BB089534B381E043
:1013300090E002C0880F991F2A95E2F780958323D9
:1013400084BB089531B381E090E002C0880F991FFB
:101350002A95E2F78095832381BB08959230A1F00E
:1013600018F4913031F008959330C9F0943011F1B0
:1013700008953AB381E090E002C0880F991F2A9542
:10138000E2F7832B8ABB089537B381E090E002C077
:10139000880F991F2A95E2F7832B87BB089534B3F2
:1013A00081E090E002C0880F991F2A95E2F7832B15
:1013B00084BB089531B381E090E002C0880F991F8B
:1013C0002A95E2F7832B81BB08959DEC899F912D8F
:1013D0001124292F269526952695220F322F330F7B
:1013E000330F230F821B282F96959695969566238B
:1013F00019F06130E1F108959230A9F018F49130BC
:1014000031F008959330D9F0943029F108953BB329
:1014100081E090E002C0880F991F2A95E2F780953D
:1014200083238BBB089538B381E090E002C0880F1E
:10143000991F2A95E2F78095832388BB089535B3D9
:1014400081E090E002C0880F991F2A95E2F780950D
:10145000832385BB089532B381E090E002C0880FFA
:10146000991F2A95E2F78095832382BB08959230D5
:10147000A1F018F4913031F008959330C9F0943010
:1014800011F108953BB381E090E002C0880F991FED
:101490002A95E2F7832B8BBB089538B381E090E067
:1014A00002C0880F991F2A95E2F7832B88BB089505
:1014B00035B381E090E002C0880F991F2A95E2F7CA
:1014C000832B85BB089532B381E090E002C0880F82
:1014D000991F2A95E2F7832B82BB08959DEC899F83
:1014E000912D1124292F269526952695220F322FEE
:1014F000330F330F230F821B282F892F8695869554
:101500008695823091F018F4813031F029C0833013
:10151000A9F08430E1F024C089B390E002C0959531
:1015200087952A95E2F78170089586B390E002C00E
:10153000959587952A95E2F78170089583B390E099
:1015400002C0959587952A95E2F78170089580B33A
:1015500090E002C0959587952A95E2F781700895ED
:1015600080E008959DEC899F912D1124292F2695C7
:1015700026952695220F322F330F330F230F821B10
:10158000282F9695969596956623F1F1613009F08E
:1015900071C09230A9F018F4913031F00895933071
:1015A000D9F0943029F108953BB381E090E002C076
:1015B000880F991F2A95E2F7809583238BBB0895A6
:1015C00038B381E090E002C0880F991F2A95E2F7B6
:1015D0008095832388BB089535B381E090E002C0F5
:1015E000880F991F2A95E2F78095832385BB08957C
:1015F00032B381E090E002C0880F991F2A95E2F78C
:101600008095832382BB08959230A1F018F4913025
:1016100031F008959330C9F0943011F108953BB33F
:1016200081E090E002C0880F991F2A95E2F7832B92
:101630008BBB089538B381E090E002C0880F991FFA
:101640002A95E2F7832B88BB089535B381E090E0BB
:1016500002C0880F991F2A95E2F7832B85BB089556
:1016600032B381E090E002C0880F991F2A95E2F71B
:10167000832B82BB08951F920F920FB60F921124F5
:101680002F933F934F935F936F937F938F939F938A
:10169000AF93BF93EF93FF93E0916501F0916601E3
:1016A0000995FF91EF91BF91AF919F918F917F919C
:1016B0006F915F914F913F912F910F900FBE0F90BF
:1016C0001F90189586B78B7F86BF8CE080B986B750
:1016D000846086BF8FE39CE90197F1F700C00000AA
:1016E000089586B7806286BF86B7806886BF06B6D3
:1016F00007FEFDCF81B1887F8830E1F78FE39CE959
:101700000197F1F700C000000895880F83B986B7EC
:10171000806886BF06B607FEFDCF81B1887F88311D
:10172000E1F78FE39CE90197F1F700C0000008950D
:1017300090E0880F991F816083B986B7806886BF63
:1017400006B607FEFDCF81B1887F8034E1F78FE3D5
:101750009CE90197F1F700C00000089583B986B7AE
:101760008F7D86BF86B7806886BF06B607FEFDCF31
:1017700081B1887F8832E1F72FEF81EE94E021502C
:1017800080409040E1F700C00000089584E886BFE3
:1017900006B607FEFDCF83B1089586B7806286BF87
:1017A00086B7806886BF06B607FEFDCF81B1887F09
:1017B0008031E1F7089586B7806186BF86B780687B
:1017C00086BF8FE99FE00197F1F700C00000089500
:1017D00083B7846083BF83B78D7F83BF83B7816006
:1017E00083BF089583B78B7F83BF83B78D7F83BF0C
:1017F00083B78E7F83BF089561E087E10E945C0913
:1018000083B7886083BF83B7806483BF83B78062F8
:1018100083BF83B78F7E83BF089581110FC093B7B5
:10182000906293BF93B7906193BF982F80E064E676
:1018300070E00E94AE0E60956CBF089593B7906201
:1018400093BF93B79F7E93BF982F80E064E670E0CC
:101850000E94AE0E61506CBF08950E94E80B08957F
:101860000E94F20B089581B3806281BB8FB58068BE
:101870008FBD8FB58F7B8FBD8EB580618EBD8EB5D0
:1018800088608EBD8FB582608FBD8FB58E7F8FBD16
:101890000895CF92DF92EF92FF926B017C0166B5C3
:1018A00077B580E090E00E94B30DA70196010E94F9
:1018B000410E20E030E048EC52E40E94120D20E09E
:1018C00030E040E85FE30E94A50C0E94840D7BBDE0
:1018D0006ABDFF90EF90DF90CF9008950024969519
:1018E00087950794969587950794982F802D9C014E
:1018F00040E050E060E074E284EF90E00E94E40E8B
:1019000037BD26BD08958EB58B7F8EBD8EB58260A6
:101910008EBD8EB581608EBD089581B38E7F81BBF3
:1019200081B3826081BB8AB18B7F8AB987E689B92E
:1019300086EA80BD8AB188608AB98AB180618AB935
:1019400008955F9BFECF8CB108955058BB27AA27FE
:101950000E94BD0C0C94070E0E94F90D38F00E94F5
:10196000000E20F039F49F3F19F426F40C94F60D84
:101970000EF4E095E7FB0C94F00DE92F0E94180E91
:1019800058F3BA17620773078407950720F079F4B4
:10199000A6F50C943A0E0EF4E0950B2EBA2FA02D5E
:1019A0000B01B90190010C01CA01A0011124FF270C
:1019B000591B99F0593F50F4503E68F11A16F04007
:1019C000A22F232F342F4427585FF3CF4695379506
:1019D0002795A795F0405395C9F77EF41F16BA0BCB
:1019E000620B730B840BBAF09150A1F0FF0FBB1F79
:1019F000661F771F881FC2F70EC0BA0F621F731FC2
:101A0000841F48F4879577956795B795F7959E3F1E
:101A100008F0B0CF9395880F08F09927EE0F9795AF
:101A2000879508950E94260D0C94070E0E94000EC3
:101A300058F00E94F90D40F029F45F3F29F00C9412
:101A4000F00D51110C943B0E0C94F60D0E94180EE3
:101A500068F39923B1F3552391F3951B550BBB27DD
:101A6000AA2762177307840738F09F5F5F4F220F22
:101A7000331F441FAA1FA9F335D00E2E3AF0E0E819
:101A800032D091505040E695001CCAF72BD0FE2F63
:101A900029D0660F771F881FBB1F261737074807F7
:101AA000AB07B0E809F0BB0B802DBF01FF279358AF
:101AB0005F4F3AF09E3F510578F00C94F00D0C9476
:101AC0003B0E5F3FE4F3983ED4F386957795679598
:101AD000B795F7959F5FC9F7880F911D96958795E4
:101AE00097F90895E1E0660F771F881FBB1F621703
:101AF00073078407BA0720F0621B730B840BBA0BC1
:101B0000EE1F88F7E09508950E94200E88F09F57F9
:101B100098F0B92F9927B751B0F0E1F0660F771F11
:101B2000881F991F1AF0BA95C9F714C0B13091F007
:101B30000E943A0EB1E008950C943A0E672F782F68
:101B40008827B85F39F0B93FCCF3869577956795CC
:101B5000B395D9F73EF490958095709561957F4F38
:101B60008F4F9F4F0895E89409C097FB3EF49095DE
:101B70008095709561957F4F8F4F9F4F9923A9F066
:101B8000F92F96E9BB279395F695879577956795F5
:101B9000B795F111F8CFFAF4BB0F11F460FF1BC039
:101BA0006F5F7F4F8F4F9F4F16C0882311F096E9CC
:101BB00011C0772321F09EE8872F762F05C066237A
:101BC00071F096E8862F70E060E02AF09A95660F33
:101BD000771F881FDAF7880F9695879597F90895EC
:101BE00097F99F6780E870E060E008959FEF80ECD0
:101BF000089500240A941616170618060906089573
:101C000000240A9412161306140605060895092ED8
:101C10000394000C11F4882352F0BB0F40F4BF2B47
:101C200011F460FF04C06F5F7F4F8F4F9F4F089587
:101C300057FD9058440F551F59F05F3F71F047957D
:101C4000880F97FB991F61F09F3F79F08795089562
:101C5000121613061406551FF2CF4695F1DF08C081
:101C6000161617061806991FF1CF8695710561059E
:101C700008940895E894BB2766277727CB0197F946
:101C800008950E94540E0C94070E0E94F90D38F02E
:101C90000E94000E20F0952311F00C94F00D0C948E
:101CA000F60D11240C943B0E0E94180E70F3959FB4
:101CB000C1F3950F50E0551F629FF001729FBB2743
:101CC000F00DB11D639FAA27F00DB11DAA1F649FDF
:101CD0006627B00DA11D661F829F2227B00DA11D92
:101CE000621F739FB00DA11D621F839FA00D611D18
:101CF000221F749F3327A00D611D231F849F600D39
:101D0000211D822F762F6A2F11249F5750409AF061
:101D1000F1F088234AF0EE0FFF1FBB1F661F771FED
:101D2000881F91505040A9F79E3F510580F00C94B8
:101D3000F00D0C943B0E5F3FE4F3983ED4F3869590
:101D400077956795B795F795E7959F5FC1F7FE2B58
:101D5000880F911D9695879597F9089597FB072E03
:101D600016F4009407D077FD09D00E941D0F07FCE0
:101D700005D03EF4909581959F4F0895709561959B
:101D80007F4F0895A1E21A2EAA1BBB1BFD010DC0B7
:101D9000AA1FBB1FEE1FFF1FA217B307E407F5071B
:101DA00020F0A21BB30BE40BF50B661F771F881FF7
:101DB000991F1A9469F760957095809590959B018D
:101DC000AC01BD01CF010895052E97FB1EF40094D0
:101DD0000E94FB0E57FD07D00E94C20E07FC03D0E5
:101DE0004EF40C94FB0E50954095309521953F4F45
:101DF0004F4F5F4F089590958095709561957F4FF7
:101E00008F4F9F4F0895A29FB001B39FC001A39F22
:101E1000700D811D1124911DB29F700D811D112423
:101E2000911D08950E94030FA59F900DB49F900DE2
:101E3000A49F800D911D11240895AA1BBB1B51E185
:101E400007C0AA1FBB1FA617B70710F0A61BB70B2A
:101E5000881F991F5A95A9F780959095BC01CD01CF
:061E60000895F894FFCF85
:101E66000101412F43204F6E00412F43204F6666EC
:101E760000446F6F7220436C6F73656400446F6F2C
:101E860072204F70656E656400496E76616C696498
:101E960020557365726E616D650056616C696420CC
:101EA600456E747279005573657220416464656489
:101EB600004E6F206F662055736572730052656120
:101EC60063686564206D6178004E756D6265722089
:101ED6004F662055736572730056616C69642055B0
:101EE6007365726E616D65004C6F67696E20537520
:101EF600636365737366756C004F7220506173730C
:101F0600776F7264005468657265206973206E6F1E
:101F16002075736572730061646465642079657405
:101F260000557365722049443A0050617373776FA8
:101F360072643A005761726E696E672E2E2E0049E2
:101F46006E76616C69642050617373776F7264009A
:101F560057656C636F6D6500536D61727420486FD1
:041F66006D650000A5
:00000001FF
