:100000000C942A000C9447000C9447000C94470071
:100010000C9447000C9447000C9447000C94470044
:100020000C9447000C9447000C9447000C94470034
:100030000C9447000C9447000C9447000C94470024
:100040000C9447000C9447000C9447000C94470014
:100050000C94470011241FBECFE5D8E0DEBFCDBF12
:1000600011E0A0E6B0E0EAE1FDE102C005900D92EA
:10007000A23CB107D9F721E0A2ECB1E001C01D928A
:10008000A53CB207E1F70E941D030C948B0E0C9463
:1000900000000895AF92BF92CF92DF92EF92FF924D
:1000A0000F931F93CF93DF938C017B0164E680E075
:1000B0000E949204B82E29E0281708F4C8C08111C4
:1000C0002FC06CC0DD2DDD0FDD0FDD0FDD190F2E14
:1000D000F3E0CF2EF02DC0E00DC06C2F6D0F80E04F
:1000E0000E949204F801EC0FF11D9081891301C068
:1000F000CA94CF5FC33088F3C11010C0A3940E948C
:10010000860880E690E00E948E088FEF99E628E14D
:10011000815090402040E1F700C00000D39402C01D
:10012000A12CD12CDB1470F2A110A8C00E9486086B
:1001300081E790E00E948E088FEF99E628E18150D8
:1001400090402040E1F700C00000DB2DDD0FDD0F07
:10015000DD0FDB19C0E00AC04C2F4D0FF801EC0F8A
:10016000F11D60E080810E947804CF5FC330A0F36E
:10017000C0E00BC04C2F4D0F4D5FF701EC0FF11D90
:1001800060E080810E947804CF5FC43098F344E639
:1001900060E081E08B0D0E94780470C00E948608A8
:1001A00081E790E00E948E088FEF99E628E1815068
:1001B00090402040E1F700C00000DB2DDD0FDD0F97
:1001C000DD0FDB19C0E00AC04C2F4D0FF801EC0F1A
:1001D000F11D60E080810E947804CF5FC330A0F3FE
:1001E000C0E00BC04C2F4D0F4D5FF701EC0FF11D20
:1001F00060E080810E947804CF5FC43098F344E6C9
:1002000060E081E08B0D0E9478040E9486088DE7F3
:1002100090E00E948E0860E081E00E946E0888E80D
:1002200090E00E948E0864E680E00E949204682FAD
:1002300070E080E090E00E9490078FEF99E628E15F
:10024000815090402040E1F700C0000017C00E949C
:10025000860885E990E00E948E0860E081E00E94B7
:100260006E0881EA90E00E948E088FEF99E628E1FF
:10027000815090402040E1F700C00000DF91CF9115
:100280001F910F91FF90EF90DF90CF90BF90AF90B4
:100290000895EF92FF920F931F93CF93DF937C010A
:1002A0008B010E948608C0E0D0E00DC065E66C0FAF
:1002B00080E00E949204F701EC0FF11D90818913F8
:1002C00001C0DF5FCF5FC33088F3C0E0F12C0DC009
:1002D00068E66C0F80E00E949204F801EC0FF11DBB
:1002E0009081891301C0F394CF5FC43088F3D33079
:1002F00091F424E0F2120FC080EC90E00E948E088E
:100300008FEF99E628E1815090402040E1F700C04E
:100310000000C0E047C084E0F81211C0D33079F08B
:1003200080E690E00E948E089FEF29E688E19150D8
:1003300020408040E1F700C00000C1E033C0D3306E
:1003400091F494E0F91679F081ED90E00E948E0826
:100350002FEF89E698E1215080409040E1F700C0FE
:100360000000C1E01FC0D330D1F024E0F216C9F084
:1003700080E690E00E948E0860E081E00E946E08B6
:1003800081ED90E00E948E088FEF99E628E1815080
:1003900090402040E1F700C00000C1E003C0C0E091
:1003A00001C0C0E08FEF95EA2EE0815090402040E0
:1003B000E1F700C000000E9486088FEF95EA2EE06A
:1003C000815090402040E1F700C000008C2FDF9169
:1003D000CF911F910F91FF90EF900895AF92BF9230
:1003E000CF92DF92EF92FF920F931F93CF93DF9301
:1003F0007C018B0164E680E00E949204B82E81119A
:1004000033C051C0DD2DDD0FDD0FDD0FDD19C0E084
:10041000C12C0DC06C2F6D0F80E00E949204F7017B
:10042000EC0FF11D9081891301C0C394CF5FC330DD
:1004300088F3C0E0A12C0EC06C2F6D0F6D5F80E0C3
:100440000E949204F801EC0FF11D9081891301C004
:10045000A394CF5FC43080F323E0C21203C084E0D2
:10046000A81639F0D39401C0D12CDB1458F2A12C7A
:10047000C12C93E0C91209C024E0A21206C080EC8E
:1004800090E00E948E0880E026C080E690E00E9406
:100490008E0860E081E00E946E0882EE90E00E948B
:1004A0008E0881E018C00E9486088EEE90E00E94BF
:1004B0008E0860E081E00E946E0880E091E00E947A
:1004C0008E088FEF93ED20E3815090402040E1F7BC
:1004D00000C0000082E0DF91CF911F910F91FF904B
:1004E000EF90DF90CF90BF90AF9008950F931F9340
:1004F000CF938C0160E081E00E946E08C0E00BC0E9
:100500000E94EE04882339F0F801EC0FF11D80837E
:100510000E94E606CF5FC33098F32FEF85EA9EE096
:10052000215080409040E1F700C00000CF911F9122
:100530000F9108950F931F93CF938C0160E081E09A
:100540000E946E08C0E00CC00E94EE04882341F0B7
:10055000F801EC0FF11D80838AE20E94E606CF5F6E
:10056000C43090F32FEF85EA9EE021508040904008
:10057000E1F700C00000CF911F910F910895CF9334
:10058000DF93EC01888181111CC00E94860860E025
:1005900080E00E946E088AE091E00E948E0860E090
:1005A00070E080EF92E40E94E1082FEF89E698E185
:1005B000215080409040E1F700C0000081E0888336
:1005C00019C00E94860860E080E00E946E0889E100
:1005D00091E00E948E0860E070E0CB010E94E1088B
:1005E0002FEF89E698E1215080409040E1F700C06C
:1005F00000001882DF91CF9108950E94860888E25A
:1006000091E00E948E0860E081E00E946E0889E31C
:1006100091E00E948E082FEF87EA91E621508040FA
:100620009040E1F700C000000E948608089560E055
:1006300070E0CB010E94E1080895CF93DF93CDB71E
:10064000DEB728970FB6F894DEBF0FBECDBF0E946D
:1006500058070E94AD040E9475040E946A040E941B
:10066000AB080E94D60882E00E94A70883E00E949F
:10067000A7080E945B0481E00E94AE0886E00E9409
:10068000030B89E490E00E94310B64E680E00E9455
:10069000920419821A821B821C821D821E821F8272
:1006A00018868091C201803399F030F4882351F08C
:1006B000813009F4BEC0F5CF813359F1823309F49A
:1006C00082C0EFCF0E94FD0280E38093C201E9CF98
:1006D0000E94860886E491E00E948E0860E081E036
:1006E0000E946E0887E591E00E948E080E94EE0449
:1006F0000DC00E94EE04813321F491E39093C20176
:1007000005C0823319F492E39093C201882389F3E0
:10071000C8CF0E94860886E691E00E948E082FEFDF
:1007200083ED90E3215080409040E1F700C000004D
:100730000E94860810E043C084E791E00E948E0882
:10074000CE0101960E9476020E94860883E891E01D
:100750000E948E08CE0104960E949A02BE016C5F30
:100760007F4FCE0101960E944901811104C081E0B2
:100770008093C20196CF1F5F133009F50E94600479
:100780000E94170381E00E94C30883E00E94C3080F
:100790008130D9F72FEF87EE93E0215080409040D1
:1007A000E1F700C0000083E00E94C308813069F7D0
:1007B00083E00E94C3088130D9F30E94650413309E
:1007C00008F4BACF6ECF0E94860882E991E00E94B9
:1007D0008E082FEF83ED90E3215080409040E1F7A9
:1007E00000C000000E94860884E791E00E948E0805
:1007F000CE0101960E9476020E94860883E891E06D
:100800000E948E08CE0104960E949A02BE016C5F7F
:100810007F4FCE0101960E94EE01811104C082E05B
:100820008093C2013ECF8230E9F680E38093C2011B
:1008300038CF0E9486088FE991E00E948E0860E020
:1008400081E00E946E0880EB91E00E948E080E9479
:10085000EE04182F2DC00E94EE04182F813329F4C6
:10086000CE0108960E94BF0223C08233E1F40E94A9
:10087000860884E791E00E948E08CE0101960E94CE
:1008800076020E94860883E891E00E948E08CE01DD
:1008900004960E949A02BE016C5F7F4FCE010196C2
:1008A0000E944A0005C0833319F483E08093C2019B
:1008B000112389F2F6CE61E08BE20E9424090895AB
:1008C00061E08BE20E94AD09089560E08BE20E9436
:1008D000AD09089561E08EE20E94240961E08CE296
:1008E0000E9424090E94160C08950E94360B089558
:1008F0001F93CF93DF93683088F4142FC62FD82F1F
:100900000E94450B8C2F80650E94590B812F0E94FD
:10091000820B8D2F0E94820B0E94AF0BDF91CF9133
:100920001F910895CF93DF93C82FD62F0E94450BB8
:10093000C0658C2F0E94590B8D2F0E94820B0E9444
:10094000A10B8C2F0E946C0B0E949A0BC82F0E9447
:10095000AF0B8C2FDF91CF91089561E082E20E946E
:10096000240961E083E20E94240961E084E20E949C
:10097000240961E085E20E94240961E082E20E948C
:10098000AD0961E083E20E94AD0961E084E20E946A
:10099000AD0961E085E20E94AD0960E08FE00E9450
:1009A000240960E080E10E94240960E081E10E9466
:1009B000240960E087E10E94240960E08FE00E9442
:1009C0007A0A60E080E10E947A0A60E081E10E9498
:1009D0007A0A60E087E10E947A0A0895CF9360E086
:1009E00082E20E94AD098FE00E94360A811119C08F
:1009F0002FEF86E791E0215080409040E1F700C062
:100A000000008FE00E94360A81110DC08FE00E9425
:100A1000360A8823D9F361E082E20E94AD09C7E378
:100A200003C0C0E001C0C0E080E10E94360A81112D
:100A300018C02FEF86E791E0215080409040E1F709
:100A400000C0000080E10E94360A81110AC080E1E6
:100A50000E94360A8823D9F361E082E20E94AD0940
:100A6000C8E381E10E94360A811118C02FEF86E7A2
:100A700091E0215080409040E1F700C0000081E10A
:100A80000E94360A81110AC081E10E94360A882339
:100A9000D9F361E082E20E94AD09C9E387E10E94D7
:100AA000360A811118C02FEF86E791E0215080406F
:100AB0009040E1F700C0000087E10E94360A8111F2
:100AC0000AC087E10E94360A8823D9F361E082E2F6
:100AD0000E94AD09CFE261E082E20E94AD0960E0D0
:100AE00083E20E94AD098FE00E94360A811118C08E
:100AF0002FEF86E791E0215080409040E1F700C061
:100B000000008FE00E94360A81110AC08FE00E9427
:100B1000360A8823D9F361E083E20E94AD09C4E379
:100B200080E10E94360A811118C02FEF86E791E01C
:100B3000215080409040E1F700C0000080E10E9419
:100B4000360A81110AC080E10E94360A8823D9F34F
:100B500061E083E20E94AD09C5E381E10E94360AAB
:100B6000811118C02FEF86E791E02150804090401E
:100B7000E1F700C0000081E10E94360A81110AC03D
:100B800081E10E94360A8823D9F361E083E20E9462
:100B9000AD09C6E387E10E94360A811118C02FEF24
:100BA00086E791E0215080409040E1F700C00000CE
:100BB00087E10E94360A81110AC087E10E94360A45
:100BC0008823D9F361E083E20E94AD09CAE261E0C3
:100BD00083E20E94AD0960E084E20E94AD098FE0EB
:100BE0000E94360A811118C02FEF86E791E021504C
:100BF00080409040E1F700C000008FE00E94360A7C
:100C000081110AC08FE00E94360A8823D9F361E07F
:100C100084E20E94AD09C1E380E10E94360A81119D
:100C200018C02FEF86E791E0215080409040E1F717
:100C300000C0000080E10E94360A81110AC080E1F4
:100C40000E94360A8823D9F361E084E20E94AD094C
:100C5000C2E381E10E94360A811118C02FEF86E7B6
:100C600091E0215080409040E1F700C0000081E118
:100C70000E94360A81110AC081E10E94360A882347
:100C8000D9F361E084E20E94AD09C3E387E10E94E9
:100C9000360A811118C02FEF86E791E0215080407D
:100CA0009040E1F700C0000087E10E94360A811100
:100CB0000AC087E10E94360A8823D9F361E084E202
:100CC0000E94AD09CDE261E084E20E94AD0960E0DE
:100CD00085E20E94AD098FE00E94360A811118C09A
:100CE0002FEF86E791E0215080409040E1F700C06F
:100CF00000008FE00E94360A81110AC08FE00E9436
:100D0000360A8823D9F361E085E20E94AD09C3E485
:100D100080E10E94360A811118C02FEF86E791E02A
:100D2000215080409040E1F700C0000080E10E9427
:100D3000360A81110AC080E10E94360A8823D9F35D
:100D400061E085E20E94AD09C0E381E10E94360ABC
:100D5000811118C02FEF86E791E02150804090402C
:100D6000E1F700C0000081E10E94360A81110AC04B
:100D700081E10E94360A8823D9F361E085E20E946E
:100D8000AD09CDE387E10E94360A811118C02FEF2B
:100D900086E791E0215080409040E1F700C00000DC
:100DA00087E10E94360A81110AC087E10E94360A53
:100DB0008823D9F361E085E20E94AD09CBE261E0CE
:100DC00085E20E94AD098C2FCF910895CF93C82F53
:100DD00061E084E10E94AD0988B38F709C2F907F01
:100DE000892B88BB61E086E10E94AD098FE99FE015
:100DF0000197F1F700C0000060E086E10E94AD09B4
:100E000028B330E1C39FC0011124922F9F70892B1A
:100E100088BB61E086E10E94AD098FE99FE0019700
:100E2000F1F700C0000060E086E10E94AD09CF91BB
:100E30000895CF93C82F60E084E10E94AD0988B384
:100E40008F709C2F907F892B88BB61E086E10E9488
:100E5000AD098FE99FE00197F1F700C0000060E065
:100E600086E10E94AD098FE19EE40197F1F700C091
:100E7000000028B330E1C39FC0011124922F9F705E
:100E8000892B88BB61E086E10E94AD098FE99FE074
:100E90000197F1F700C0000060E086E10E94AD0913
:100EA0008FE19EE40197F1F700C00000CF91089513
:100EB00061E088E10E94240961E089E10E9424093F
:100EC00061E08AE10E94240961E08BE10E9424092B
:100ED00061E084E10E94240961E085E10E94240927
:100EE00061E086E10E9424092FEF83ED90E3215019
:100EF00080409040E1F700C0000083E30E941907A2
:100F000082E30E94190788E20E9419078CE00E9480
:100F1000190781E00E94190782E00E9419070895CD
:100F20003F924F925F926F927F928F929F92AF9279
:100F3000BF92CF92DF92EF92FF920F931F93CF93C6
:100F4000DF9300D000D0CDB7DEB74B015C012DB7E9
:100F50003EB73A832983672B682B692B19F480E30A
:100F60000E94E606A8EEB3E0A50194010E94800E5F
:100F700028EE33E040E050E00E94520E672B682BD1
:100F8000692B09F08EC0BB205CF48DE20E94E6065E
:100F9000B094A09490948094811C911CA11CB11CCD
:100FA000181419041A041B040CF07BC0A501940149
:100FB000312C0EC0211531054105510549F0CA01FA
:100FC000B9012AE030E040E050E00E94300E339456
:100FD000211531054105510569F78DB79EB79C83F1
:100FE0008B83832D90E0880F991F880F991F2DB751
:100FF0003EB7281B390B0FB6F8943EBF0FBE2DBF6E
:101000000DB71EB70F5F1F4F412C512C320120C06E
:101010003FEF431A530A630A730AC418D508E60857
:10102000F708C501B4012AE030E040E050E00E943A
:10103000520ECC0CDD1CCC0CDD1CF801EC0DFD1DA2
:101040006083718382839383822E932EA42EB52E88
:10105000C32CD12CE12CF12C4C145D046E047F04C4
:10106000B8F2812C912C540110C0F401EE0FFF1F37
:10107000EE0FFF1FE00FF11F8081805D0E94E606EA
:101080008FEF881A980AA80AB80A8C149D04AE0437
:10109000BF0458F32B813C810FB6F8943EBF0FBEBE
:1010A0002DBF89819A810FB6F8949EBF0FBE8DBF68
:1010B0000F900F900F900F90DF91CF911F910F9194
:1010C000FF90EF90DF90CF90BF90AF909F908F9068
:1010D0007F906F905F904F903F900895CF93DF93F4
:1010E00000D0CDB7DEB790E8998390EC9A83E1E029
:1010F000F0E0EC0FFD1FE80FF11D8081860F0E94CC
:1011000019070F900F90DF91CF91089581E00E9411
:10111000190760E080E00E946E0808950F931F9306
:10112000CF938C01C0E009C00E94E606CF5FC031BA
:1011300021F460E081E00E946E08F801EC0FF11DDF
:1011400080818111F1CFCF911F910F91089561E0BE
:101150000E94240908950E94F8080895823049F0F9
:10116000833061F0813071F460E08AE20E942409EA
:10117000089560E08AE20E942409089560E08AE20E
:101180000E9424090895823039F0833049F081307B
:1011900059F40E94360A089582E00E94360A0895A2
:1011A00083E00E94360A089580E0089561E08DE2B0
:1011B0000E9424090E94BC0B82E390E00E94F70B7E
:1011C000089520E030E040EA50E40E94C30D20E0A2
:1011D00030E044E353E40E94940C20E030E040EA25
:1011E00050E40E94280C0E94D20B0E940C0C08951F
:1011F00060E08BE00E94240987B1806487B987B1E1
:101200008F7787B987B18F7D87B987B18F7E87B98F
:1012100087B1877F87B987B18B7F87B987B18D7F8A
:1012200087B987B18E7F87B986B1846086B986B168
:10123000826086B986B1816086B986B1806886B9D8
:1012400086B1806286B908959DEC899F912D112405
:10125000292F269526952695220F322F330F330FEF
:10126000230F821B282F969596959695662319F045
:101270006130E1F108959230A9F018F4913031F025
:1012800008959330D9F0943029F108953AB381E06C
:1012900090E002C0880F991F2A95E2F7809583237A
:1012A0008ABB089537B381E090E002C0880F991F90
:1012B0002A95E2F78095832387BB089534B381E0B4
:1012C00090E002C0880F991F2A95E2F7809583234A
:1012D00084BB089531B381E090E002C0880F991F6C
:1012E0002A95E2F78095832381BB08959230A1F07F
:1012F00018F4913031F008959330C9F0943011F121
:1013000008953AB381E090E002C0880F991F2A95B2
:10131000E2F7832B8ABB089537B381E090E002C0E7
:10132000880F991F2A95E2F7832B87BB089534B362
:1013300081E090E002C0880F991F2A95E2F7832B85
:1013400084BB089531B381E090E002C0880F991FFB
:101350002A95E2F7832B81BB08959DEC899F912DFF
:101360001124292F269526952695220F322F330FEB
:10137000330F230F821B282F9695969596956623FB
:1013800019F06130E1F108959230A9F018F491302C
:1013900031F008959330D9F0943029F108953BB39A
:1013A00081E090E002C0880F991F2A95E2F78095AE
:1013B00083238BBB089538B381E090E002C0880F8F
:1013C000991F2A95E2F78095832388BB089535B34A
:1013D00081E090E002C0880F991F2A95E2F780957E
:1013E000832385BB089532B381E090E002C0880F6B
:1013F000991F2A95E2F78095832382BB0895923046
:10140000A1F018F4913031F008959330C9F0943080
:1014100011F108953BB381E090E002C0880F991F5D
:101420002A95E2F7832B8BBB089538B381E090E0D7
:1014300002C0880F991F2A95E2F7832B88BB089575
:1014400035B381E090E002C0880F991F2A95E2F73A
:10145000832B85BB089532B381E090E002C0880FF2
:10146000991F2A95E2F7832B82BB08959DEC899FF3
:10147000912D1124292F269526952695220F322F5E
:10148000330F330F230F821B282F892F86958695C4
:101490008695823091F018F4813031F029C0833084
:1014A000A9F08430E1F024C089B390E002C09595A2
:1014B00087952A95E2F78170089586B390E002C07F
:1014C000959587952A95E2F78170089583B390E00A
:1014D00002C0959587952A95E2F78170089580B3AB
:1014E00090E002C0959587952A95E2F7817008955E
:1014F00080E008959DEC899F912D1124292F269538
:1015000026952695220F322F330F330F230F821B80
:10151000282F9695969596956623F1F1613009F0FE
:1015200071C09230A9F018F4913031F008959330E1
:10153000D9F0943029F108953BB381E090E002C0E6
:10154000880F991F2A95E2F7809583238BBB089516
:1015500038B381E090E002C0880F991F2A95E2F726
:101560008095832388BB089535B381E090E002C065
:10157000880F991F2A95E2F78095832385BB0895EC
:1015800032B381E090E002C0880F991F2A95E2F7FC
:101590008095832382BB08959230A1F018F4913096
:1015A00031F008959330C9F0943011F108953BB3B0
:1015B00081E090E002C0880F991F2A95E2F7832B03
:1015C0008BBB089538B381E090E002C0880F991F6B
:1015D0002A95E2F7832B88BB089535B381E090E02C
:1015E00002C0880F991F2A95E2F7832B85BB0895C7
:1015F00032B381E090E002C0880F991F2A95E2F78C
:10160000832B82BB0895863029F0873051F08530D6
:1016100091F40EC095B7916095BF95B7926095BF54
:101620000AC095B7946095BF95B7986095BF03C001
:1016300094B7906494BF863029F0873039F08530B4
:1016400061F408C08BB780648BBF07C08BB780681C
:101650008BBF03C08BB780628BBF8FB780688FBF93
:1016600008959093C4018093C301089586B78B7F3A
:1016700086BF8CE080B986B7846086BF8FE39CE923
:101680000197F1F700C00000089586B7806286BF19
:1016900086B7806886BF06B607FEFDCF81B1887F1A
:1016A0008830E1F78FE39CE90197F1F700C0000073
:1016B0000895880F83B986B7806886BF06B607FE8F
:1016C000FDCF81B1887F8831E1F78FE39CE90197F5
:1016D000F1F700C00000089590E0880F991F816025
:1016E00083B986B7806886BF06B607FEFDCF81B195
:1016F000887F8034E1F78FE39CE90197F1F700C020
:101700000000089583B986B78F7D86BF86B780684D
:1017100086BF06B607FEFDCF81B1887F8832E1F72C
:101720002FEF81EE94E0215080409040E1F700C01F
:101730000000089584E886BF06B607FEFDCF83B19A
:10174000089586B7806286BF86B7806886BF06B672
:1017500007FEFDCF81B1887F8031E1F7089586B71C
:10176000806186BF86B7806886BF8FE99FE001975A
:10177000F1F700C00000089581B3806281BB8FB58E
:1017800080688FBD8FB58F7B8FBD8EB580618EBD1C
:101790008EB588608EBD8FB582608FBD8FB58E7F10
:1017A0008FBD0895CF92DF92EF92FF926B017C0183
:1017B00066B577B580E090E00E94350DA7019601EF
:1017C0000E94C30D20E030E048EC52E40E94940CEB
:1017D00020E030E040E85FE30E94270C0E94060D05
:1017E0007BBD6ABDFF90EF90DF90CF9008950024FD
:1017F000969587950794969587950794982F802DB1
:101800009C0140E050E060E074E284EF90E00E94D0
:10181000520E37BD26BD08958EB58B7F8EBD8EB519
:1018200082608EBD8EB581608EBD089561E08FE2CD
:101830000E94240985B5886085BD85B5806485BD15
:1018400085B5806285BD85B58F7E85BD089550586C
:10185000BB27AA270E943F0C0C94890D0E947B0D88
:1018600038F00E94820D20F039F49F3F19F426F4DD
:101870000C94780D0EF4E095E7FB0C94720DE92FB3
:101880000E949A0D58F3BA176207730784079507E9
:1018900020F079F4A6F50C94BC0D0EF4E0950B2E17
:1018A000BA2FA02D0B01B90190010C01CA01A001B2
:1018B0001124FF27591B99F0593F50F4503E68F10D
:1018C0001A16F040A22F232F342F4427585FF3CF4E
:1018D000469537952795A795F0405395C9F77EF41F
:1018E0001F16BA0B620B730B840BBAF09150A1F068
:1018F000FF0FBB1F661F771F881FC2F70EC0BA0FEE
:10190000621F731F841F48F4879577956795B79575
:10191000F7959E3F08F0B0CF9395880F08F0992770
:10192000EE0F9795879508950E94A80C0C94890D49
:101930000E94820D58F00E947B0D40F029F45F3F19
:1019400029F00C94720D51110C94BD0D0C94780D6E
:101950000E949A0D68F39923B1F3552391F3951BD7
:10196000550BBB27AA2762177307840738F09F5FC0
:101970005F4F220F331F441FAA1FA9F335D00E2E2D
:101980003AF0E0E832D091505040E695001CCAF79A
:101990002BD0FE2F29D0660F771F881FBB1F26175D
:1019A00037074807AB07B0E809F0BB0B802DBF0134
:1019B000FF2793585F4F3AF09E3F510578F00C9403
:1019C000720D0C94BD0D5F3FE4F3983ED4F3869501
:1019D00077956795B795F7959F5FC9F7880F911D24
:1019E0009695879597F90895E1E0660F771F881F10
:1019F000BB1F621773078407BA0720F0621B730BC3
:101A0000840BBA0BEE1F88F7E09508950E94A20D93
:101A100088F09F5798F0B92F9927B751B0F0E1F0AF
:101A2000660F771F881F991F1AF0BA95C9F714C05F
:101A3000B13091F00E94BC0DB1E008950C94BC0D42
:101A4000672F782F8827B85F39F0B93FCCF3869598
:101A500077956795B395D9F73EF4909580957095F5
:101A600061957F4F8F4F9F4F0895E89409C097FB72
:101A70003EF490958095709561957F4F8F4F9F4F65
:101A80009923A9F0F92F96E9BB279395F6958795A9
:101A900077956795B795F111F8CFFAF4BB0F11F46C
:101AA00060FF1BC06F5F7F4F8F4F9F4F16C0882313
:101AB00011F096E911C0772321F09EE8872F762F49
:101AC00005C0662371F096E8862F70E060E02AF08A
:101AD0009A95660F771F881FDAF7880F9695879576
:101AE00097F9089597F99F6780E870E060E008959E
:101AF0009FEF80EC089500240A9416161706180626
:101B00000906089500240A94121613061406050601
:101B10000895092E0394000C11F4882352F0BB0F92
:101B200040F4BF2B11F460FF04C06F5F7F4F8F4FF5
:101B30009F4F089557FD9058440F551F59F05F3F30
:101B400071F04795880F97FB991F61F09F3F79F0DF
:101B500087950895121613061406551FF2CF469561
:101B6000F1DF08C0161617061806991FF1CF8695E3
:101B70007105610508940895E894BB2766277727C7
:101B8000CB0197F908950E94D60D0C94890D0E94FF
:101B90007B0D38F00E94820D20F0952311F00C94FB
:101BA000720D0C94780D11240C94BD0D0E949A0DA9
:101BB00070F3959FC1F3950F50E0551F629FF001A0
:101BC000729FBB27F00DB11D639FAA27F00DB11DB9
:101BD000AA1F649F6627B00DA11D661F829F222742
:101BE000B00DA11D621F739FB00DA11D621F839FC9
:101BF000A00D611D221F749F3327A00D611D231F9F
:101C0000849F600D211D822F762F6A2F11249F57EC
:101C100050409AF0F1F088234AF0EE0FFF1FBB1FEF
:101C2000661F771F881F91505040A9F79E3F5105AE
:101C300080F00C94720D0C94BD0D5F3FE4F3983E60
:101C4000D4F3869577956795B795F795E7959F5F58
:101C5000C1F7FE2B880F911D9695879597F90895EA
:101C6000A1E21A2EAA1BBB1BFD010DC0AA1FBB1FA0
:101C7000EE1FFF1FA217B307E407F50720F0A21B12
:101C8000B30BE40BF50B661F771F881F991F1A947F
:101C900069F760957095809590959B01AC01BD01A9
:101CA000CF010895052E97FB1EF400940E94690E43
:101CB00057FD07D00E94300E07FC03D04EF40C9461
:101CC000690E50954095309521953F4F4F4F5F4F8E
:101CD000089590958095709561957F4F8F4F9F4F98
:101CE0000895A29FB001B39FC001A39F700D811DF5
:101CF0001124911DB29F700D811D1124911D089515
:101D00000E94710EA59F900DB49F900DA49F800D11
:0A1D1000911D11240895F894FFCFEF
:101D1A00496E76616C696420557365726E616D6592
:101D2A000056616C696420456E747279005573655A
:101D3A0072204164646564004E6F206F662055739B
:101D4A00657273200052656163686564206D61780D
:101D5A00004E756D626572204F6620557365727309
:101D6A000056616C696420557365726E616D650019
:101D7A004C6F67696E205375636365737366756C20
:101D8A0000496E76616C69642050617373776F7273
:101D9A0064004F722050617373776F7264005468E5
:101DAA00657265206973206E6F20757365727300A2
:101DBA0061646465642079657400446F6F722049B8
:101DCA0073204F70656E656400446F6F72204973AB
:101DDA0020436C6F7365640057656C636F6D652093
:101DEA00746F20536D61727400486F6D6520507274
:101DFA006F6A656374002020202057656C636F6DDD
:101E0A0065202020202000313A41646D696E20321D
:101E1A003A557365720057656C636F6D652041644E
:101E2A006D696E00456E74657220557365726E61D8
:101E3A006D6500456E7465722050617373776F72B9
:101E4A00640057656C636F6D652055736572002079
:101E5A00313A53776974636820446F6F72202000A7
:101E6A00323A4164645573657220333A4E65787428
:021E7A00000066
:00000001FF
