S0110000536D617274486F6D652E7372656383
S11300000C942A000C9447000C9447000C9447006D
S11300100C9447000C9447000C9447000C94470040
S11300200C9447000C9447000C9447000C94470030
S11300300C9447000C9447000C9447000C94470020
S11300400C9447000C9447000C9447000C94470010
S11300500C94470011241FBECFE5D8E0DEBFCDBF0E
S113006010E0A0E6B0E0E8E8FBE002C005900D92E5
S1130070A036B107D9F720E0A0E6B0E001C01D9298
S1130080A036B207E1F70E9449000C94C2050C9413
S113009000000E9466010E94B3000E9495000E9425
S11300A078000E94800264E680E00E9498000E942A
S11300B08302EC01BC0180E090E00E949E012FEFDE
S11300C081EE94E0215080409040E1F700C00000B0
S11300D00E947C026A9748F080E00E94830084E6D4
S11300E00E948C000E948F00E2CF0E949200DFCF1A
S11300F061E08EE20E94CB0261E08CE20E94CB02BE
S11301000E940005089561E08CE20E94540360E0BF
S11301108EE20E94540308950E94110508950E94DE
S1130120310508950E94380508950E9466040895D3
S1130130CF93DF93C82FD62F0E947504C0658C2FF0
S11301400E9489048D2F0E94B2040E94D1048C2F36
S11301500E949C040E94CA04C82F0E94DF048C2FB2
S1130160DF91CF91089561E084E10E94CB0261E0C8
S113017085E10E94CB0261E086E10E94CB0261E04E
S113018087E10E94CB0261E084E10E94540361E0B4
S113019085E10E94540361E086E10E94540361E01A
S11301A087E10E94540360E088E10E94CB0260E092
S11301B089E10E94CB0260E08AE10E94CB0260E008
S11301C08BE10E94CB0260E088E10E94DD0360E0E5
S11301D089E10E94DD0360E08AE10E94DD0360E0C2
S11301E08BE10E94DD030895CF93C82F61E08BE07B
S11301F00E9454038BB38F709C2F907F892B8BBBF1
S113020061E08DE00E9454038FE99FE00197F1F7CC
S113021000C0000060E08DE00E9454032BB330E185
S1130220C39FC0011124922F9F70892B8BBB61E067
S11302308DE00E9454038FE99FE00197F1F700C01D
S1130240000060E08DE00E945403CF910895CF93A5
S1130250C82F60E08BE00E9454038BB38F709C2FF7
S1130260907F892B8BBB61E08DE00E9454038FE962
S11302709FE00197F1F700C0000060E08DE00E946C
S113028054038FE19EE40197F1F700C000002BB303
S113029030E1C39FC0011124922F9F70892B8BBB27
S11302A061E08DE00E9454038FE99FE00197F1F72C
S11302B000C0000060E08DE00E9454038FE19EE4E2
S11302C00197F1F700C00000CF91089561E08EE03E
S11302D00E94CB0261E08FE00E94CB0261E080E1EA
S11302E00E94CB0261E081E10E94CB0261E08BE0DD
S11302F00E94CB0261E08CE00E94CB0261E08DE0C1
S11303000E94CB022FEF83ED90E321508040904078
S1130310E1F700C0000083E30E94270182E30E940A
S1130320270188E20E9427018CE00E94270181E0D6
S11303300E94270182E00E94270108953F924F9274
S11303405F926F927F928F929F92AF92BF92CF9261
S1130350DF92EF92FF920F931F93CF93DF9300D01E
S113036000D0CDB7DEB74B015C012DB73EB73A8361
S11303702983672B682B692B19F480E30E94F4000E
S1130380A8EEB3E0A50194010E94A30528EE33E092
S113039040E050E00E947505672B682B692B09F03B
S11303A08EC0BB205CF48DE20E94F400B094A09453
S11303B090948094811C911CA11CB11C18141904E4
S11303C01A041B040CF07BC0A5019401312C0EC04F
S11303D0211531054105510549F0CA01B9012AE049
S11303E030E040E050E00E9453053394211531057C
S11303F04105510569F78DB79EB79C838B83832D87
S113040090E0880F991F880F991F2DB73EB7281BBE
S1130410390B0FB6F8943EBF0FBE2DBF0DB71EB7F4
S11304200F5F1F4F412C512C320120C03FEF431A64
S1130430530A630A730AC418D508E608F708C50105
S1130440B4012AE030E040E050E00E947505CC0C95
S1130450DD1CCC0CDD1CF801EC0DFD1D60837183EB
S113046082839383822E932EA42EB52EC32CD12C5B
S1130470E12CF12C4C145D046E047F04B8F2812C41
S1130480912C540110C0F401EE0FFF1FEE0FFF1F5B
S1130490E00FF11F8081805D0E94F4008FEF881AC5
S11304A0980AA80AB80A8C149D04AE04BF0458F331
S11304B02B813C810FB6F8943EBF0FBE2DBF8981BE
S11304C09A810FB6F8949EBF0FBE8DBF0F900F9008
S11304D00F900F90DF91CF911F910F91FF90EF90AC
S11304E0DF90CF90BF90AF909F908F907F906F9050
S11304F05F904F903F90089581E00E9427010895F6
S11305000E94920208950E94BE029C01A4EFB1E0F1
S11305100E9494052FEF33E040E050E00E94530521
S1130520C901089560E08BE00E94CB0287B180642A
S113053087B987B18F7787B987B18F7D87B987B13D
S11305408F7E87B987B1877F87B987B18B7F87B95A
S113055087B18D7F87B987B18E7F87B986B1846073
S113056086B986B1826086B986B1816086B986B162
S1130570806886B986B1806286B9089586B1806440
S113058086B9349BFECF24B185B190E0982F88279B
S1130590820F911D08959DEC899F912D1124292F7F
S11305A0269526952695220F322F330F330F230FCE
S11305B0821B282F969596959695662319F061309F
S11305C0E1F108959230A9F018F4913031F00895D2
S11305D09330D9F0943029F108953AB381E090E052
S11305E002C0880F991F2A95E2F7809583238ABB5E
S11305F0089537B381E090E002C0880F991F2A95CF
S1130600E2F78095832387BB089534B381E090E0BB
S113061002C0880F991F2A95E2F78095832384BB33
S1130620089531B381E090E002C0880F991F2A95A4
S1130630E2F78095832381BB08959230A1F018F4EA
S1130640913031F008959330C9F0943011F1089548
S11306503AB381E090E002C0880F991F2A95E2F72F
S1130660832B8ABB089537B381E090E002C0880FE2
S1130670991F2A95E2F7832B87BB089534B381E051
S113068090E002C0880F991F2A95E2F7832B84BB60
S1130690089531B381E090E002C0880F991F2A9534
S11306A0E2F7832B81BB08959DEC899F912D112442
S11306B0292F269526952695220F322F330F330F97
S11306C0230F821B282F969596959695662319F0ED
S11306D06130E1F108959230A9F018F4913031F0CD
S11306E008959330D9F0943029F108953BB381E013
S11306F090E002C0880F991F2A95E2F78095832322
S11307008BBB089538B381E090E002C0880F991F35
S11307102A95E2F78095832388BB089535B381E059
S113072090E002C0880F991F2A95E2F780958323F1
S113073085BB089532B381E090E002C0880F991F11
S11307402A95E2F78095832382BB08959230A1F025
S113075018F4913031F008959330C9F0943011F1C8
S113076008953BB381E090E002C0880F991F2A9559
S1130770E2F7832B8BBB089538B381E090E002C08D
S1130780880F991F2A95E2F7832B88BB089535B308
S113079081E090E002C0880F991F2A95E2F7832B2D
S11307A085BB089532B381E090E002C0880F991FA1
S11307B02A95E2F7832B82BB08959DEC899F912DA6
S11307C01124292F269526952695220F322F330F93
S11307D0330F230F821B282F9695969596956623A3
S11307E0F1F1613009F071C09230A9F018F4913040
S11307F031F008959330D9F0943029F108953BB342
S113080081E090E002C0880F991F2A95E2F7809555
S113081083238BBB089538B381E090E002C0880F36
S1130820991F2A95E2F78095832388BB089535B3F1
S113083081E090E002C0880F991F2A95E2F7809525
S1130840832385BB089532B381E090E002C0880F12
S1130850991F2A95E2F78095832382BB08959230ED
S1130860A1F018F4913031F008959330C9F0943028
S113087011F108953BB381E090E002C0880F991F05
S11308802A95E2F7832B8BBB089538B381E090E07F
S113089002C0880F991F2A95E2F7832B88BB08951D
S11308A035B381E090E002C0880F991F2A95E2F7E2
S11308B0832B85BB089532B381E090E002C0880F9A
S11308C0991F2A95E2F7832B82BB089586B78B7F05
S11308D086BF8CE080B986B7846086BF8FE39CE9CD
S11308E00197F1F700C00000089586B7806286BFC3
S11308F086B7806886BF06B607FEFDCF81B1887FC4
S11309008830E1F78FE39CE90197F1F700C000001C
S11309100895880F83B986B7806886BF06B607FE38
S1130920FDCF81B1887F8831E1F78FE39CE901979E
S1130930F1F700C00000089590E0880F991F8160CE
S113094083B986B7806886BF06B607FEFDCF81B13E
S1130950887F8034E1F78FE39CE90197F1F700C0C9
S11309600000089583B986B78F7D86BF86B78068F7
S113097086BF06B607FEFDCF81B1887F8832E1F7D6
S11309802FEF81EE94E0215080409040E1F700C0C9
S11309900000089584E886BF06B607FEFDCF83B144
S11309A0089586B7806286BF86B7806886BF06B61C
S11309B007FEFDCF81B1887F8031E1F7089586B7C6
S11309C0806186BF86B7806886BF8FE99FE0019704
S11309D0F1F700C00000089585B5846085BD85B534
S11309E0826085BD85B5816085BD089585B58B7FA1
S11309F085BD85B58D7F85BD85B58E7F85BD089503
S1130A0061E08FE20E94CB0285B5886085BD85B523
S1130A10806485BD85B5806285BD85B58F7E85BDC5
S1130A20089581110FC095B5906295BD95B59061FB
S1130A3095BD982F80E064E670E00E943F056095C4
S1130A4063BD089595B5906295BD95B59F7E95BD9E
S1130A50982F80E064E670E00E943F05615063BD1A
S1130A6008950E94EC0461E08FE20E94CB02089595
S1130A700E94F60460E08FE20E94CB02089597FB87
S1130A80072E16F4009407D077FD09D00E94AE0516
S1130A9007FC05D03EF4909581959F4F089570957D
S1130AA061957F4F0895A1E21A2EAA1BBB1BFD017D
S1130AB00DC0AA1FBB1FEE1FFF1FA217B307E40739
S1130AC0F50720F0A21BB30BE40BF50B661F771F91
S1130AD0881F991F1A9469F7609570958095909571
S1130AE09B01AC01BD01CF010895052E97FB1EF4B7
S1130AF000940E948C0557FD07D00E94530507FC03
S1130B0003D04EF40C948C05509540953095219566
S1130B103F4F4F4F5F4F0895909580957095619525
S1130B207F4F8F4F9F4F0895A29FB001B39FC00185
S1130B30A39F700D811D1124911DB29F700D811D05
S1130B401124911D08950E949405A59F900DB49FB2
S1130B50900DA49F800D911D11240895AA1BBB1B09
S1130B6051E107C0AA1FBB1FA617B70710F0A61BA9
S1130B70B70B881F991F5A95A9F780959095BC01CA
S10B0B80CD010895F894FFCFA4
S9030000FC
