S0110000536D617274486F6D652E7372656383
S11300000C945D000C947A000C947A000C947A00A1
S11300100C947A000C947A000C947A000C947A0074
S11300200C947A000C947A000C947A000C947A0064
S11300300C947A000C947A000C947A000C947A0054
S11300400C947A000C947A000C947A000C947A0044
S11300500C947A00A3045A0597049C05D405FE0564
S113006097049704970497049704970497049704B4
S113007097049704970497049704970497049704A4
S11300809704970497049704970497049704970494
S11300909704970497049704970497049704970484
S11300A09704970497049704970497049704970474
S11300B097049704A904CA04240511241FBECFE59C
S11300C0D8E0DEBFCDBF12E0A0E6B0E0E0EDF1E2A3
S11300D002C005900D92A431B107D9F722E0A4E142
S11300E0B2E001C01D92A731B207E1F70E9460049B
S11300F00C94E6100C9400000895AF92BF92CF9236
S1130100DF92EF92FF920F931F93CF93DF938C01B3
S11301107B0164E680E00E945906B82E29E0281786
S113012008F4C8C081112FC06CC0DD2DDD0FDD0FB8
S1130130DD0FDD190F2EF3E0CF2EF02DC0E00DC042
S11301406C2F6D0F80E00E945906F801EC0FF11D31
S11301509081891301C0CA94CF5FC33088F3C11062
S113016010C0A3940E944D0A80E690E00E94550AB4
S11301708FEF99E628E1815090402040E1F700C0DC
S11301800000D39402C0A12CD12CDB1470F2A11076
S1130190A8C00E944D0A81E790E00E94550A8FEFA3
S11301A099E628E1815090402040E1F700C000002A
S11301B0DB2DDD0FDD0FDD0FDB19C0E00AC04C2F96
S11301C04D0FF801EC0FF11D60E080810E943F06A5
S11301D0CF5FC330A0F3C0E00BC04C2F4D0F4D5F79
S11301E0F701EC0FF11D60E080810E943F06CF5FB4
S11301F0C43098F344E660E081E08B0D0E943F0632
S113020070C00E944D0A81E790E00E94550A8FEF6A
S113021099E628E1815090402040E1F700C00000B9
S1130220DB2DDD0FDD0FDD0FDB19C0E00AC04C2F25
S11302304D0FF801EC0FF11D60E080810E943F0634
S1130240CF5FC330A0F3C0E00BC04C2F4D0F4D5F08
S1130250F701EC0FF11D60E080810E943F06CF5F43
S1130260C43098F344E660E081E08B0D0E943F06C1
S11302700E944D0A8DE790E00E94550A60E081E0FB
S11302800E94350A88E890E00E94550A64E680E0FE
S11302900E945906682F70E080E090E00E945709A0
S11302A08FEF99E628E1815090402040E1F700C0AB
S11302B0000017C00E944D0A85E990E00E94550A8B
S11302C060E081E00E94350A81EA90E00E94550ACC
S11302D08FEF99E628E1815090402040E1F700C07B
S11302E00000DF91CF911F910F91FF90EF90DF906D
S11302F0CF90BF90AF900895CF92DF92EF92FF928C
S11303000F931F93CF93DF93811153C062C0DF2DEE
S1130310DD0FDD0FDD0FDF19E12CC0E00DC06C2F08
S11303206D0F80E00E945906F801EC0FF11D9081D9
S1130330891301C0E394CF5FC33088F323E0E21252
S11303400EC081EB90E00E94550A8FEF93EC29E0F8
S1130350815090402040E1F700C00000C39481E048
S1130360C81225C00DC0EC2EED0E67E06E0D80E0C6
S11303700E9459064E2D60E00E943F06CF5F01C0E7
S1130380C0E0C33080F3C0E010C06C2F6D0F0F2E9F
S1130390F3E0EF2EF02DE60E665F80E00E94590632
S11303A04E2D60E00E943F06CF5FC43070F3F3949B
S11303B004C08B01D82EC12CF12CFD1408F4A7CF56
S11303C091E0C91206C044E660E08FEF8D0D0E94F3
S11303D03F06DF91CF911F910F91FF90EF90DF9037
S11303E0CF900895EF92FF920F931F93CF93DF93D3
S11303F07C018B010E944D0AC0E0D0E00DC065E68F
S11304006C0F80E00E945906F701EC0FF11D9081FA
S1130410891301C0DF5FCF5FC33088F3C0E0F12CE4
S11304200DC068E66C0F80E00E945906F801EC0FDD
S1130430F11D9081891301C0F394CF5FC43088F318
S1130440D33091F424E0F2120FC080EC90E00E94CB
S1130450550A8FEF99E628E1815090402040E1F75A
S113046000C00000C0E047C084E0F81211C0D330DF
S113047079F080E690E00E94550A9FEF29E688E132
S1130480915020408040E1F700C00000C1E033C03B
S1130490D33091F494E0F91679F081ED90E00E9464
S11304A0550A2FEF89E698E1215080409040E1F70A
S11304B000C00000C1E01FC0D330D1F024E0F21628
S11304C0C9F080E690E00E94550A60E081E00E9455
S11304D0350A81ED90E00E94550A8FEF99E628E1F4
S11304E0815090402040E1F700C00000C1E003C00B
S11304F0C0E001C0C0E08FEF95EA2EE0815090404B
S11305002040E1F700C000000E944D0A8FEF95EAF9
S11305102EE0815090402040E1F700C000008C2F75
S1130520DF91CF911F910F91FF90EF900895AF92BB
S1130530BF92CF92DF92EF92FF920F931F93CF93CC
S1130540DF937C018B0164E680E00E945906B82E9B
S1130550811133C051C0DD2DDD0FDD0FDD0FDD193D
S1130560C0E0C12C0DC06C2F6D0F80E00E945906B5
S1130570F701EC0FF11D9081891301C0C394CF5F83
S1130580C33088F3C0E0A12C0EC06C2F6D0F6D5FDB
S113059080E00E945906F801EC0FF11D9081891347
S11305A001C0A394CF5FC43080F323E0C21203C020
S11305B084E0A81639F0D39401C0D12CDB1458F28E
S11305C0A12CC12C93E0C91209C024E0A21206C0D8
S11305D080EC90E00E94550A80E026C080E690E01E
S11305E00E94550A60E081E00E94350A82EE90E0A4
S11305F00E94550A81E018C00E944D0A8EEE90E0D8
S11306000E94550A60E081E00E94350A80E091E092
S11306100E94550A8FEF93ED20E3815090402040D3
S1130620E1F700C0000082E0DF91CF911F910F91AC
S1130630FF90EF90DF90CF90BF90AF9008950F930D
S11306401F93CF938C0160E081E00E94350AC0E0E3
S11306500BC00E94B506882339F0F801EC0FF11D98
S113066080830E94AD08CF5FC33098F32FEF85EAF3
S11306709EE0215080409040E1F700C00000CF91FF
S11306801F910F9108950F931F93CF938C0160E0F6
S113069081E00E94350AC0E00CC00E94B5068823A0
S11306A041F0F801EC0FF11D80838AE20E94AD084D
S11306B0CF5FC43090F32FEF85EA9EE02150804055
S11306C09040E1F700C00000CF911F910F91089571
S11306D0CF93DF93EC01888181111CC00E944D0AE5
S11306E060E080E00E94350A8AE091E00E94550AA9
S11306F060E070E080EF92E40E94BF0A2FEF89E689
S113070098E1215080409040E1F700C0000081E072
S1130710888319C00E944D0A60E080E00E94350A77
S113072089E191E00E94550A60E070E0CB010E94EB
S1130730BF0A2FEF89E698E1215080409040E1F70D
S113074000C000001882DF91CF910895CF93DF930A
S1130750EC0181E20E94720A8881811120C00E940A
S11307607D0A8B3178F080E20E94720A81E20E9455
S1130770760A80E00E942A0684E60E9433060E94DC
S113078036060AC0853140F481E20E94720A80E292
S11307900E94760A0E94390681E0888309C00E947B
S11307A0390681E20E94760A80E20E94760A188263
S11307B0DF91CF9108950E944D0A88E291E00E9452
S11307C0550A60E081E00E94350A89E391E00E94C5
S11307D0550A2FEF87EA91E6215080409040E1F7D7
S11307E000C000000E944D0A089560E070E0CB0153
S11307F00E94BF0A0895813021F50E947D0A8B3141
S113080078F080E20E94720A81E20E94760A80E017
S11308100E942A0684E60E9433060E9436060AC015
S1130820853140F481E20E94720A80E20E94760AD5
S11308300E9439060E944D0A86E491E00E94550AFE
S113084008950E94390681E20E94760A80E20E949D
S1130850760A0E944D0A80E591E00E94550A0895A7
S11308608130B9F460E00E94350A8AE091E00E9488
S1130870550A60E070E080EF92E40E94BF0A2FEF17
S113088089E698E1215080409040E1F700C00000E3
S1130890089560E081E00E94350A89E191E00E94B8
S11308A0550A60E070E0CB010E94BF0A2FEF89E691
S11308B098E1215080409040E1F700C00000089585
S11308C0CF93DF93CDB7DEB729970FB6F894DEBF89
S11308D00FBECDBF0E941F090E9474060E943C06F1
S11308E00E941F060E947A0A0E94B40A80E20E94B3
S11308F06E0A81E20E946E0A0E94100681E00E9444
S11309008C0A86E090E00E94EE0C8CE790E00E9456
S11309101C0D64E680E00E945906082F19821A8291
S11309201B821C821D821E821F8218861986E091FA
S113093014028E2F90E083339105C8F7FC01E65D25
S1130940FF4F0C94B2100E94DB0380E380931402E7
S1130950EECF0E944D0A8AE591E00E94550A60E0BC
S113096081E00E94350A8BE691E00E94550A0E94BC
S1130970B5060DC00E94B506813321F491E390932E
S1130980140205C0823319F492E39093140288236D
S113099089F3CDCF0E944D0A8AE791E00E94550A5F
S11309A02FEF83ED90E3215080409040E1F700C0A9
S11309B000000E944D0A10E043C088E891E00E94C4
S11309C0550ACE0101960E941F030E944D0A87E931
S11309D091E00E94550ACE0104960E944303BE0191
S11309E06C5F7F4FCE0101960E94F201811104C019
S11309F081E0809314029BCF1F5F133009F50E949E
S1130A0015060E94F50381E00E94A10A83E00E947A
S1130A10A10A8130D9F72FEF87EE93E0215080406F
S1130A209040E1F700C0000083E00E94A10A8130F9
S1130A3069F783E00E94A10A8130D9F30E941A0663
S1130A40133008F4BACF73CF0E944D0A86EA91E0BE
S1130A500E94550A2FEF83ED90E32150804090408F
S1130A60E1F700C000000E944D0A88E891E00E946E
S1130A70550ACE0101960E941F030E944D0A87E980
S1130A8091E00E94550ACE0104960E944303BE01E0
S1130A906C5F7F4FCE0101960E949702811104C0C2
S1130AA082E08093140243CF8230E9F680E380939E
S1130AB014023DCF0E944D0A83EB91E00E94550A37
S1130AC060E081E00E94350A84EC91E00E94550ABE
S1130AD00E94B506182F2DC00E94B506182F813329
S1130AE029F4CE0108960E94680323C08233E1F4FE
S1130AF00E944D0A88E891E00E94550ACE010196B1
S1130B000E941F030E944D0A87E991E00E94550A42
S1130B10CE0104960E944303BE016C5F7F4FCE0159
S1130B2001960E947D0005C0833319F483E080930D
S1130B301402112389F2FBCE0E944D0A85ED91E047
S1130B400E94550A60E081E00E94350A86EE91E039
S1130B500E94550A0E94B506182F23C00E94B506AC
S1130B60182F843399F40E944D0A88E891E00E947A
S1130B70550ACE0101960E941F030E944D0ABE0130
S1130B806F5F7F4F802F0E947C010BC0853321F45F
S1130B9081E08093140205C0863319F484E08093C5
S1130BA014021123D9F2C3CE0E944D0A84EF91E0BE
S1130BB00E94550A60E081E00E94350A83E092E0D9
S1130BC00E94550A0E94B506182F15C00E94B5064A
S1130BD0182F873329F4CE0109960E94A6030BC06F
S1130BE0883321F481E08093140205C0893319F419
S1130BF085E080931402112349F399CE0E94B5062F
S1130C00182F09C00E94B506182F89850E94FB037E
S1130C1088850E9430041123A9F31092140287CE10
S1130C2061E08BE20E940F0B089561E08BE20E9469
S1130C30980B089560E08BE20E94980B089561E0A0
S1130C408EE20E940F0B61E08CE20E940F0B0E9467
S1130C50150E089561E08CE20E94980B60E08EE22C
S1130C600E94980B08950E94260E08950E94460E35
S1130C7008950E944D0E08950E94210D08951F931A
S1130C80CF93DF93683088F4142FC62FD82F0E9497
S1130C90300D8C2F80650E94440D812F0E946D0DB4
S1130CA08D2F0E946D0D0E949A0DDF91CF911F919F
S1130CB00895CF93DF93C82FD62F0E94300DC065BF
S1130CC08C2F0E94440D8D2F0E946D0D0E948C0D5F
S1130CD08C2F0E94570D0E94850DC82F0E949A0DDB
S1130CE08C2FDF91CF91089561E082E20E940F0B77
S1130CF061E083E20E940F0B61E084E20E940F0B2B
S1130D0061E085E20E940F0B61E082E20E94980B91
S1130D1061E083E20E94980B61E084E20E94980BF8
S1130D2061E085E20E94980B60E08FE00E940F0B67
S1130D3060E080E10E940F0B60E081E10E940F0BF4
S1130D4060E087E10E940F0B60E08FE00E94650C79
S1130D5060E080E10E94650C60E081E10E94650C26
S1130D6060E087E10E94650C0895CF9360E082E221
S1130D700E94980B8FE00E94210C811119C02FEF63
S1130D8086E791E0215080409040E1F700C00000E8
S1130D908FE00E94210C81110DC08FE00E94210C74
S1130DA08823D9F361E082E20E94980BC7E303C071
S1130DB0C0E001C0C0E080E10E94210C811118C094
S1130DC02FEF86E791E0215080409040E1F700C08A
S1130DD0000080E10E94210C81110AC080E10E9480
S1130DE0210C8823D9F361E082E20E94980BC8E3C6
S1130DF081E10E94210C811118C02FEF86E791E058
S1130E00215080409040E1F700C0000081E10E9441
S1130E10210C81110AC081E10E94210C8823D9F39D
S1130E2061E082E20E94980BC9E387E10E94210CF1
S1130E30811118C02FEF86E791E021508040904047
S1130E40E1F700C0000087E10E94210C81110AC073
S1130E5087E10E94210C8823D9F361E082E20E9499
S1130E60980BCFE261E082E20E94980B60E083E29B
S1130E700E94980B8FE00E94210C811118C02FEF63
S1130E8086E791E0215080409040E1F700C00000E7
S1130E908FE00E94210C81110AC08FE00E94210C76
S1130EA08823D9F361E083E20E94980BC4E380E1D4
S1130EB00E94210C811118C02FEF86E791E0215088
S1130EC080409040E1F700C0000080E10E94210CC6
S1130ED081110AC080E10E94210C8823D9F361E0CA
S1130EE083E20E94980BC5E381E10E94210C8111E9
S1130EF018C02FEF86E791E0215080409040E1F741
S1130F0000C0000081E10E94210C81110AC081E12E
S1130F100E94210C8823D9F361E083E20E94980B9C
S1130F20C6E387E10E94210C811118C02FEF86E7E8
S1130F3091E0215080409040E1F700C0000087E13B
S1130F400E94210C81110AC087E10E94210C882390
S1130F50D9F361E083E20E94980BCAE261E083E284
S1130F600E94980B60E084E20E94980B8FE00E943C
S1130F70210C811118C02FEF86E791E021508040A9
S1130F809040E1F700C000008FE00E94210C811125
S1130F900AC08FE00E94210C8823D9F361E084E227
S1130FA00E94980BC1E380E10E94210C811118C0BA
S1130FB02FEF86E791E0215080409040E1F700C098
S1130FC0000080E10E94210C81110AC080E10E948E
S1130FD0210C8823D9F361E084E20E94980BC2E3D8
S1130FE081E10E94210C811118C02FEF86E791E066
S1130FF0215080409040E1F700C0000081E10E9450
S1131000210C81110AC081E10E94210C8823D9F3AB
S113101061E084E20E94980BC3E387E10E94210C03
S1131020811118C02FEF86E791E021508040904055
S1131030E1F700C0000087E10E94210C81110AC081
S113104087E10E94210C8823D9F361E084E20E94A5
S1131050980BCDE261E084E20E94980B60E085E2A7
S11310600E94980B8FE00E94210C811118C02FEF71
S113107086E791E0215080409040E1F700C00000F5
S11310808FE00E94210C81110AC08FE00E94210C84
S11310908823D9F361E085E20E94980BC3E480E1E0
S11310A00E94210C811118C02FEF86E791E0215096
S11310B080409040E1F700C0000080E10E94210CD4
S11310C081110AC080E10E94210C8823D9F361E0D8
S11310D085E20E94980BC0E381E10E94210C8111FA
S11310E018C02FEF86E791E0215080409040E1F74F
S11310F000C0000081E10E94210C81110AC081E13D
S11311000E94210C8823D9F361E085E20E94980BA8
S1131110CDE387E10E94210C811118C02FEF86E7EF
S113112091E0215080409040E1F700C0000087E149
S11311300E94210C81110AC087E10E94210C88239E
S1131140D9F361E085E20E94980BCBE261E085E28D
S11311500E94980B8C2FCF910895CF93C82F61E0F4
S113116084E10E94980B88B38F709C2F907F892B09
S113117088BB61E086E10E94980B8FE99FE00197AC
S1131180F1F700C0000060E086E10E94980B28B3EC
S113119030E1C39FC0011124922F9F70892B88BB1B
S11311A061E086E10E94980B8FE99FE00197F1F7D7
S11311B000C0000060E086E10E94980BCF91089582
S11311C0CF93C82F60E084E10E94980B88B38F709E
S11311D09C2F907F892B88BB61E086E10E94980B4D
S11311E08FE99FE00197F1F700C0000060E086E11D
S11311F00E94980B8FE19EE40197F1F700C0000074
S113120028B330E1C39FC0011124922F9F70892B12
S113121088BB61E086E10E94980B8FE99FE001970B
S1131220F1F700C0000060E086E10E94980B8FE1B6
S11312309EE40197F1F700C00000CF91089561E0AA
S113124088E10E940F0B61E089E10E940F0B61E0CD
S11312508AE10E940F0B61E08BE10E940F0B61E0B9
S113126084E10E940F0B61E085E10E940F0B61E0B5
S113127086E10E940F0B2FEF83ED90E32150804015
S11312809040E1F700C0000083E30E94E00882E39D
S11312900E94E00888E20E94E0088CE00E94E008D6
S11312A081E00E94E00882E00E94E00808953F92F5
S11312B04F925F926F927F928F929F92AF92BF9262
S11312C0CF92DF92EF92FF920F931F93CF93DF930E
S11312D000D000D0CDB7DEB74B015C012DB73EB7CF
S11312E03A832983672B682B692B19F480E30E94C6
S11312F0AD08A8EEB3E0A50194010E94C71028EE42
S113130033E040E050E00E949310672B682B692B78
S113131009F08EC0BB205CF48DE20E94AD08B0944D
S1131320A09490948094811C911CA11CB11C18144D
S113133019041A041B040CF07BC0A5019401312C80
S11313400EC0211531054105510549F0CA01B90105
S11313502AE030E040E050E00E94711033942115FF
S113136031054105510569F78DB79EB79C838B8381
S1131370832D90E0880F991F880F991F2DB73EB7D2
S1131380281B390B0FB6F8943EBF0FBE2DBF0DB707
S11313901EB70F5F1F4F412C512C320120C03FEF6D
S11313A0431A530A630A730AC418D508E608F708EF
S11313B0C501B4012AE030E040E050E00E949310FF
S11313C0CC0CDD1CCC0CDD1CF801EC0DFD1D608388
S11313D0718382839383822E932EA42EB52EC32CE5
S11313E0D12CE12CF12C4C145D046E047F04B8F272
S11313F0812C912C540110C0F401EE0FFF1FEE0F4D
S1131400FF1FE00FF11F8081805D0E94AD088FEF08
S1131410881A980AA80AB80A8C149D04AE04BF045A
S113142058F32B813C810FB6F8943EBF0FBE2DBFFD
S113143089819A810FB6F8949EBF0FBE8DBF0F901D
S11314400F900F900F90DF91CF911F910F91FF900C
S1131450EF90DF90CF90BF90AF909F908F907F9050
S11314606F905F904F903F900895CF93DF9300D09B
S1131470CDB7DEB790E8998390EC9A83E1E0F0E091
S1131480EC0FFD1FE80FF11D8081860F0E94E0081C
S11314900F900F90DF91CF91089581E00E94E008B2
S11314A060E080E00E94350A08950F931F93CF9364
S11314B08C01C0E009C00E94AD08CF5FC03121F4A7
S11314C060E081E00E94350AF801EC0FF11D808193
S11314D08111F1CFCF911F910F91089561E00E9486
S11314E00F0B089561E00E94980B089560E00E943C
S11314F0980B08950E94D60A08950E94020B9C013D
S1131500A4EFB1E00E94B8102FEF33E040E050E0C8
S11315100E947110C9010895823049F0833061F04E
S1131520813071F460E08AE20E940F0B089560E05C
S11315308AE20E940F0B089560E08AE20E940F0B7A
S11315400895823039F0833049F0813059F40E9493
S1131550210C089582E00E94210C089583E00E94EA
S1131560210C089580E0089561E08DE20E940F0B44
S11315700E94A70D82E390E00E94E20D089520E00E
S113158030E040EA50E40E94F00F20E030E044E311
S113159053E40E94C10E20E030E040EA50E40E948F
S11315A0550E0E94BD0D0E94F70D089560E08BE07A
S11315B00E940F0B87B1806487B987B18F7787B991
S11315C087B18F7D87B987B18F7E87B987B1877FD0
S11315D087B987B18B7F87B987B18D7F87B987B189
S11315E08E7F87B986B1846086B986B1826086B9F8
S11315F086B1816086B986B1806886B986B1806219
S113160086B9089586B1806486B9349BFECF24B12F
S113161085B190E0982F8827820F911D08959DEC45
S1131620899F912D1124292F269526952695220FE1
S1131630322F330F330F230F821B282F9695969545
S11316409695662319F06130E1F108959230A9F07E
S113165018F4913031F008959330D9F0943029F191
S113166008953AB381E090E002C0880F991F2A954B
S1131670E2F7809583238ABB089537B381E090E035
S113168002C0880F991F2A95E2F78095832387BBB0
S1131690089534B381E090E002C0880F991F2A9521
S11316A0E2F78095832384BB089531B381E090E011
S11316B002C0880F991F2A95E2F78095832381BB86
S11316C008959230A1F018F4913031F008959330D8
S11316D0C9F0943011F108953AB381E090E002C06A
S11316E0880F991F2A95E2F7832B8ABB089537B395
S11316F081E090E002C0880F991F2A95E2F7832BBE
S113170087BB089534B381E090E002C0880F991F2D
S11317102A95E2F7832B84BB089531B381E090E0EE
S113172002C0880F991F2A95E2F7832B81BB089585
S11317309DEC899F912D1124292F26952695269578
S1131740220F322F330F330F230F821B282F96952E
S113175096959695662319F06130E1F108959230DB
S1131760A9F018F4913031F008959330D9F0943001
S113177029F108953BB381E090E002C0880F991FDE
S11317802A95E2F7809583238BBB089538B381E0D3
S113179090E002C0880F991F2A95E2F78095832371
S11317A088BB089535B381E090E002C0880F991F8B
S11317B02A95E2F78095832385BB089532B381E0AF
S11317C090E002C0880F991F2A95E2F78095832341
S11317D082BB08959230A1F018F4913031F008954D
S11317E09330C9F0943011F108953BB381E090E057
S11317F002C0880F991F2A95E2F7832B8BBB0895AB
S113180038B381E090E002C0880F991F2A95E2F76F
S1131810832B88BB089535B381E090E002C0880F24
S1131820991F2A95E2F7832B85BB089532B381E093
S113183090E002C0880F991F2A95E2F7832B82BBA0
S113184008959DEC899F912D1124292F2695269585
S11318502695220F322F330F330F230F821B282F8D
S1131860892F869586958695823091F018F481307B
S113187031F029C08330A9F08430E1F024C089B369
S113188090E002C0959587952A95E2F781700895B6
S113189086B390E002C0959587952A95E2F781700A
S11318A0089583B390E002C0959587952A95E2F751
S11318B08170089580B390E002C0959587952A952C
S11318C0E2F78170089580E008959DEC899F912D41
S11318D01124292F269526952695220F322F330F72
S11318E0330F230F821B282F969596959695662382
S11318F0F1F1613009F071C09230A9F018F491301F
S113190031F008959330D9F0943029F108953BB320
S113191081E090E002C0880F991F2A95E2F7809534
S113192083238BBB089538B381E090E002C0880F15
S1131930991F2A95E2F78095832388BB089535B3D0
S113194081E090E002C0880F991F2A95E2F7809504
S1131950832385BB089532B381E090E002C0880FF1
S1131960991F2A95E2F78095832382BB08959230CC
S1131970A1F018F4913031F008959330C9F0943007
S113198011F108953BB381E090E002C0880F991FE4
S11319902A95E2F7832B8BBB089538B381E090E05E
S11319A002C0880F991F2A95E2F7832B88BB0895FC
S11319B035B381E090E002C0880F991F2A95E2F7C1
S11319C0832B85BB089532B381E090E002C0880F79
S11319D0991F2A95E2F7832B82BB0895863029F05C
S11319E0873051F0853091F40EC095B7916095BF62
S11319F095B7926095BF0AC095B7946095BF95B7A7
S1131A00986095BF03C094B7906494BF863029F062
S1131A10873039F0853061F408C08BB780648BBFA0
S1131A2007C08BB780688BBF03C08BB780628BBF46
S1131A308FB780688FBF0895909316028093150224
S1131A40089586B78B7F86BF8CE080B986B78460A3
S1131A5086BF8FE39CE90197F1F700C00000089569
S1131A6086B7806286BF86B7806886BF06B607FEE3
S1131A70FDCF81B1887F8830E1F78FE39CE901973E
S1131A80F1F700C000000895880F83B986B7806815
S1131A9086BF06B607FEFDCF81B1887F8831E1F7A6
S1131AA08FE39CE90197F1F700C00000089590E0EE
S1131AB0880F991F816083B986B7806886BF06B690
S1131AC007FEFDCF81B1887F8034E1F78FE39CE985
S1131AD00197F1F700C00000089583B986B78F7DA0
S1131AE086BF86B7806886BF06B607FEFDCF81B184
S1131AF0887F8832E1F72FEF81EE94E02150804017
S1131B009040E1F700C00000089584E886BF06B65F
S1131B1007FEFDCF83B1089586B7806286BF86B77E
S1131B20806886BF06B607FEFDCF81B1887F80310D
S1131B30E1F7089586B7806186BF86B7806886BF5F
S1131B408FE99FE00197F1F700C00000089581B389
S1131B50806281BB8FB580688FBD8FB58F7B8FBD51
S1131B608EB580618EBD8EB588608EBD8FB5826066
S1131B708FBD8FB58E7F8FBD0895CF92DF92EF9288
S1131B80FF926B017C0166B577B580E090E00E941E
S1131B90620FA70196010E94F00F20E030E048ECAC
S1131BA052E40E94C10E20E030E040E85FE30E946E
S1131BB0540E0E94330F7BBD6ABDFF90EF90DF90FF
S1131BC0CF900895002496958795079496958795C8
S1131BD00794982F802D9C0140E050E060E074E26F
S1131BE084EF90E00E94931037BD26BD08958EB512
S1131BF08B7F8EBD8EB582608EBD8EB581608EBDAD
S1131C00089585B5846085BD85B5826085BD85B53B
S1131C10816085BD089585B58B7F85BD85B58D7F34
S1131C2085BD85B58E7F85BD089561E08FE20E94F4
S1131C300F0B85B5886085BD85B5806485BD85B588
S1131C40806285BD85B58F7E85BD089581110FC0E5
S1131C5095B5906295BD95B5906195BD982F80E03E
S1131C6064E670E00E945D10609563BD089595B5CB
S1131C70906295BD95B59F7E95BD982F80E064E6F2
S1131C8070E00E945D10615063BD08950E94010ED2
S1131C9061E08FE20E940F0B08950E940B0E60E03A
S1131CA08FE20E940F0B08955058BB27AA270E9469
S1131CB06C0E0C94B60F0E94A80F38F00E94AF0F60
S1131CC020F039F49F3F19F426F40C94A50F0EF478
S1131CD0E095E7FB0C949F0FE92F0E94C70F58F380
S1131CE0BA17620773078407950720F079F4A6F5FD
S1131CF00C94E90F0EF4E0950B2EBA2FA02D0B01D6
S1131D00B90190010C01CA01A0011124FF27591B3C
S1131D1099F0593F50F4503E68F11A16F040A22F42
S1131D20232F342F4427585FF3CF469537952795B3
S1131D30A795F0405395C9F77EF41F16BA0B620BB2
S1131D40730B840BBAF09150A1F0FF0FBB1F661FF9
S1131D50771F881FC2F70EC0BA0F621F731F841F3C
S1131D6048F4879577956795B795F7959E3F08F062
S1131D70B0CF9395880F08F09927EE0F9795879524
S1131D8008950E94D50E0C94B60F0E94AF0F58F020
S1131D900E94A80F40F029F45F3F29F00C949F0F94
S1131DA051110C94EA0F0C94A50F0E94C70F68F30D
S1131DB09923B1F3552391F3951B550BBB27AA2700
S1131DC062177307840738F09F5F5F4F220F331F3A
S1131DD0441FAA1FA9F335D00E2E3AF0E0E832D002
S1131DE091505040E695001CCAF72BD0FE2F29D005
S1131DF0660F771F881FBB1F261737074807AB07D7
S1131E00B0E809F0BB0B802DBF01FF2793585F4F4B
S1131E103AF09E3F510578F00C949F0F0C94EA0F12
S1131E205F3FE4F3983ED4F3869577956795B7952D
S1131E30F7959F5FC9F7880F911D9695879597F938
S1131E400895E1E0660F771F881FBB1F62177307B1
S1131E508407BA0720F0621B730B840BBA0BEE1FC6
S1131E6088F7E09508950E94CF0F88F09F5798F067
S1131E70B92F9927B751B0F0E1F0660F771F881F8B
S1131E80991F1AF0BA95C9F714C0B13091F00E94A5
S1131E90E90FB1E008950C94E90F672F782F882794
S1131EA0B85F39F0B93FCCF3869577956795B395CC
S1131EB0D9F73EF490958095709561957F4F8F4F3B
S1131EC09F4F0895E89409C097FB3EF49095809540
S1131ED0709561957F4F8F4F9F4F9923A9F0F92FEC
S1131EE096E9BB279395F695879577956795B7956A
S1131EF0F111F8CFFAF4BB0F11F460FF1BC06F5F50
S1131F007F4F8F4F9F4F16C0882311F096E911C061
S1131F10772321F09EE8872F762F05C0662371F082
S1131F2096E8862F70E060E02AF09A95660F771F96
S1131F30881FDAF7880F9695879597F9089597F98A
S1131F409F6780E870E060E008959FEF80EC08955B
S1131F5000240A9416161706180609060895002484
S1131F600A9412161306140605060895092E0394FE
S1131F70000C11F4882352F0BB0F40F4BF2B11F472
S1131F8060FF04C06F5F7F4F8F4F9F4F089557FDD1
S1131F909058440F551F59F05F3F71F04795880FD3
S1131FA097FB991F61F09F3F79F08795089512166A
S1131FB013061406551FF2CF4695F1DF08C0161616
S1131FC017061806991FF1CF8695710561050894C7
S1131FD00895E894BB2766277727CB0197F90895DE
S1131FE00E9403100C94B60F0E94A80F38F00E94B0
S1131FF0AF0F20F0952311F00C949F0F0C94A50FB4
S113200011240C94EA0F0E94C70F70F3959FC1F33B
S1132010950F50E0551F629FF001729FBB27F00D92
S1132020B11D639FAA27F00DB11DAA1F649F6627E7
S1132030B00DA11D661F829F2227B00DA11D621F36
S1132040739FB00DA11D621F839FA00D611D221FF0
S1132050749F3327A00D611D231F849F600D211DD4
S1132060822F762F6A2F11249F5750409AF0F1F057
S113207088234AF0EE0FFF1FBB1F661F771F881FC0
S113208091505040A9F79E3F510580F00C949F0F4A
S11320900C94EA0F5F3FE4F3983ED4F3869577956A
S11320A06795B795F795E7959F5FC1F7FE2B880F66
S11320B0911D9695879597F9089597FB072E16F429
S11320C0009407D077FD09D00E94D21007FC05D0F8
S11320D03EF4909581959F4F0895709561957F4F3B
S11320E00895A1E21A2EAA1BBB1BFD010DC0AA1F55
S11320F0BB1FEE1FFF1FA217B307E407F50720F06D
S1132100A21BB30BE40BF50B661F771F881F991FE7
S11321101A9469F760957095809590959B01AC0130
S1132120BD01CF010895052E97FB1EF400940E9473
S1132130AA1057FD07D00E94711007FC03D04EF47B
S11321400C94AA1050954095309521953F4F4F4FD0
S11321505F4F089590958095709561957F4F8F4F4F
S11321609F4F0895EE0FFF1F0590F491E02D099401
S1132170A29FB001B39FC001A39F700D811D1124C4
S1132180911DB29F700D811D1124911D08950E940F
S1132190B810A59F900DB49F900DA49F800D911D24
S11321A011240895AA1BBB1B51E107C0AA1FBB1F22
S11321B0A617B70710F0A61BB70B881F991F5A95CF
S11321C0A9F780959095BC01CD010895F894FFCFAF
S11321D0496E76616C696420557365726E616D65D4
S11321E00056616C696420456E747279005573659C
S11321F072204164646564004E6F206F66205573DD
S1132200657273200052656163686564206D61784E
S1132210004E756D626572204F662055736572734A
S11322200056616C696420557365726E616D65005A
S11322304C6F67696E205375636365737366756C61
S113224000496E76616C69642050617373776F72B4
S113225064004F722050617373776F726400546826
S1132260657265206973206E6F20757365727300E3
S113227061646465642079657400446F6F722049F9
S113228073204F70656E656400446F6F72204973EC
S113229020436C6F7365640057656C636F6D6520D4
S11322A0746F20536D61727400486F6D65205072B5
S11322B06F6A656374004143204F70656E65640006
S11322C0414320436C6F73656400202020205765D0
S11322D06C636F6D65202020202000313A41646DCD
S11322E0696E20323A557365720057656C636F6D81
S11322F0652041646D696E00456E74657220557386
S113230065726E616D6500456E746572205061730F
S113231073776F72640057656C636F6D65205573D6
S113232065720020313A53776974636820446F6F93
S113233072202000323A4164645573657220333A46
S11323404E6578740020343A52656D6F7665205579
S1132350736572202000353A4261636B20363A4E31
S11323606578740020373A53776974636820414371
S1132370202000383A3173745061676520393A443B
S10723806F6E650013
S9030000FC
