S0110000536D617274486F6D652E7372656383
S11300000C942A000C9447000C9447000C9447006D
S11300100C9447000C9447000C9447000C94470040
S11300200C9447000C9447000C9447000C94470030
S11300300C9447000C9447000C9447000C94470020
S11300400C9447000C9447000C9447000C94470010
S11300500C94470011241FBECFE5D8E0DEBFCDBF0E
S113006011E0A0E6B0E0E0E7F6E102C005900D92F1
S1130070A43AB107D9F721E0A4EAB1E001C01D9286
S1130080A73AB207E1F70E9434010C94360B0C94A2
S113009000000895EF92FF920F931F93CF93DF9385
S11300A07C018B010E944B05C0E0D0E00DC065E6E9
S11300B06C0F80E00E943502F701EC0FF11D908176
S11300C0891301C0DF5FCF5FC33088F3C0E0F12C38
S11300D00DC068E66C0F80E00E943502F801EC0F59
S11300E0F11D9081891301C0F394CF5FC43088F36C
S11300F0D33049F424E0F21206C08FEB90E00E9462
S11301005305C0E02CC084E0F81208C0D33031F0AD
S113011080E690E00E945305C1E021C0D33049F449
S113012094E0F91631F080ED90E00E945305C1E0AF
S113013016C0D33089F024E0F21681F080E690E016
S11301400E94530560E081E00E94330580ED90E059
S11301500E945305C1E003C0C0E001C0C0E08FEFBE
S113016095EA2EE0815090402040E1F700C0000065
S11301700E944B058FEF95EA2EE08150904020407D
S1130180E1F700C000008C2FDF91CF911F910F91F8
S1130190FF90EF9008950F931F93CF938C0160E02D
S11301A081E00E943305C0E00BC00E9491028823C5
S11301B039F0F801EC0FF11D80830E948904CF5FB0
S11301C0C33098F32FEF85EA9EE0215080409040A1
S11301D0E1F700C00000CF911F910F9108950F9394
S11301E01F93CF938C0160E081E00E943305C0E04F
S11301F00CC00E949102882341F0F801EC0FF11D1C
S113020080838AE20E948904CF5FC43090F32FEF89
S113021085EA9EE0215080409040E1F700C0000054
S1130220CF911F910F9108950E944B0587E291E0B1
S11302300E94530560E081E00E94330588E391E069
S11302400E9453052FEF87EA91E6215080409040A9
S1130250E1F700C000000E944B05089560E070E0E3
S1130260CB010E94A6050895CF93DF93CDB7DEB7E7
S113027027970FB6F894DEBF0FBECDBF0E94FB04D4
S11302800E9450020E9432020E9427020E947005BE
S11302900E949B0582E00E946C0583E00E946C052D
S11302A00E94180281E00E94730586E00E94C8073C
S11302B089E490E00E94F60764E680E00E9435023B
S11302C019821A821B821C821D821E821F8210E0E8
S11302D08091A401803381F018F4882339F0F8CF99
S11302E0813359F1823309F481C0F2CF0E941401A1
S11302F080E38093A401ECCF0E944B0585E491E058
S11303000E94530560E081E00E94330586E591E098
S11303100E9453050E9491020DC00E9491028133F4
S113032021F491E39093A40105C0823319F492E37C
S11303309093A401882389F3CBCF0E944B0585E6D3
S113034091E00E9453052FEF83ED90E3215080400C
S11303509040E1F700C000000E944B0543C083E7D2
S113036091E00E945305CE0101960E94CB000E94A9
S11303704B0582E891E00E945305CE0104960E9449
S1130380EF00BE016C5F7F4FCE0101960E944A00D0
S1130390811103C01092A4019BCF1F5F0E941D0214
S11303A00E942E0181E00E94880583E00E94880556
S11303B08130D9F72FEF87EE93E0215080409040B1
S11303C0E1F700C0000083E00E948805813069F7EE
S11303D00E9422021092A4010E94220281E991E06B
S11303E00E945305133008F4BACF72CF0E944B0514
S11303F087E991E00E9453052FEF83ED90E32150AC
S113040080409040E1F700C000000E944B0583E764
S113041091E00E945305CE0101960E94EF0082E80C
S113042091E00E945305CE0104960E94EF0050CF44
S113043061E08BE20E94E905089561E08BE20E948D
S11304407206089560E08BE20E947206089561E0EE
S11304508EE20E94E90561E08CE20E94E9050E94B7
S1130460DB0808950E94FB070895CF93DF93C82FFC
S1130470D62F0E940A08C0658C2F0E941E088D2F5B
S11304800E9447080E9466088C2F0E9431080E942F
S11304905F08C82F0E9474088C2FDF91CF910895B4
S11304A061E082E20E94E90561E083E20E94E905DD
S11304B061E084E20E94E90561E085E20E94E905C9
S11304C061E082E20E94720661E083E20E947206A9
S11304D061E084E20E94720661E085E20E94720695
S11304E060E08FE00E94E90560E080E10E94E90598
S11304F060E081E10E94E90560E087E10E94E9058E
S113050060E08FE00E943F0760E080E10E943F07C7
S113051060E081E10E943F0760E087E10E943F07BD
S11305200895CF9360E082E20E9472068FE00E94F9
S1130530FB06811119C02FEF86E791E0215080401E
S11305409040E1F700C000008FE00E94FB0681119B
S11305500DC08FE00E94FB068823D9F361E082E29C
S11305600E947206C7E303C0C0E001C0C0E080E19E
S11305700E94FB06811118C02FEF86E791E02150FD
S113058080409040E1F700C0000080E10E94FB063B
S113059081110AC080E10E94FB068823D9F361E03F
S11305A082E20E947206C8E381E10E94FB06811187
S11305B018C02FEF86E791E0215080409040E1F78A
S11305C000C0000081E10E94FB0681110AC081E1A4
S11305D00E94FB068823D9F361E082E20E9472063E
S11305E0C9E387E10E94FB06811118C02FEF86E75B
S11305F091E0215080409040E1F700C0000087E185
S11306000E94FB0681110AC087E10E94FB06882331
S1130610D9F361E082E20E947206CFE261E082E2F5
S11306200E94720660E083E20E9472068FE00E94DC
S1130630FB06811118C02FEF86E791E0215080401E
S11306409040E1F700C000008FE00E94FB0681119A
S11306500AC08FE00E94FB068823D9F361E083E29D
S11306600E947206C4E380E10E94FB06811118C057
S11306702FEF86E791E0215080409040E1F700C0E1
S1130680000080E10E94FB0681110AC080E10E9403
S1130690FB068823D9F361E083E20E947206C5E376
S11306A081E10E94FB06811118C02FEF86E791E0DB
S11306B0215080409040E1F700C0000081E10E9499
S11306C0FB0681110AC081E10E94FB068823D9F34D
S11306D061E083E20E947206C6E387E10E94FB06A2
S11306E0811118C02FEF86E791E02150804090409F
S11306F0E1F700C0000087E10E94FB0681110AC0F7
S113070087E10E94FB068823D9F361E083E20E941B
S11307107206CAE261E083E20E94720660E084E24B
S11307200E9472068FE00E94FB06811118C02FEF11
S113073086E791E0215080409040E1F700C000003E
S11307408FE00E94FB0681110AC08FE00E94FB0625
S11307508823D9F361E084E20E947206C1E380E158
S11307600E94FB06811118C02FEF86E791E021500B
S113077080409040E1F700C0000080E10E94FB0649
S113078081110AC080E10E94FB068823D9F361E04D
S113079084E20E947206C2E381E10E94FB06811199
S11307A018C02FEF86E791E0215080409040E1F798
S11307B000C0000081E10E94FB0681110AC081E1B2
S11307C00E94FB068823D9F361E084E20E9472064A
S11307D0C3E387E10E94FB06811118C02FEF86E76F
S11307E091E0215080409040E1F700C0000087E193
S11307F00E94FB0681110AC087E10E94FB06882340
S1130800D9F361E084E20E947206CDE261E084E201
S11308100E94720660E085E20E9472068FE00E94E8
S1130820FB06811118C02FEF86E791E0215080402C
S11308309040E1F700C000008FE00E94FB068111A8
S11308400AC08FE00E94FB068823D9F361E085E2A9
S11308500E947206C3E480E10E94FB06811118C065
S11308602FEF86E791E0215080409040E1F700C0EF
S1130870000080E10E94FB0681110AC080E10E9411
S1130880FB068823D9F361E085E20E947206C0E387
S113089081E10E94FB06811118C02FEF86E791E0E9
S11308A0215080409040E1F700C0000081E10E94A7
S11308B0FB0681110AC081E10E94FB068823D9F35B
S11308C061E085E20E947206CDE387E10E94FB06A7
S11308D0811118C02FEF86E791E0215080409040AD
S11308E0E1F700C0000087E10E94FB0681110AC005
S11308F087E10E94FB068823D9F361E085E20E9428
S11309007206CBE261E085E20E9472068C2FCF91E1
S11309100895CF93C82F61E084E10E94720688B3E2
S11309208F709C2F907F892B88BB61E086E10E94A9
S113093072068FE99FE00197F1F700C0000060E0C4
S113094086E10E94720628B330E1C39FC0011124DE
S1130950922F9F70892B88BB61E086E10E9472060A
S11309608FE99FE00197F1F700C0000060E086E1A5
S11309700E947206CF910895CF93C82F60E084E15E
S11309800E94720688B38F709C2F907F892B88BB3E
S113099061E086E10E9472068FE99FE00197F1F71A
S11309A000C0000060E086E10E9472068FE19EE4D0
S11309B00197F1F700C0000028B330E1C39FC001E4
S11309C01124922F9F70892B88BB61E086E10E94DD
S11309D072068FE99FE00197F1F700C0000060E024
S11309E086E10E9472068FE19EE40197F1F700C050
S11309F00000CF91089561E088E10E94E90561E07B
S1130A0089E10E94E90561E08AE10E94E90561E06B
S1130A108BE10E94E90561E084E10E94E90561E05F
S1130A2085E10E94E90561E086E10E94E9052FEF76
S1130A3083ED90E3215080409040E1F700C0000036
S1130A4083E30E94BC0482E30E94BC0488E20E9407
S1130A50BC048CE00E94BC0481E00E94BC0482E0DF
S1130A600E94BC040895CF93DF9300D0CDB7DEB7C6
S1130A7090E8998390EC9A83E1E0F0E0EC0FFD1F9D
S1130A80E80FF11D8081860F0E94BC040F900F9027
S1130A90DF91CF91089581E00E94BC0460E080E082
S1130AA00E94330508950F931F93CF938C01C0E0E8
S1130AB009C00E948904CF5FC03121F460E081E065
S1130AC00E943305F801EC0FF11D80818111F1CFF3
S1130AD0CF911F910F91089561E00E94E905089557
S1130AE00E94BD050895823049F0833061F0813061
S1130AF071F460E08AE20E94E905089560E08AE208
S1130B000E94E905089560E08AE20E94E9050895DB
S1130B10823039F0833049F0813059F40E94FB0669
S1130B20089582E00E94FB06089583E00E94FB067C
S1130B30089580E0089561E08DE20E94E9050E9435
S1130B40810882E390E00E94BC08089520E030E030
S1130B5040EA50E40E94880A20E030E044E353E491
S1130B600E94590920E030E040EA50E40E94ED0878
S1130B700E9497080E94D108089560E08BE00E94CB
S1130B80E90587B1806487B987B18F7787B987B161
S1130B908F7D87B987B18F7E87B987B1877F87B902
S1130BA087B18B7F87B987B18D7F87B987B18E7FF6
S1130BB087B986B1846086B986B1826086B986B108
S1130BC0816086B986B1806886B986B1806286B94B
S1130BD008959DEC899F912D1124292F2695269502
S1130BE02695220F322F330F330F230F821B282F0A
S1130BF0969596959695662319F06130E1F10895DE
S1130C009230A9F018F4913031F008959330D9F06E
S1130C10943029F108953AB381E090E002C0880F3E
S1130C20991F2A95E2F7809583238ABB089537B3E9
S1130C3081E090E002C0880F991F2A95E2F7809521
S1130C40832387BB089534B381E090E002C0880F0A
S1130C50991F2A95E2F78095832384BB089531B3C5
S1130C6081E090E002C0880F991F2A95E2F78095F1
S1130C70832381BB08959230A1F018F4913031F0B0
S1130C8008959330C9F0943011F108953AB381E096
S1130C9090E002C0880F991F2A95E2F7832B8ABB44
S1130CA0089537B381E090E002C0880F991F2A9518
S1130CB0E2F7832B87BB089534B381E090E002C050
S1130CC0880F991F2A95E2F7832B84BB089531B3CB
S1130CD081E090E002C0880F991F2A95E2F7832BE8
S1130CE081BB08959DEC899F912D1124292F269570
S1130CF026952695220F322F330F330F230F821B95
S1130D00282F969596959695662319F06130E1F112
S1130D1008959230A9F018F4913031F00895933089
S1130D20D9F0943029F108953BB381E090E002C0FA
S1130D30880F991F2A95E2F7809583238BBB08952A
S1130D4038B381E090E002C0880F991F2A95E2F73A
S1130D508095832388BB089535B381E090E002C079
S1130D60880F991F2A95E2F78095832385BB089500
S1130D7032B381E090E002C0880F991F2A95E2F710
S1130D808095832382BB08959230A1F018F49130AA
S1130D9031F008959330C9F0943011F108953BB3C4
S1130DA081E090E002C0880F991F2A95E2F7832B17
S1130DB08BBB089538B381E090E002C0880F991F7F
S1130DC02A95E2F7832B88BB089535B381E090E040
S1130DD002C0880F991F2A95E2F7832B85BB0895DB
S1130DE032B381E090E002C0880F991F2A95E2F7A0
S1130DF0832B82BB08959DEC899F912D1124292F6B
S1130E00269526952695220F322F330F330F230F65
S1130E10821B282F892F869586958695823091F09E
S1130E2018F4813031F029C08330A9F08430E1F026
S1130E3024C089B390E002C0959587952A95E2F77E
S1130E408170089586B390E002C0959587952A95A0
S1130E50E2F78170089583B390E002C09595879579
S1130E602A95E2F78170089580B390E002C09595C9
S1130E7087952A95E2F78170089580E008959DECA6
S1130E80899F912D1124292F269526952695220F89
S1130E90322F330F330F230F821B282F96959695ED
S1130EA096956623F1F1613009F071C09230A9F092
S1130EB018F4913031F008959330D9F0943029F139
S1130EC008953BB381E090E002C0880F991F2A95F2
S1130ED0E2F7809583238BBB089538B381E090E0DB
S1130EE002C0880F991F2A95E2F78095832388BB57
S1130EF0089535B381E090E002C0880F991F2A95C8
S1130F00E2F78095832385BB089532B381E090E0B6
S1130F1002C0880F991F2A95E2F78095832382BB2C
S1130F2008959230A1F018F4913031F0089593307F
S1130F30C9F0943011F108953BB381E090E002C010
S1130F40880F991F2A95E2F7832B8BBB089538B33A
S1130F5081E090E002C0880F991F2A95E2F7832B65
S1130F6088BB089535B381E090E002C0880F991FD3
S1130F702A95E2F7832B85BB089532B381E090E094
S1130F8002C0880F991F2A95E2F7832B82BB08952C
S1130F90863029F0873051F0853091F40EC095B732
S1130FA0916095BF95B7926095BF0AC095B794605C
S1130FB095BF95B7986095BF03C094B7906494BFEC
S1130FC0863029F0873039F0853061F408C08BB75A
S1130FD080648BBF07C08BB780688BBF03C08BB79F
S1130FE080628BBF8FB780688FBF08959093A601EE
S1130FF08093A501089586B78B7F86BF8CE080B966
S113100086B7846086BF8FE39CE90197F1F700C03F
S11310100000089586B7806286BF86B7806886BF61
S113102006B607FEFDCF81B1887F8830E1F78FE3F4
S11310309CE90197F1F700C000000895880F83B977
S113104086B7806886BF06B607FEFDCF81B1887F6C
S11310508831E1F78FE39CE90197F1F700C00000C4
S1131060089590E0880F991F816083B986B78068DE
S113107086BF06B607FEFDCF81B1887F8034E1F7D5
S11310808FE39CE90197F1F700C00000089583B94C
S113109086B78F7D86BF86B7806886BF06B607FE93
S11310A0FDCF81B1887F8832E1F72FEF81EE94E0A4
S11310B0215080409040E1F700C00000089584E88A
S11310C086BF06B607FEFDCF83B1089586B780625A
S11310D086BF86B7806886BF06B607FEFDCF81B19E
S11310E0887F8031E1F7089586B7806186BF86B72F
S11310F0806886BF8FE99FE00197F1F700C0000088
S1131100089581B3806281BB8FB580688FBD8FB530
S11311108F7B8FBD8EB580618EBD8EB588608EBD90
S11311208FB582608FBD8FB58E7F8FBD0895CF92AE
S1131130DF92EF92FF926B017C0166B577B580E098
S113114090E00E94FA09A70196010E94880A20E013
S113115030E048EC52E40E94590920E030E040E8D5
S11311605FE30E94EC080E94CB097BBD6ABDFF903F
S1131170EF90DF90CF90089500249695879507947B
S1131180969587950794982F802D9C0140E050E018
S113119060E074E284EF90E00E94170B37BD26BD37
S11311A008958EB58B7F8EBD8EB582608EBD8EB553
S11311B081608EBD089561E08FE20E94E90585B5E6
S11311C0886085BD85B5806485BD85B5806285BD33
S11311D085B58F7E85BD08955058BB27AA270E94E8
S11311E004090C944E0A0E94400A38F00E94470AEF
S11311F020F039F49F3F19F426F40C943D0A0EF4C0
S1131200E095E7FB0C94370AE92F0E945F0A58F334
S1131210BA17620773078407950720F079F4A6F5D7
S11312200C94810A0EF4E0950B2EBA2FA02D0B011D
S1131230B90190010C01CA01A0011124FF27591B17
S113124099F0593F50F4503E68F11A16F040A22F1D
S1131250232F342F4427585FF3CF4695379527958E
S1131260A795F0405395C9F77EF41F16BA0B620B8D
S1131270730B840BBAF09150A1F0FF0FBB1F661FD4
S1131280771F881FC2F70EC0BA0F621F731F841F17
S113129048F4879577956795B795F7959E3F08F03D
S11312A0B0CF9395880F08F09927EE0F97958795FF
S11312B008950E946D090C944E0A0E94470A58F042
S11312C00E94400A40F029F45F3F29F00C94370A49
S11312D051110C94820A0C943D0A0E945F0A68F32F
S11312E09923B1F3552391F3951B550BBB27AA27DB
S11312F062177307840738F09F5F5F4F220F331F15
S1131300441FAA1FA9F335D00E2E3AF0E0E832D0DC
S113131091505040E695001CCAF72BD0FE2F29D0DF
S1131320660F771F881FBB1F261737074807AB07B1
S1131330B0E809F0BB0B802DBF01FF2793585F4F26
S11313403AF09E3F510578F00C94370A0C94820AC7
S11313505F3FE4F3983ED4F3869577956795B79508
S1131360F7959F5FC9F7880F911D9695879597F913
S11313700895E1E0660F771F881FBB1F621773078C
S11313808407BA0720F0621B730B840BBA0BEE1FA1
S113139088F7E09508950E94670A88F09F5798F0AF
S11313A0B92F9927B751B0F0E1F0660F771F881F66
S11313B0991F1AF0BA95C9F714C0B13091F00E9480
S11313C0810AB1E008950C94810A672F782F882749
S11313D0B85F39F0B93FCCF3869577956795B395A7
S11313E0D9F73EF490958095709561957F4F8F4F16
S11313F09F4F0895E89409C097FB3EF4909580951B
S1131400709561957F4F8F4F9F4F9923A9F0F92FC6
S113141096E9BB279395F695879577956795B79544
S1131420F111F8CFFAF4BB0F11F460FF1BC06F5F2A
S11314307F4F8F4F9F4F16C0882311F096E911C03C
S1131440772321F09EE8872F762F05C0662371F05D
S113145096E8862F70E060E02AF09A95660F771F71
S1131460881FDAF7880F9695879597F9089597F965
S11314709F6780E870E060E008959FEF80EC089536
S113148000240A941616170618060906089500245F
S11314900A9412161306140605060895092E0394D9
S11314A0000C11F4882352F0BB0F40F4BF2B11F44D
S11314B060FF04C06F5F7F4F8F4F9F4F089557FDAC
S11314C09058440F551F59F05F3F71F04795880FAE
S11314D097FB991F61F09F3F79F087950895121645
S11314E013061406551FF2CF4695F1DF08C01616F1
S11314F017061806991FF1CF8695710561050894A2
S11315000895E894BB2766277727CB0197F90895B8
S11315100E949B0A0C944E0A0E94400A38F00E94D2
S1131520470A20F0952311F00C94370A0C943D0AD5
S113153011240C94820A0E945F0A70F3959FC1F3F0
S1131540950F50E0551F629FF001729FBB27F00D6D
S1131550B11D639FAA27F00DB11DAA1F649F6627C2
S1131560B00DA11D661F829F2227B00DA11D621F11
S1131570739FB00DA11D621F839FA00D611D221FCB
S1131580749F3327A00D611D231F849F600D211DAF
S1131590822F762F6A2F11249F5750409AF0F1F032
S11315A088234AF0EE0FFF1FBB1F661F771F881F9B
S11315B091505040A9F79E3F510580F00C94370A92
S11315C00C94820A5F3FE4F3983ED4F386957795B2
S11315D06795B795F795E7959F5FC1F7FE2B880F41
S11315E0911D9695879597F90895A1E21A2EAA1B45
S11315F0BB1BFD010DC0AA1FBB1FEE1FFF1FA217BF
S1131600B307E407F50720F0A21BB30BE40BF50BBB
S1131610661F771F881F991F1A9469F76095709544
S1131620809590959B01AC01BD01CF010895052ED5
S113163097FB1EF400940E942E0B57FD07D00E94C6
S1131640F50A07FC03D04EF40C942E0B50954095EC
S1131650309521953F4F4F4F5F4F0895909580955A
S1131660709561957F4F8F4F9F4F0895F894FFCFEA
S1131670496E76616C696420557365726E616D653F
S11316800056616C696420456E7472790055736507
S113169072204164646564004E6F206F6620557348
S11316A06572730052656163686564206D617800DA
S11316B04E756D626572204F6620557365727300B6
S11316C056616C696420557365726E616D65004C7A
S11316D06F67696E205375636365737366756C0019
S11316E0496E76616C69642050617373776F7264BC
S11316F0004F722050617373776F72640054686591
S11317007265206973206E6F207573657273006152
S1131710646465642079657400446F6F7220497352
S1131720204F70656E656400446F6F7220497320AA
S1131730436C6F7365640057656C636F6D652074EB
S11317406F20536D61727400486F6D652050726F25
S11317506A656374002020202057656C636F6D6593
S1131760202020202000313A41646D696E20323AF5
S1131770557365720057656C636F6D652041646DC8
S1131780696E00456E74657220557365726E616D85
S11317906500456E7465722050617373776F72646F
S11317A00046697865640057656C636F6D65205504
S10717B073657200E7
S9030000FC
