S0110000536D617274486F6D652E7372656383
S11300000C945D000C947A000C947A000C947A00A1
S11300100C947A000C947A000C947A000C947A0074
S11300200C947A000C947A000C947A000C947A0064
S11300300C947A000C947A000C947A000C947A0054
S11300400C947A000C947A000C947A000C947A0044
S11300500C947A00B00491054706D3050B063506C7
S1130060A404A404A404A404A404A404A404A4044C
S1130070A404A404A404A404A404A404A404A4043C
S1130080A404A404A404A404A404A404A404A4042C
S1130090A404A404A404A404A404A404A404A4041C
S11300A0A404A404A404A404A404A404A404A4040C
S11300B0A404A404B604D7042F0511241FBECFE55D
S11300C0D8E0DEBFCDBF12E0A0E6B0E0E0E0F2E2AF
S11300D002C005900D92A233B107D9F722E0A2E342
S11300E0B2E001C01D92A333B207E1F70E94740489
S11300F00C94FE100C940000AF92BF92CF92DF924A
S1130100EF92FF920F931F93CF93DF938C017B01A8
S113011064E680E00E94B406B82E29E0281708F4AB
S1130120C8C081112FC06CC0DD2DDD0FDD0FDD0FC8
S1130130DD190F2EF3E0CF2EF02DC0E00DC06C2F93
S11301406D0F80E00E94B406F801EC0FF11D908160
S1130150891301C0CA94CF5FC33088F3C11010C0A3
S1130160A3940E94A80A80E690E00E94B00A8FEF50
S113017099E628E1815090402040E1F700C000005A
S1130180D39402C0A12CD12CDB1470F2A110A8C00E
S11301900E94A80A81E790E00E94B00A8FEF99E6D6
S11301A028E1815090402040E1F700C00000DB2DA1
S11301B0DD0FDD0FDD0FDB19C0E00AC04C2F4D0F42
S11301C0F801EC0FF11D60E080810E949A06CF5F78
S11301D0C330A0F3C0E00BC04C2F4D0F4D5FF701AF
S11301E0EC0FF11D60E080810E949A06CF5FC4305D
S11301F098F344E660E081E08B0D0E949A0670C09B
S11302000E94A80A81E790E00E94B00A8FEF99E665
S113021028E1815090402040E1F700C00000DB2D30
S1130220DD0FDD0FDD0FDB19C0E00AC04C2F4D0FD1
S1130230F801EC0FF11D60E080810E949A06CF5F07
S1130240C330A0F3C0E00BC04C2F4D0F4D5FF7013E
S1130250EC0FF11D60E080810E949A06CF5FC430EC
S113026098F344E660E081E08B0D0E949A060E94B8
S1130270A80A8DE790E00E94B00A60E081E00E9445
S1130280900A88E890E00E94B00A64E680E00E9448
S1130290B406682F70E080E090E00E94B2098FEF0E
S11302A099E628E1815090402040E1F700C0000029
S11302B017C00E94A80A85E990E00E94B00A60E095
S11302C081E00E94900A81EA90E00E94B00A8FEFD8
S11302D099E628E1815090402040E1F700C00000F9
S11302E0DF91CF911F910F91FF90EF90DF90CF900E
S11302F0BF90AF900895CF92DF92EF92FF920F9349
S11303001F93CF93DF93811153C062C0DF2DDD0FA4
S1130310DD0FDD0FDF19E12CC0E00DC06C2F6D0F78
S113032080E00E94B406F801EC0FF11D908189135E
S113033001C0E394CF5FC33088F323E0E2120EC020
S113034081EB90E00E94B00A8FEF93EC29E081509A
S113035090402040E1F700C00000C39481E0C8123F
S113036025C00DC0EC2EED0E67E06E0D80E00E94FE
S1130370B4064E2D60E00E949A06CF5F01C0C0E033
S1130380C33080F3C0E010C06C2F6D0F0F2EF3E06C
S1130390EF2EF02DE60E665F80E00E94B4064E2D2F
S11303A060E00E949A06CF5FC43070F3F39404C0F7
S11303B08B01D82EC12CF12CFD1408F4A7CF91E0A9
S11303C0C91206C044E660E08FEF8D0D0E949A06C4
S11303D0DF91CF911F910F91FF90EF90DF90CF901D
S11303E00895EF92FF920F931F93CF93DF937C01B5
S11303F08B010E94A80AC0E0D0E00DC065E66C0F36
S113040080E00E94B406F701EC0FF11D908189137E
S113041001C0DF5FCF5FC33088F3C0E0F12C0DC0B3
S113042068E66C0F80E00E94B406F801EC0FF11D41
S11304309081891301C0F394CF5FC43088F3D33023
S113044091F424E0F2120FC080EC90E00E94B00A14
S11304508FEF99E628E1815090402040E1F700C0F9
S11304600000C0E047C084E0F81211C0D33079F036
S113047080E690E00E94B00A9FEF29E688E191505F
S113048020408040E1F700C00000C1E033C0D33019
S113049091F494E0F91679F081ED90E00E94B00AAD
S11304A02FEF89E698E1215080409040E1F700C0A9
S11304B00000C1E01FC0D330D1F024E0F216C9F02F
S11304C080E690E00E94B00A60E081E00E94900A19
S11304D081ED90E00E94B00A8FEF99E628E1815007
S11304E090402040E1F700C00000C1E003C0C0E03C
S11304F001C0C0E08FEF95EA2EE08150904020408B
S1130500E1F700C000000E94A80A8FEF95EA2EE0F0
S1130510815090402040E1F700C000008C2FDF9113
S1130520CF911F910F91FF90EF900895AF92BF92DA
S1130530CF92DF92EF92FF920F931F93CF93DF93AB
S11305407C018B0164E680E00E94B406B82E811120
S113055033C05CC0DD2DDD0FDD0FDD0FDD19C0E024
S1130560C12C0DC06C2F6D0F80E00E94B406F70102
S1130570EC0FF11D9081891301C0C394CF5FC33088
S113058088F3C0E0A12C0EC06C2F6D0F6D5F80E06E
S11305900E94B406F801EC0FF11D9081891301C08B
S11305A0A394CF5FC43080F323E0C21203C084E07D
S11305B0A81639F0D39401C0D12CDB1458F2A12C25
S11305C0C12C93E0C91209C024E0A21206C080EC39
S11305D090E00E94B00A80E031C00E94A80A80E640
S11305E090E00E94B00A60E081E00E94900A82EEEE
S11305F090E00E94B00A8FEF93ED20E38150904089
S11306002040E1F700C0000081E018C00E94A80A61
S11306108EEE90E00E94B00A60E081E00E94900AB1
S113062080E091E00E94B00A8FEF93ED20E38150C7
S113063090402040E1F700C0000082E0DF91CF91BC
S11306401F910F91FF90EF90DF90CF90BF90AF90EC
S113065008950F931F93CF938C0160E081E00E9473
S1130660900AC0E00BC00E941007882339F0F801FB
S1130670EC0FF11D80830E940809CF5FC33098F30B
S11306802FEF85EA9EE0215080409040E1F700C0C2
S11306900000CF911F910F9108950F931F93CF9353
S11306A08C0160E081E00E94900AC0E00CC00E94CE
S11306B01007882341F0F801EC0FF11D80838AE2D2
S11306C00E940809CF5FC43090F32FEF85EA9EE0C3
S11306D0215080409040E1F700C00000CF911F916D
S11306E00F910895CF93DF93EC01888181111EC08F
S11306F00E94A80A60E080E00E94900A8AE091E0EB
S11307000E94B00A0E94F50A60E070E080EF92E473
S11307100E940A0B2FEF89E698E121508040904017
S1130720E1F700C0000081E088831BC00E94A80A92
S113073060E080E00E94900A89E191E00E94B00AA2
S11307400E94FA0A60E070E0CB010E940A0B2FEFCE
S113075089E698E1215080409040E1F700C0000014
S11307601882DF91CF910895CF93DF93EC0181E25A
S11307700E94CD0A8881811120C00E94D80A8B3141
S113078078F080E20E94CD0A81E20E94D10A80E0E2
S11307900E94850684E60E948E060E9491060AC085
S11307A0853140F481E20E94CD0A80E20E94D10AA0
S11307B00E94940681E0888309C00E94940681E225
S11307C00E94D10A80E20E94D10A1882DF91CF915F
S11307D008950E94A80A88E291E00E94B00A60E0AD
S11307E081E00E94900A89E391E00E94B00A2FEF11
S11307F087EA91E6215080409040E1F700C0000074
S11308000E94A80A089560E070E0CB010E940A0BE0
S11308100E94FA0A0895813021F50E94D80A8A318B
S113082078F080E20E94CD0A81E20E94D10A80E041
S11308300E94850684E60E948E060E9491060AC0E4
S1130840853140F481E20E94CD0A80E20E94D10AFF
S11308500E9494060E94A80A86E491E00E94B00ACD
S113086008950E94940681E20E94D10A80E20E94C7
S1130870D10A0E94A80A80E591E00E94B00A089576
S11308808130C9F460E00E94900A8AE091E00E94FD
S1130890B00A60E070E080EF92E40E940A0B0E94CC
S11308A0F50A2FEF89E698E1215080409040E1F766
S11308B000C00000089560E081E00E94900A89E190
S11308C091E00E94B00A60E070E0CB010E940A0B44
S11308D00E94FA0A2FEF89E698E121508040904067
S11308E0E1F700C000000895CF93DF93CDB7DEB7E2
S11308F029970FB6F894DEBF0FBECDBF0E947A09C8
S11309000E94CF060E9497060E947A060E94D50A8A
S11309100E94FF0A80E20E94C90A81E20E94C90A79
S11309200E946B060E94E70A0E94F00A64E680E0D7
S11309300E94B406082F19821A821B821C821D820F
S11309401E821F8218861986E09132028E2F90E053
S113095083339105C8F7FC01E65DFF4F0C94CA1080
S11309600E94E90380E380933202EECF0E94A80A3A
S11309708AE591E00E94B00A60E081E00E94900A5A
S11309808BE691E00E94B00A0E9410070DC00E94FD
S11309901007813321F491E39093320205C082332E
S11309A019F492E390933202882389F3CDCF0E9405
S11309B0A80A8AE791E00E94B00A2FEF83ED90E342
S11309C0215080409040E1F700C000000E94A80A36
S11309D010E041C088E891E00E94B00ACE0101967F
S11309E00E9429030E94A80A87E991E00E94B00AA4
S11309F0CE0104960E944D03BE016C5F7F4FCE0171
S1130A0001960E94F101811104C081E080933202B9
S1130A109BCF1F5F1330F9F40E9470060E940304F9
S1130A200E94EC0A0E94EC0A8130E1F72FEF87EE76
S1130A3093E0215080409040E1F700C000000E9404
S1130A40EC0A813079F70E94EC0A8130E1F30E94CC
S1130A50750610923202133008F4BCCF75CF0E9491
S1130A60A80A86EA91E00E94B00A2FEF83ED90E392
S1130A70215080409040E1F700C0000010E04DC0DC
S1130A800E94A80A88E891E00E94B00ACE0101966B
S1130A900E9429030E94A80A87E991E00E94B00AF3
S1130AA0CE0104960E944D03BE016C5F7F4FCE01C0
S1130AB001960E949602811104C082E08093320262
S1130AC043CF823021F480E3809332023DCF8130E2
S1130AD021F51F5F133009F50E9470060E9403047C
S1130AE00E94A80A0E94EC0A0E94EC0A8130E1F7F5
S1130AF02FEF87EE93E0215080409040E1F700C053
S1130B0000000E94EC0A813079F70E94EC0A8130DF
S1130B10E1F30E94750610923202133008F4B0CF4C
S1130B2013CF0E94A80A83EB91E00E94B00A60E010
S1130B3081E00E94900A84EC91E00E94B00A0E9435
S1130B401007182F2DC00E941007182F813329F485
S1130B50CE0108960E94720323C08233E1F40E94FE
S1130B60A80A88E891E00E94B00ACE0101960E948A
S1130B7029030E94A80A87E991E00E94B00ACE01E5
S1130B8004960E944D03BE016C5F7F4FCE01019617
S1130B900E947C0005C0833319F483E08093320201
S1130BA0112389F2D1CE0E94A80A85ED91E00E941A
S1130BB0B00A60E081E00E94900A86EE91E00E9413
S1130BC0B00A0E941007182F23C00E941007182F84
S1130BD0843399F40E94A80A88E891E00E94B00A3C
S1130BE0CE0101960E9429030E94A80ABE016F5FEC
S1130BF07F4F802F0E947B010BC0853321F481E05D
S1130C008093320205C0863319F484E08093320263
S1130C101123D9F299CE0E94A80A84EF91E00E9490
S1130C20B00A60E081E00E94900A83E092E00E94B2
S1130C30B00A0E941007182F15C00E941007182F21
S1130C40873329F4CE0109960E94B4030BC088337C
S1130C5021F481E08093320205C0893319F485E0E0
S1130C6080933202112349F36FCE0E941007182F8C
S1130C7009C00E941007182F89850E940B048885DB
S1130C800E9440041123A9F3109232025DCE0E9407
S1130C90A80A84E192E00E94B00A60E081E00E9428
S1130CA0900A83E292E00E94B00A0E941007182F73
S1130CB00FC00E941007182F813329F4CE01099622
S1130CC00E94B40305C0823319F485E08093320294
S1130CD0112379F339CE61E08BE20E945A0B089517
S1130CE061E08BE20E94E30B089560E08BE20E94D6
S1130CF0E30B089561E08EE20E945A0B61E08CE2FE
S1130D000E945A0B0E942D0E089561E08CE20E940D
S1130D10E30B60E08EE20E94E30B08950E943E0E16
S1130D2008950E945E0E08950E94650E08950E9423
S1130D30390D08951F93CF93DF93683088F4142FEF
S1130D40C62FD82F0E94480D8C2F80650E945C0D01
S1130D50812F0E94850D8D2F0E94850D0E94B20D5A
S1130D60DF91CF911F910895CF93DF93C82FD62F92
S1130D700E94480DC0658C2F0E945C0D8D2F0E942F
S1130D80850D0E94A40D8C2F0E946F0D0E949D0D55
S1130D90C82F0E94B20D8C2FDF91CF91089561E08E
S1130DA082E20E945A0B61E083E20E945A0B61E0E6
S1130DB084E20E945A0B61E085E20E945A0B61E0D2
S1130DC082E20E94E30B61E083E20E94E30B61E0B4
S1130DD084E20E94E30B61E085E20E94E30B60E0A1
S1130DE08FE00E945A0B60E080E10E945A0B60E0A1
S1130DF081E10E945A0B60E087E10E945A0B61E096
S1130E008FE00E94B00C61E080E10E94B00C61E0D0
S1130E1081E10E94B00C61E087E10E94B00C08956A
S1130E20CF9360E082E20E94E30B8FE00E946C0C9F
S1130E30811119C02FEF86E791E021508040904046
S1130E40E1F700C000008FE00E946C0C81110DC01E
S1130E508FE00E946C0C8823D9F361E082E20E9447
S1130E60E30BC7E303C0C0E001C0C0E080E10E941F
S1130E706C0C811118C02FEF86E791E0215080405F
S1130E809040E1F700C0000080E10E946C0C8111E9
S1130E900AC080E10E946C0C8823D9F361E082E2ED
S1130EA00E94E30BC8E381E10E946C0C811118C01D
S1130EB02FEF86E791E0215080409040E1F700C099
S1130EC0000081E10E946C0C81110AC081E10E9442
S1130ED06C0C8823D9F361E082E20E94E30BC9E33E
S1130EE087E10E946C0C811118C02FEF86E791E016
S1130EF0215080409040E1F700C0000087E10E944B
S1130F006C0C81110AC087E10E946C0C8823D9F310
S1130F1061E082E20E94E30BCFE261E082E20E94A0
S1130F20E30B60E083E20E94E30B8FE00E946C0C11
S1130F30811118C02FEF86E791E021508040904046
S1130F40E1F700C000008FE00E946C0C81110AC020
S1130F508FE00E946C0C8823D9F361E083E20E9445
S1130F60E30BC4E380E10E946C0C811118C02FEFE5
S1130F7086E791E0215080409040E1F700C00000F6
S1130F8080E10E946C0C81110AC080E10E946C0C0B
S1130F908823D9F361E083E20E94E30BC5E381E196
S1130FA00E946C0C811118C02FEF86E791E021504C
S1130FB080409040E1F700C0000081E10E946C0C89
S1130FC081110AC081E10E946C0C8823D9F361E08D
S1130FD083E20E94E30BC6E387E10E946C0C81115B
S1130FE018C02FEF86E791E0215080409040E1F750
S1130FF000C0000087E10E946C0C81110AC087E1E7
S11310000E946C0C8823D9F361E083E20E94E30B15
S1131010CAE261E083E20E94E30B60E084E20E94A2
S1131020E30B8FE00E946C0C811118C02FEF86E750
S113103091E0215080409040E1F700C000008FE033
S11310400E946C0C81110AC08FE00E946C0C8823F2
S1131050D9F361E084E20E94E30BC1E380E10E94E2
S11310606C0C811118C02FEF86E791E0215080406D
S11310709040E1F700C0000080E10E946C0C8111F7
S11310800AC080E10E946C0C8823D9F361E084E2F9
S11310900E94E30BC2E381E10E946C0C811118C031
S11310A02FEF86E791E0215080409040E1F700C0A7
S11310B0000081E10E946C0C81110AC081E10E9450
S11310C06C0C8823D9F361E084E20E94E30BC3E350
S11310D087E10E946C0C811118C02FEF86E791E024
S11310E0215080409040E1F700C0000087E10E9459
S11310F06C0C81110AC087E10E946C0C8823D9F31F
S113110061E084E20E94E30BCDE261E084E20E94AC
S1131110E30B60E085E20E94E30B8FE00E946C0C1D
S1131120811118C02FEF86E791E021508040904054
S1131130E1F700C000008FE00E946C0C81110AC02E
S11311408FE00E946C0C8823D9F361E085E20E9451
S1131150E30BC3E480E10E946C0C811118C02FEFF3
S113116086E791E0215080409040E1F700C0000004
S113117080E10E946C0C81110AC080E10E946C0C19
S11311808823D9F361E085E20E94E30BC0E381E1A7
S11311900E946C0C811118C02FEF86E791E021505A
S11311A080409040E1F700C0000081E10E946C0C97
S11311B081110AC081E10E946C0C8823D9F361E09B
S11311C085E20E94E30BCDE387E10E946C0C811160
S11311D018C02FEF86E791E0215080409040E1F75E
S11311E000C0000087E10E946C0C81110AC087E1F5
S11311F00E946C0C8823D9F361E085E20E94E30B22
S1131200CBE261E085E20E94E30B8C2FCF9108953D
S1131210CF93C82F61E084E10E94E30B88B38F7001
S11312209C2F907F892B88BB61E086E10E94E30BB1
S11312308FE99FE00197F1F700C0000060E086E1CC
S11312400E94E30B28B330E1C39FC0011124922F05
S11312509F70892B88BB61E086E10E94E30B8FE9D4
S11312609FE00197F1F700C0000060E086E10E9472
S1131270E30BCF910895CF93C82F60E084E10E94DF
S1131280E30B88B38F709C2F907F892B88BB61E020
S113129086E10E94E30B8FE99FE00197F1F700C01C
S11312A0000060E086E10E94E30B8FE19EE4019779
S11312B0F1F700C0000028B330E1C39FC00111243E
S11312C0922F9F70892B88BB61E086E10E94E30B1B
S11312D08FE99FE00197F1F700C0000060E086E12C
S11312E00E94E30B8FE19EE40197F1F700C0000038
S11312F0CF91089561E088E10E945A0B61E089E191
S11313000E945A0B61E08AE10E945A0B61E08BE172
S11313100E945A0B61E084E10E945A0B61E085E16E
S11313200E945A0B61E086E10E945A0B2FEF83ED75
S113133090E3215080409040E1F700C0000083E337
S11313400E943B0982E30E943B0988E20E943B0918
S11313508CE00E943B0981E00E943B0982E00E94EC
S11313603B0908953F924F925F926F927F928F92C2
S11313709F92AF92BF92CF92DF92EF92FF920F9320
S11313801F93CF93DF9300D000D0CDB7DEB74B01CE
S11313905C012DB73EB73A832983672B682B692BF1
S11313A019F480E30E940809A8EEB3E0A5019401B2
S11313B00E94DF1028EE33E040E050E00E94AB10C2
S11313C0672B682B692B09F08EC0BB205CF48DE27F
S11313D00E940809B094A09490948094811C911C5C
S11313E0A11CB11C181419041A041B040CF07BC0B2
S11313F0A5019401312C0EC021153105410551057B
S113140049F0CA01B9012AE030E040E050E00E940E
S113141089103394211531054105510569F78DB7BC
S11314209EB79C838B83832D90E0880F991F880F30
S1131430991F2DB73EB7281B390B0FB6F8943EBF42
S11314400FBE2DBF0DB71EB70F5F1F4F412C512C80
S1131450320120C03FEF431A530A630A730AC418C7
S1131460D508E608F708C501B4012AE030E040E0F9
S113147050E00E94AB10CC0CDD1CCC0CDD1CF80140
S1131480EC0DFD1D6083718382839383822E932EE2
S1131490A42EB52EC32CD12CE12CF12C4C145D04BC
S11314A06E047F04B8F2812C912C540110C0F40115
S11314B0EE0FFF1FEE0FFF1FE00FF11F8081805D15
S11314C00E9408098FEF881A980AA80AB80A8C148F
S11314D09D04AE04BF0458F32B813C810FB6F894ED
S11314E03EBF0FBE2DBF89819A810FB6F8949EBF6F
S11314F00FBE8DBF0F900F900F900F90DF91CF9183
S11315001F910F91FF90EF90DF90CF90BF90AF901D
S11315109F908F907F906F905F904F903F90089531
S1131520CF93DF9300D0CDB7DEB790E8998390ECEA
S11315309A83E1E0F0E0EC0FFD1FE80FF11D8081DC
S1131540860F0E943B090F900F90DF91CF91089571
S113155081E00E943B0960E080E00E94900A0895C7
S11315600F931F93CF938C01C0E009C00E94080918
S1131570CF5FC03121F460E081E00E94900AF8015D
S1131580EC0FF11D80818111F1CFCF911F910F914B
S1131590089561E00E945A0B089561E00E94E30BF4
S11315A0089560E00E94E30B08950E94210B0895C2
S11315B00E944D0B9C01A4EFB1E00E94D0102FEFCC
S11315C033E040E050E00E948910C901089560E0D2
S11315D08AE20E945A0B08958AE20E946C0C0895D4
S11315E061E08EE00E945A0B089561E08EE00E9453
S11315F0E30B089560E08EE00E94E30B089561E040
S11316008DE20E945A0B0E94BF0D82E390E00E947B
S1131610FA0D089520E030E040EA50E40E940810FA
S113162020E030E044E353E40E94D90E20E030E0AF
S113163040EA50E40E946D0E0E94D50D0E940F0EE8
S1131640089560E08BE00E945A0B87B1806487B9EB
S113165087B18F7787B987B18F7D87B987B18F7E3F
S113166087B987B1877F87B987B18B7F87B987B1FE
S11316708D7F87B987B18E7F87B986B1846086B93B
S113168086B1826086B986B1816086B986B1806888
S113169086B986B1806286B9089586B1806486B9B8
S11316A0349BFECF24B185B190E0982F8827820F18
S11316B0911D08959DEC899F912D1124292F269524
S11316C026952695220F322F330F330F230F821BBB
S11316D0282F969596959695662319F06130E1F139
S11316E008959230A9F018F4913031F008959330B0
S11316F0D9F0943029F108953AB381E090E002C022
S1131700880F991F2A95E2F7809583238ABB089551
S113171037B381E090E002C0880F991F2A95E2F761
S11317208095832387BB089534B381E090E002C0A1
S1131730880F991F2A95E2F78095832384BB089527
S113174031B381E090E002C0880F991F2A95E2F737
S11317508095832381BB08959230A1F018F49130D1
S113176031F008959330C9F0943011F108953AB3EB
S113177081E090E002C0880F991F2A95E2F7832B3D
S11317808ABB089537B381E090E002C0880F991FA7
S11317902A95E2F7832B87BB089534B381E090E068
S11317A002C0880F991F2A95E2F7832B84BB089502
S11317B031B381E090E002C0880F991F2A95E2F7C7
S11317C0832B81BB08959DEC899F912D1124292F92
S11317D0269526952695220F322F330F330F230F8C
S11317E0821B282F969596959695662319F061305D
S11317F0E1F108959230A9F018F4913031F0089590
S11318009330D9F0943029F108953BB381E090E00E
S113181002C0880F991F2A95E2F7809583238BBB1A
S1131820089538B381E090E002C0880F991F2A958B
S1131830E2F78095832388BB089535B381E090E077
S113184002C0880F991F2A95E2F78095832385BBF0
S1131850089532B381E090E002C0880F991F2A9561
S1131860E2F78095832382BB08959230A1F018F4A7
S1131870913031F008959330C9F0943011F1089506
S11318803BB381E090E002C0880F991F2A95E2F7EC
S1131890832B8BBB089538B381E090E002C0880F9E
S11318A0991F2A95E2F7832B88BB089535B381E00D
S11318B090E002C0880F991F2A95E2F7832B85BB1D
S11318C0089532B381E090E002C0880F991F2A95F1
S11318D0E2F7832B82BB08959DEC899F912D1124FF
S11318E0292F269526952695220F322F330F330F55
S11318F0230F821B282F892F869586958695823003
S113190091F018F4813031F029C08330A9F084308B
S1131910E1F024C089B390E002C0959587952A959B
S1131920E2F78170089586B390E002C0959587959B
S11319302A95E2F78170089583B390E002C09595EB
S113194087952A95E2F78170089580B390E002C0EC
S1131950959587952A95E2F78170089580E008951A
S11319609DEC899F912D1124292F26952695269546
S1131970220F322F330F330F230F821B282F9695FC
S113198096959695662319F06130E1F108959230A9
S1131990A9F018F4913031F008959330D9F09430CF
S11319A029F108953BB381E090E002C0880F991FAC
S11319B02A95E2F7809583238BBB089538B381E0A1
S11319C090E002C0880F991F2A95E2F7809583233F
S11319D088BB089535B381E090E002C0880F991F59
S11319E02A95E2F78095832385BB089532B381E07D
S11319F090E002C0880F991F2A95E2F7809583230F
S1131A0082BB08959230A1F018F4913031F008951A
S1131A109330C9F0943011F108953BB381E090E024
S1131A2002C0880F991F2A95E2F7832B8BBB089578
S1131A3038B381E090E002C0880F991F2A95E2F73D
S1131A40832B88BB089535B381E090E002C0880FF2
S1131A50991F2A95E2F7832B85BB089532B381E061
S1131A6090E002C0880F991F2A95E2F7832B82BB6E
S1131A70089586B78B7F86BF8CE080B986B7846073
S1131A8086BF8FE39CE90197F1F700C00000089539
S1131A9086B7806286BF86B7806886BF06B607FEB3
S1131AA0FDCF81B1887F8830E1F78FE39CE901970E
S1131AB0F1F700C000000895880F83B986B78068E5
S1131AC086BF06B607FEFDCF81B1887F8831E1F776
S1131AD08FE39CE90197F1F700C00000089590E0BE
S1131AE0880F991F816083B986B7806886BF06B660
S1131AF007FEFDCF81B1887F8034E1F78FE39CE955
S1131B000197F1F700C00000089583B986B78F7D6F
S1131B1086BF86B7806886BF06B607FEFDCF81B153
S1131B20887F8832E1F72FEF81EE94E021508040E6
S1131B309040E1F700C00000089584E886BF06B62F
S1131B4007FEFDCF83B1089586B7806286BF86B74E
S1131B50806886BF06B607FEFDCF81B1887F8031DD
S1131B60E1F7089586B7806186BF86B7806886BF2F
S1131B708FE99FE00197F1F700C00000089581B359
S1131B80806281BB8FB580688FBD8FB58F7B8FBD21
S1131B908EB580618EBD8EB588608EBD8FB5826036
S1131BA08FBD8FB58E7F8FBD0895CF92DF92EF9258
S1131BB0FF926B017C0166B577B580E090E00E94EE
S1131BC07A0FA70196010E94081020E030E048EC4B
S1131BD052E40E94D90E20E030E040E85FE30E9426
S1131BE06C0E0E944B0F7BBD6ABDFF90EF90DF909F
S1131BF0CF90089500249695879507949695879598
S1131C000794982F802D9C0140E050E060E074E23E
S1131C1084EF90E00E94AB1037BD26BD08958EB5C9
S1131C208B7F8EBD8EB582608EBD8EB581608EBD7C
S1131C30089585B5846085BD85B5826085BD85B50B
S1131C40816085BD089585B58B7F85BD85B58D7F04
S1131C5085BD85B58E7F85BD089561E08FE20E94C4
S1131C605A0B85B5886085BD85B5806485BD85B50D
S1131C70806285BD85B58F7E85BD089581110FC0B5
S1131C8095B5906295BD95B5906195BD982F80E00E
S1131C9064E670E00E947510609563BD089595B583
S1131CA0906295BD95B59F7E95BD982F80E064E6C2
S1131CB070E00E947510615063BD08950E94190E72
S1131CC061E08FE20E945A0B08950E94230E60E0A7
S1131CD08FE20E945A0B08955058BB27AA270E94EE
S1131CE0840E0C94CE0F0E94C00F38F00E94C70FD0
S1131CF020F039F49F3F19F426F40C94BD0F0EF430
S1131D00E095E7FB0C94B70FE92F0E94DF0F58F31F
S1131D10BA17620773078407950720F079F4A6F5CC
S1131D200C9401100EF4E0950B2EBA2FA02D0B018C
S1131D30B90190010C01CA01A0011124FF27591B0C
S1131D4099F0593F50F4503E68F11A16F040A22F12
S1131D50232F342F4427585FF3CF46953795279583
S1131D60A795F0405395C9F77EF41F16BA0B620B82
S1131D70730B840BBAF09150A1F0FF0FBB1F661FC9
S1131D80771F881FC2F70EC0BA0F621F731F841F0C
S1131D9048F4879577956795B795F7959E3F08F032
S1131DA0B0CF9395880F08F09927EE0F97958795F4
S1131DB008950E94ED0E0C94CE0F0E94C70F58F0A8
S1131DC00E94C00F40F029F45F3F29F00C94B70F34
S1131DD051110C9402100C94BD0F0E94DF0F68F394
S1131DE09923B1F3552391F3951B550BBB27AA27D0
S1131DF062177307840738F09F5F5F4F220F331F0A
S1131E00441FAA1FA9F335D00E2E3AF0E0E832D0D1
S1131E1091505040E695001CCAF72BD0FE2F29D0D4
S1131E20660F771F881FBB1F261737074807AB07A6
S1131E30B0E809F0BB0B802DBF01FF2793585F4F1B
S1131E403AF09E3F510578F00C94B70F0C940210B1
S1131E505F3FE4F3983ED4F3869577956795B795FD
S1131E60F7959F5FC9F7880F911D9695879597F908
S1131E700895E1E0660F771F881FBB1F6217730781
S1131E808407BA0720F0621B730B840BBA0BEE1F96
S1131E9088F7E09508950E94E70F88F09F5798F01F
S1131EA0B92F9927B751B0F0E1F0660F771F881F5B
S1131EB0991F1AF0BA95C9F714C0B13091F00E9475
S1131EC00110B1E008950C940110672F782F882732
S1131ED0B85F39F0B93FCCF3869577956795B3959C
S1131EE0D9F73EF490958095709561957F4F8F4F0B
S1131EF09F4F0895E89409C097FB3EF49095809510
S1131F00709561957F4F8F4F9F4F9923A9F0F92FBB
S1131F1096E9BB279395F695879577956795B79539
S1131F20F111F8CFFAF4BB0F11F460FF1BC06F5F1F
S1131F307F4F8F4F9F4F16C0882311F096E911C031
S1131F40772321F09EE8872F762F05C0662371F052
S1131F5096E8862F70E060E02AF09A95660F771F66
S1131F60881FDAF7880F9695879597F9089597F95A
S1131F709F6780E870E060E008959FEF80EC08952B
S1131F8000240A9416161706180609060895002454
S1131F900A9412161306140605060895092E0394CE
S1131FA0000C11F4882352F0BB0F40F4BF2B11F442
S1131FB060FF04C06F5F7F4F8F4F9F4F089557FDA1
S1131FC09058440F551F59F05F3F71F04795880FA3
S1131FD097FB991F61F09F3F79F08795089512163A
S1131FE013061406551FF2CF4695F1DF08C01616E6
S1131FF017061806991FF1CF869571056105089497
S11320000895E894BB2766277727CB0197F90895AD
S11320100E941B100C94CE0F0E94C00F38F00E9437
S1132020C70F20F0952311F00C94B70F0C94BD0F3B
S113203011240C9402100E94DF0F70F3959FC1F3DA
S1132040950F50E0551F629FF001729FBB27F00D62
S1132050B11D639FAA27F00DB11DAA1F649F6627B7
S1132060B00DA11D661F829F2227B00DA11D621F06
S1132070739FB00DA11D621F839FA00D611D221FC0
S1132080749F3327A00D611D231F849F600D211DA4
S1132090822F762F6A2F11249F5750409AF0F1F027
S11320A088234AF0EE0FFF1FBB1F661F771F881F90
S11320B091505040A9F79E3F510580F00C94B70F02
S11320C00C9402105F3FE4F3983ED4F38695779521
S11320D06795B795F795E7959F5FC1F7FE2B880F36
S11320E0911D9695879597F9089597FB072E16F4F9
S11320F0009407D077FD09D00E94EA1007FC05D0B0
S11321003EF4909581959F4F0895709561957F4F0A
S11321100895A1E21A2EAA1BBB1BFD010DC0AA1F24
S1132120BB1FEE1FFF1FA217B307E407F50720F03C
S1132130A21BB30BE40BF50B661F771F881F991FB7
S11321401A9469F760957095809590959B01AC0100
S1132150BD01CF010895052E97FB1EF400940E9443
S1132160C21057FD07D00E94891007FC03D04EF41B
S11321700C94C21050954095309521953F4F4F4F88
S11321805F4F089590958095709561957F4F8F4F1F
S11321909F4F0895EE0FFF1F0590F491E02D0994D1
S11321A0A29FB001B39FC001A39F700D811D112494
S11321B0911DB29F700D811D1124911D08950E94DF
S11321C0D010A59F900DB49F900DA49F800D911DDC
S11321D011240895AA1BBB1B51E107C0AA1FBB1FF2
S11321E0A617B70710F0A61BB70B881F991F5A959F
S11321F0A9F780959095BC01CD010895F894FFCF7F
S1132200496E76616C696420557365726E616D65A3
S11322100056616C696420456E747279005573656B
S113222072204164646564004E6F206F66205573AC
S1132230657273200052656163686564206D61781E
S1132240004E756D626572204F662055736572731A
S11322500056616C696420557365726E616D65002A
S11322604C6F67696E205375636365737366756C31
S113227000496E76616C69642050617373776F7284
S113228064004F722050617373776F7264005468F6
S1132290657265206973206E6F20757365727300B3
S11322A061646465642079657400446F6F722049C9
S11322B073204F70656E656400446F6F72204973BC
S11322C020436C6F7365640057656C636F6D6520A4
S11322D0746F20536D61727400486F6D6520507285
S11322E06F6A656374004143204F70656E656400D6
S11322F0414320436C6F73656400202020205765A0
S11323006C636F6D65202020202000313A41646D9C
S1132310696E20323A557365720057656C636F6D50
S1132320652041646D696E00456E74657220557355
S113233065726E616D6500456E74657220506173DF
S113234073776F72640057656C636F6D65205573A6
S113235065720020313A53776974636820446F6F63
S113236072202000323A4164645573657220333A16
S11323704E6578740020343A52656D6F7665205549
S1132380736572202000353A4261636B20363A4E01
S11323906578740020373A53776974636820414341
S11323A0202000383A3173745061676520393A440B
S11323B06F6E650020313A53776974636820414336
S11323C0202000202020323A20446F6E65202020F7
S10523D02000E7
S9030000FC
